:020000040800F2
:1000000000300020E9220008F90E0008FB0E00086D
:10001000FD0E0008FF0E0008010F000800000000A0
:10002000000000000000000000000000030F0008B6
:10003000050F000800000000070F0008090F000866
:100040003923000839230008392300083923000820
:100050003923000839230008392300083923000810
:100060003923000839230008392300083923000800
:1000700039230008392300083923000839230008F0
:1000800039230008392300083923000839230008E0
:1000900039230008392300083923000839230008D0
:1000A00039230008392300083923000839230008C0
:1000B0003923000839230008000000003923000814
:1000C0003923000800000000000000003923000868
:1000D00000000000392300083923000839230008F4
:1000E0003923000839230008000000000000000048
:1000F0000000000000000000000000000000000000
:1001000000000000000000000000000000000000EF
:100110000000000000000000392300083923000817
:1001200000000000000000000000000000000000CF
:1001300000000000000000000000000000000000BF
:1001400039230008392300080000000000000000E7
:10015000000000000000000000000000000000009F
:10016000000000000000000000000000000000008F
:10017000000000000000000000000000000000007F
:08018000000000003923000813
:1001900001F0FF01102A2BDB10F0070F08D010F838
:1001A000013B013A8B422DD010F0070F42B3F6D13C
:1001B000F0B441EA012141EA014122F007047FF055
:1001C00000070023F0E80256083C85EA010586EAAC
:1001D000010685FA47F5A3FA87F586FA47F6A5FAE8
:1001E00087F68EB9EED1F0BC01F0FF0102F00702F4
:1001F00032B110F8013B013A83EA010313B1F8D19F
:100200000020704701387047002D06BF354603387F
:10021000073815F0010F07D1013015F4807F02BFB8
:10022000013015F4C03F0130F0BC0138704700BF09
:1002300081F0004102E000BF83F0004330B54FEA97
:1002400041044FEA430594EA050F08BF90EA020F04
:100250001FBF54EA000C55EA020C7FEA645C7FEA97
:10026000655C00F0E2804FEA5454D4EB5555B8BFBA
:100270006D420CDD2C4480EA020281EA030382EA2B
:10028000000083EA010180EA020281EA0303362DBD
:1002900088BF30BD11F0004F4FEA01314FF4801C90
:1002A0004CEA113102D0404261EB410113F0004FA2
:1002B0004FEA03334CEA133302D0524263EB430359
:1002C00094EA050F00F0A780A4F10104D5F1200EF7
:1002D0000DDB02FA0EFC22FA05F2801841F1000152
:1002E00003FA0EF2801843FA05F359410EE0A5F126
:1002F00020050EF1200E012A03FA0EFC28BF4CF057
:10030000020C43FA05F3C01851EBE37101F000450C
:1003100007D54FF0000EDCF1000C7EEB00006EEB19
:100320000101B1F5801F1BD3B1F5001F0CD34908A3
:100330005FEA30004FEA3C0C04F101044FEA4452FA
:1003400012F5800F80F09A80BCF1004F08BF5FEA81
:10035000500C50F1000041EB045141EA050130BD61
:100360005FEA4C0C404141EB0101013C28BFB1F573
:10037000801FE9D291F0000F04BF01460020B1FABE
:1003800081F308BF2033A3F10B03B3F120020CDA91
:100390000C3208DD02F1140CC2F10C0201FA0CF06F
:1003A00021FA02F10CE002F11402D8BFC2F1200CD4
:1003B00001FA02F120FA0CFCDCBF41EA0C0190408A
:1003C000E41AA2BF01EB0451294330BD6FEA0404D3
:1003D0001F3C1CDA0C340EDC04F11404C4F12002BE
:1003E00020FA04F001FA02F340EA030021FA04F3D0
:1003F00045EA030130BDC4F10C04C4F1200220FA27
:1004000002F001FA04F340EA0300294630BD21FA64
:1004100004F0294630BD94F0000F83F4801306BF2A
:1004200081F480110134013D4EE77FEA645C18BF1E
:100430007FEA655C29D094EA050F08BF90EA020FB5
:1004400005D054EA000C04BF1946104630BD91EAAD
:10045000030F1EBF0021002030BD5FEA545C05D1B0
:100460004000494128BF41F0004130BD14F58004EF
:100470003CBF01F5801130BD01F0004545F0FE4163
:1004800041F470014FF0000030BD7FEA645C1ABF98
:10049000194610467FEA655C1CBF0B46024650EACF
:1004A000013406BF52EA033591EA030F41F40021FB
:1004B00030BD00BF90F0000F04BF0021704730B581
:1004C0004FF4806404F132044FF000054FF0000156
:1004D00050E700BF90F0000F04BF0021704730B517
:1004E0004FF4806404F1320410F0004548BF4042EC
:1004F0004FF000013EE700BF42004FEAE2014FEA41
:1005000031014FEA02701FBF12F07F4393F07F4F1B
:1005100081F06051704732F07F4208BF704793F01E
:100520007F4F04BF41F40021704730B54FF4607431
:1005300001F0004521F000411CE700BF50EA010234
:1005400008BF704730B54FF000050AE050EA0102DD
:1005500008BF704730B511F0004502D5404261EB4D
:1005600041014FF4806404F132045FEA915C3FF48E
:10057000D8AE4FF003025FEADC0C18BF03325FEA2B
:10058000DC0C18BF033202EBDC02C2F1200300FADC
:1005900003FC20FA02F001FA03FE40EA0E0021FA01
:1005A00002F11444BDE600BF70B54FF0FF0C4CF4EF
:1005B000E06C1CEA11541DBF1CEA135594EA0C0FA1
:1005C00095EA0C0F00F0DEF82C4481EA030621EADC
:1005D0004C5123EA4C5350EA013518BF52EA033517
:1005E00041F4801143F4801338D0A0FB02CE4FF0C9
:1005F0000005E1FB02E506F00042E0FB03E54FF0F9
:100600000006E1FB03569CF0000F18BF4EF0010EF0
:10061000A4F1FF04B6F5007F64F5407404D25FEAEC
:100620004E0E6D4146EB060642EAC62141EA55519F
:100630004FEAC52040EA5E504FEACE2EB4F1FD0CE1
:1006400088BFBCF5E06F1ED8BEF1004F08BF5FEA5F
:10065000500E50F1000041EB045170BD06F0004611
:1006600046EA010140EA020081EA0301B4EB5C04BE
:10067000C2BFD4EB0C0541EA045170BD41F48011B6
:100680004FF0000E013C00F3AB8014F1360FDEBFDB
:10069000002001F0004170BDC4F10004203C35DAB7
:1006A0000C341BDC04F11404C4F1200500FA05F33A
:1006B00020FA04F001FA05F240EA020001F00042DB
:1006C00021F0004110EBD37021FA04F642EB060151
:1006D0005EEA430E08BF20EAD37070BDC4F10C047B
:1006E000C4F1200500FA04F320FA05F001FA04F23F
:1006F00040EA020001F0004110EBD37041F100012B
:100700005EEA430E08BF20EAD37070BDC4F1200535
:1007100000FA05F24EEA020E20FA04F301FA05F29D
:1007200043EA020321FA04F001F0004121FA04F245
:1007300020EA020000EBD3705EEA430E08BF20EA15
:10074000D37070BD94F0000F0FD101F0004640004F
:1007500041EB010111F4801F08BF013CF7D041EAD1
:10076000060195F0000F18BF704703F000465200D5
:1007700043EB030313F4801F08BF013DF7D043EAA6
:100780000603704794EA0C0F0CEA135518BF95EA5C
:100790000C0F0CD050EA410618BF52EA4306D1D1E3
:1007A00081EA030101F000414FF0000070BD50EA02
:1007B000410606BF1046194652EA430619D094EA8C
:1007C0000C0F02D150EA013613D195EA0C0F05D176
:1007D00052EA03361CBF104619460AD181EA0301CA
:1007E00001F0004141F0FE4141F470014FF0000082
:1007F00070BD41F0FE4141F4780170BD70B54FF01D
:10080000FF0C4CF4E06C1CEA11541DBF1CEA13559C
:1008100094EA0C0F95EA0C0F00F0A7F8A4EB05047E
:1008200081EA030E52EA03354FEA013100F0888075
:100830004FEA03334FF0805545EA131343EA12633E
:100840004FEA022245EA111545EA10654FEA0026F3
:100850000EF000419D4208BF964244F1FD0404F5AC
:10086000407402D25B084FEA3202B61A65EB030508
:100870005B084FEA32024FF480104FF4002CB6EBC5
:10088000020E75EB030E22BFB61A754640EA0C0045
:100890005B084FEA3202B6EB020E75EB030E22BF85
:1008A000B61A754640EA5C005B084FEA3202B6EBC6
:1008B000020E75EB030E22BFB61A754640EA9C0085
:1008C0005B084FEA3202B6EB020E75EB030E22BF55
:1008D000B61A754640EADC0055EA060E18D04FEA13
:1008E000051545EA16754FEA06164FEAC30343EAB3
:1008F00052734FEAC2025FEA1C1CC0D111F4801F80
:100900000BD141EA00014FF000004FF0004CB6E778
:1009100011F4801F04BF01430020B4F1FD0C88BF17
:10092000BCF5E06F3FF6AFAEB5EB030C04BFB6EB22
:10093000020C5FEA500C50F1000041EB045170BD15
:100940000EF0004E4EEA113114EB5C04C2BFD4EB42
:100950000C0541EA045170BD41F480114FF0000EC6
:10096000013C90E645EA060E8DE60CEA135594EA42
:100970000C0F08BF95EA0C0F3FF43BAF94EA0C0F45
:100980000AD150EA01347FF434AF95EA0C0F7FF4BA
:1009900025AF104619462CE795EA0C0F06D152EA0E
:1009A00003353FF4FDAE1046194622E750EA4106F2
:1009B00018BF52EA43067FF4C5AE50EA41047FF403
:1009C0000DAF52EA43057FF4EBAE12E74FF0FF3C68
:1009D00006E000BF4FF0010C02E000BF4FF0010C39
:1009E0004DF804CD4FEA410C7FEA6C5C4FEA430CB2
:1009F00018BF7FEA6C5C1BD001B050EA410C0CBF01
:100A000052EA430C91EA030F02BF90EA020F002062
:100A1000704710F1000F91EA030F58BF994208BFC9
:100A200090422CBFD8176FEAE37040F00100704786
:100A30004FEA410C7FEA6C5C02D150EA013C07D1DD
:100A40004FEA430C7FEA6C5CD6D152EA033CD3D028
:100A50005DF8040B704700BF8446104662468C4622
:100A60001946634600E000BF01B5FFF7B7FF002855
:100A700048BF10F1000F01BD4DF808EDFFF7F4FF7E
:100A80000CBF012000205DF808FB00BF4DF808ED09
:100A9000FFF7EAFF34BF012000205DF808FB00BF2C
:100AA0004DF808EDFFF7E0FF94BF012000205DF84E
:100AB00008FB00BF4DF808EDFFF7CEFF94BF012003
:100AC00000205DF808FB00BF4DF808EDFFF7C4FFFC
:100AD00034BF012000205DF808FB00BF4A0011D29E
:100AE00012F5001211D20DD56FF47873B3EB625288
:100AF0000ED44FEAC12343F0004343EA505323FA94
:100B000002F070474FF00000704750EA013002D108
:100B10004FF0FF3070474FF00000704710B5054CA4
:100B2000237833B9044B13B10448AFF30080012399
:100B3000237010BDF0010020000000004C5500089B
:100B400008B5034B1BB103490348AFF3008008BD50
:100B500000000000F40100204C55000870B582B080
:100B600006460D4600238DF807300F4C03E09DF834
:100B7000072004F8012B9DF807200D2A0CD02B46E6
:100B800001220DF10701304601F0B3FA012808D027
:100B90000328ECD1002002E000232370024802B0B9
:100BA00070BD0020FBE700BF5802002010B50446CE
:100BB00003220B4901F032FC68B1032209492046A7
:100BC00001F02CFC48B103220749204601F026FC25
:100BD00010B9022000E0002010BD0120FCE700BF9A
:100BE000785500087455000870550008F8B5074698
:100BF00000261BE0124B1B5D12490B7341F2883338
:100C00001022384601F009FA0F493846FFF7A6FFCF
:100C100006EB4605254401F090FB0C4B03EBC503A6
:100C200083ED000B0134022CE4DD0136022E05DCDD
:100C3000074B9A5D034B9A720024F4E70348F8BD12
:100C40006C5500080000002040420F0010020020F8
:100C50006855000808B50246002301F1006101F55E
:100C60007041022000F0D6FA08BD2DE9F04180461F
:100C70000F4616460024254608E007EB840158F885
:100C80002400FFF7E7FF0543EDB20134B442F4D38B
:100C90002846BDE8F081000082B0064B5A6942F454
:100CA00000325A615B6903F400330193019B02B087
:100CB000704700BF0010024072B6FEE708B50D484D
:100CC0000D4B03604FF41653436000238360C360F1
:100CD00003610C2242618361C3610362102343629A
:100CE0004FF48053836301F0CEFA00B908BDFFF7DB
:100CF000E3FF00BF580300200044004000B591B05E
:100D00002822002106A801F04DFB00230193029345
:100D10000393049305930223069301230A9310235C
:100D20000B9306A800F0A4FB68B90F2301930021E0
:100D3000029103910491059101A800F0E9FE20B908
:100D400011B05DF804FBFFF7B7FFFFF7B5FF000038
:100D5000F0B597B00AAC3B4D0FCD0FC40FCD0FC40B
:100D600095E80F0007C424F8023B1B0C237004AC69
:100D7000354D0FCD0FC495E8030084E8030000F063
:100D80003BF9FFF7BBFFFFF787FFFFF797FF00F087
:100D9000EDF92E4C41F288332F220AA9204601F0AA
:100DA0003CF92B492046FFF7D9FEFFF7FFFE20B1A3
:100DB00001280FD000F0F4F9FEE72448FFF716FFF2
:100DC000044600F0CDF82146502303FB00F000F06C
:100DD000A9F8EFE702A800F0DDF8002700E00137EE
:100DE000029BBB42E6D907EB8703039E06EB031683
:100DF000184C736800933B46174A2021204601F0A7
:100E0000D9FA41F2883380222146104801F005F9D1
:100E10000023082BE3DC0F4D5C1C06EBC402D2E977
:100E20000001CDE900010D4A2021284601F0C2FA57
:100E300041F2883380222946044801F0EEF8234627
:100E4000E7E700BFAC550008DC5500085803002058
:100E5000A0860100D80200207C55000894550008A7
:100E600082B00A4B9A6942F001029A619A6902F0D3
:100E700001020092009ADA6942F08052DA61DB697D
:100E800003F080530193019B02B0704700100240B1
:100E900000B589B000230393049305930693079349
:100EA0000268144B9A4202D009B05DF804FB03F5C6
:100EB000E633DA6942F40032DA61DA6902F40032C8
:100EC0000192019A5A6942F400325A615B6903F453
:100ED00000330293029B48F204030393022304931A
:100EE000032306930723079303A94FF0904000F0D4
:100EF000E1F9D9E700440040FEE7FEE7FEE7FEE740
:100F0000FEE770477047704708B500F087F808BDE6
:100F1000034AD2F8883043F47003C2F8883070472F
:100F200000ED00E030B595B004460D46502200219A
:100F3000684601F037FA094B1B68ADF800301B0C0E
:100F40008DF802304822294602A801F01DFA142229
:100F500021466846FFF789FE15B030BD0C560008E3
:100F60000A4B1B6823F07F4300200AE0013000EBAE
:100F70008002130103F1006303F570431B6823F043
:100F80007F43034A9342F1D0704700BF00F000084E
:100F9000524F570010B50446FFF7E2FF2060024BA6
:100FA0006360204610BD00BF00F0000810B5044685
:100FB0000E4B1A784FF47A73B3FBF2F30C4A1068B5
:100FC000B0FBF3F000F092F868B90F2C01D90120C2
:100FD0000AE0002221464FF0FF3000F077F8054B81
:100FE0001C60002000E0012010BD00BF14000020A4
:100FF000100000201800002008B5074A136843F0CD
:1010000010031360032000F04FF80F20FFF7CEFF0E
:10101000FFF726FF002008BD00200240034A1168A8
:10102000034B1B780B441360704700BFDC030020A8
:1010300014000020014B1868704700BFDC0300203B
:10104000002808DB0901C9B200F1604000F56140E9
:1010500080F80013704700F00F000901C9B2014B7E
:101060001954704714ED00E000B500F00700C0F11E
:10107000070CBCF1040F28BF4FF0040C031D062B16
:101080000FD9C31E4FF0FF3E0EFA0CF021EA00010B
:1010900099400EFA03FE22EA0E0241EA02005DF8D0
:1010A00004FB0023EEE70000074AD36823F4E06363
:1010B0001B041B0C000200F4E060034343F0BF6319
:1010C00043F40033D360704700ED00E010B50446F0
:1010D000054BD868C0F30220FFF7C6FF0146204643
:1010E000FFF7AEFF10BD00BF00ED00E00138B0F12A
:1010F000807F0BD24FF0E0235861054AF02182F83F
:1011000023100020986107221A6170470120704760
:1011100000ED00E0044B0022DA61044A136943F059
:101120000103136101807047E003002000200240AA
:101130000C4BDB6813F0100305D00B4AD36943F066
:101140000203D3611023074AD26812F0040F06D0BD
:101150000549CA6942F00102CA6143F00403014A29
:10116000D360704700200240E00300200A4B1B6957
:1011700013F0800F0BD0084B084A5A6002F18832F6
:101180005A601B6913F0800F03D1002070470020C4
:1011900070470120704700BF0020024023016745CF
:1011A000034A136943F0800313610020704700BFB6
:1011B0000020024038B50446FFF73CFF0546144BBB
:1011C000DB6813F0010F0AD0B4F1FF3FF7D024B170
:1011D000FFF730FF401BA042F1D9032012E00C4B77
:1011E000DB6813F0200F02D0094B2022DA60084B95
:1011F000DB6813F0100F06D1054BDB6813F0040F0A
:1012000001D1002038BDFFF793FF0120FAE700BFAE
:10121000002002402DE9F8431E46244B1B7E012B83
:1012200041D004460F469046204B01221A764CF2DC
:101230005030FFF7BFFF034678BB012C08D0022CCB
:1012400003D04FF004091C4607E04FF00209FAE70B
:101250004FF00109F7E70134E4B24C451DD22101FA
:10126000C1F12002A1F1200328FA01F106FA02F2ED
:10127000114326FA03F3194389B207EB4400FFF741
:1012800049FF4CF25030FFF795FF094B1D6925F0DF
:1012900001051D6103460028DDD0044A00211176B6
:1012A0001846BDE8F8830223FAE700BFE0030020F8
:1012B00000200240F0B583B0002362E085685E0044
:1012C0000324B44025EA0405CC68B4402C43846070
:1012D000456825EA0C054C68C4F300149C402C4377
:1012E00044605FE0DD08083550F8254003F0070C46
:1012F0004FEA8C0C4FF00F0E0EFA0CFE24EA0E0E85
:101300000C6904FA0CF444EA0E0440F8254060E04D
:10131000032400E0002404FA0EF42C430CF1020C28
:101320004F4D45F82C404F4C2568D44325EA020622
:101330004F6817F4803F01D042EA0506494D2E6000
:101340006D6804EA05064F6817F4003F01D042EAD1
:101350000506444D6E60AD6804EA05064F6817F453
:10136000801F01D042EA05063E4DAE60ED682C407C
:101370004E6816F4001F01D042EA0504394AD460D1
:1013800001330A6832FA03F468D04FF0010C0CFA0A
:1013900003FC1CEA0202F3D04C6804F00304013C95
:1013A000012C8BD94C6804F00304032C0CD0C468C6
:1013B0005D004FF0030C0CFA05FC24EA0C0C8C6861
:1013C000AC4044EA0C04C4604C6804F00304022CF2
:1013D00088D004684FEA430E4FF0030C0CFA0EFC61
:1013E00024EA0C0C4C6804F0030404FA0EF444EAFA
:1013F0000C0404604C6814F4403FC1D01A4CA56939
:1014000045F00105A561A46904F001040194019C63
:101410004FEA930C0CF10205114C54F8255003F0DF
:10142000030E4FEA8E0E0F2404FA0EF425EA04058B
:10143000B0F1904F3FF46EAF0C4CA0420AD004F5CF
:101440008064A04208D004F58064A0423FF460AFFD
:10145000052460E701245EE702245CE703B0F0BDE9
:101460000000014000040140001002400004004858
:10147000002800F0FF8270B582B00446036813F0C4
:10148000010F3BD0B44B5B6803F00C03042B1ED060
:10149000B14B5B6803F00C03082B13D06368B3F502
:1014A000803F68D0002B40F0928003F1804303F529
:1014B00004331A6822F480321A601A6822F48022F7
:1014C0001A605DE0A44B5B6813F4803FE6D04FF4F4
:1014D000003393FAA3F3A04B19684FF4003393FA47
:1014E000A3F3B3FA83F303F01F03012202FA03F319
:1014F0000B4203D06368002B00F0BE82236813F018
:10150000020F00F0C480944B5B6813F00C0F00F0E6
:101510009C80914B5B6803F00C03082B00F08F80DC
:101520002369002B00F0F080012292FAA2F3B3FAB3
:1015300083F303F1845303F584139B001A60FFF7D0
:1015400079FD0546022393FAA3F3834B196802231E
:1015500093FAA3F3B3FA83F303F01F03012202FA11
:1015600003F30B4240F0C280FFF764FD401B0228EA
:10157000E8D9032089E2784A136843F48033136082
:10158000754AD36A23F00F03A1680B43D3626368E3
:10159000002B36D0FFF74EFD05464FF4003393FA8B
:1015A000A3F36D4B19684FF4003393FAA3F3B3FA26
:1015B00083F303F01F03012202FA03F30B429DD1D0
:1015C000FFF738FD401B6428E7D903205DE2B3F53F
:1015D000A02F09D0604B1A6822F480321A601A6872
:1015E00022F480221A60CBE703F18043A3F53C3359
:1015F0001A6842F480221A601A6842F480321A6033
:10160000BEE7FFF717FD05464FF4003393FAA3F347
:10161000514B19684FF4003393FAA3F3B3FA83F3F1
:1016200003F01F03012202FA03F30B423FF466AFFB
:10163000FFF700FD401B6428E6D9032025E2464B56
:101640005B6813F4803F7FF46BAF022393FAA3F33C
:10165000414B1968022393FAA3F3B3FA83F303F01F
:101660001F03012202FA03F30B4203D023699342C2
:1016700040F004823848036823F0F8036169F822D7
:1016800092FAA2F2B2FA82F291400B43036023680D
:1016900013F0080F00F08C80A369002B60D00121AB
:1016A00091FAA1F2B2FA82F22C4B13449B0019601A
:1016B000FFF7C0FC0546022393FAA3F293FAA3F2C4
:1016C00093FAA3F2244A516A93FAA3F3B3FA83F389
:1016D00003F01F03012202FA03F30B4268D1FFF764
:1016E000A9FC401B0228E6D90320CEE11A48036872
:1016F00023F0F8036169F82292FAA2F2B2FA82F2B8
:1017000091400B430360C2E7012393FAA3F3B3FABA
:1017100083F303F1845303F584139B0000221A60C2
:10172000FFF788FC0546022393FAA3F30A4B1968D6
:10173000022393FAA3F3B3FA83F303F01F03012206
:1017400002FA03F30B42A2D0FFF774FC401B0228FD
:10175000E9D9032099E100BF0010024020819010D8
:10176000012292FAA2F2B2FA82F2B74B13449B0022
:1017700000221A60FFF75EFC0546022393FAA3F2EB
:1017800093FAA3F293FAA3F2B04A516A93FAA3F33D
:10179000B3FA83F303F01F03012202FA03F30B42AF
:1017A00006D0FFF747FC401B0228E6D903206CE176
:1017B000236813F0040F00F0A980A44BDB6913F039
:1017C000805F20D1A14BDA6942F08052DA61DB6997
:1017D00003F080530193019B01259D4B1B6813F47B
:1017E000807F12D0E368012B23D073BB03F18043C9
:1017F00003F504331A6A22F001021A621A6A22F00F
:1018000004021A621AE00025E7E7914A136843F4DC
:1018100080731360FFF70EFC06468D4B1B6813F4B4
:10182000807FDFD1FFF706FC801B6428F5D90320F9
:101830002BE1864A136A43F001031362E368002B2D
:101840003CD0FFF7F7FB06462EE0052B09D07F4B77
:101850001A6A22F001021A621A6A22F004021A625B
:10186000ECE77A4B1A6A42F004021A621A6A42F0F2
:1018700001021A62E2E7022393FAA3F3734B596A57
:10188000022393FAA3F3B3FA83F303F01F030122B5
:1018900002FA03F3194238D1FFF7CCFB801B41F267
:1018A0008833984200F2EC80022393FAA3F293FA71
:1018B000A3F3002BDFD0654B196AE1E7FFF7BAFB12
:1018C000064618E0022393FAA3F3604B596A0223F9
:1018D00093FAA3F3B3FA83F303F01F03012202FA8E
:1018E00003F3194211D0FFF7A5FB801B41F28833A7
:1018F000984200F2C780022393FAA3F293FAA3F36B
:10190000002BDFD0514B196AE1E7B5BBE369002B2F
:1019100000F0BA804D4A526802F00C02082A00F02A
:101920009980022B2FD04FF0807393FAA3F3B3FA70
:1019300083F303F1845303F584139B0000221A60A0
:10194000FFF778FB04464FF0007393FAA3F33F4B85
:1019500019684FF0007393FAA3F3B3FA83F303F01B
:101960001F03012202FA03F319426BD0FFF762FB57
:10197000001B0228E7D9032087E0344AD36923F00B
:101980008053D361C2E74FF0807393FAA3F3B3FAA5
:1019900083F303F1845303F584139B0000221A6040
:1019A000FFF748FB05464FF0007393FAA3F3274B6C
:1019B00019684FF0007393FAA3F3B3FA83F303F0BB
:1019C0001F03012202FA03F3194206D0FFF732FB8C
:1019D000401B0228E7D9032057E01C494B6823F439
:1019E0007413626A206A024313434B604FF08073A2
:1019F00093FAA3F3B3FA83F303F1845303F5841347
:101A00009B0001221A60FFF715FB04464FF000739C
:101A100093FAA3F30D4B19684FF0007393FAA3F3F5
:101A2000B3FA83F303F01F03012202FA03F319420E
:101A300006D1FFF7FFFA001B0228E7D9032024E0B4
:101A4000002022E0002020E02081901000100240C1
:101A500000700040012B1AD0104B5B6803F48031FA
:101A6000226A914215D103F47013626A934212D133
:101A700000200AE001207047012006E0012004E078
:101A8000032002E0032000E0002002B070BD01202E
:101A9000FBE70120F9E70120F7E700BF0010024053
:101AA000164B5B6803F00C02082A01D014487047FB
:101AB00003F470114FF4701292FAA2F2B2FA82F2A9
:101AC00021FA02F20F49885C0C4AD26A02F00F0236
:101AD0000F2191FAA1F1B1FA81F1CA400A498A5C59
:101AE00013F4803F05D0064BB3FBF2F303FB00F089
:101AF0007047064B03FB00F0704700BF0010024028
:101B000000127A00205600081056000800093D0017
:101B1000002800F0BE8070B50D460446614B1B687E
:101B200003F007038B420BD25E4A136823F00703CE
:101B30000B431360136803F007038B4240F0AB8044
:101B4000236813F0020F06D0574A536823F0F003BE
:101B5000A1680B435360236813F0010F5AD06368E8
:101B6000012B2DD0022B40D0022292FAA2F24E4A33
:101B70001068022292FAA2F2B2FA82F202F01F0276
:101B8000012101FA02F2104200F0878046494A68BA
:101B900022F0030213434B60FFF74CFA0646424B18
:101BA0005B6803F00C036268B3EB820F32D0FFF77F
:101BB00041FA801B41F288339842F0D9032067E054
:101BC0004FF4003292FAA2F2374A10684FF4003212
:101BD00092FAA2F2B2FA82F202F01F02012101FA95
:101BE00002F20242D2D1012052E04FF0007292FA8A
:101BF000A2F22D4A10684FF0007292FAA2F2B2FAE5
:101C000082F202F01F02012101FA02F21042BDD15C
:101C100001203DE0234B1B6803F00703AB420AD9C8
:101C2000204A136823F007032B431360136803F063
:101C30000703AB4233D1236813F0040F06D01A4ACE
:101C4000536823F4E063E1680B435360236813F0A7
:101C5000080F07D0144A536823F46053216943EAFC
:101C6000C1035360FFF71CFF0F4B5B6803F0F003E9
:101C7000F02292FAA2F2B2FA82F2D3400B4AD35C7B
:101C8000D8400B4B18600B4B1868FFF78FF90020FA
:101C900070BD012070470120FAE70120F8E701201C
:101CA000F6E700BF0020024000100240FC5500088B
:101CB0001000002018000020014B1868704700BF7A
:101CC0001000002008B5FFF7F7FF074B5B6803F42F
:101CD000E0634FF4E06292FAA2F2B2FA82F2D340E9
:101CE000024AD35CD84008BD00100240F4550008F9
:101CF00008B5FFF7E1FF074B5B6803F460534FF44F
:101D0000605292FAA2F2B2FA82F2D340024AD35C53
:101D1000D84008BD00100240F455000810B5044634
:101D200083680269134342691343C269134301681C
:101D300008684E4A02401A430A602268536823F436
:101D40004053E1680B435360A269236A1A43216838
:101D50008B6823F4306313438B602368444A9342B7
:101D600014D0444A934227D002F5806293421FD098
:101D70001023E069B0F5004F20D0082B70D8DFE8C1
:101D800003F04A60486F636F6F6F66003A4B1B6BDE
:101D900003F00303032B09D8DFE803F00204060C69
:101DA0000023E6E70423E4E70823E2E71023E0E763
:101DB0000023DEE70223DCE70023DAE7082B49D81B
:101DC000DFE803F0051F2548224848480900FFF7CF
:101DD00079FF002840D06268530803EB4003B3FB4F
:101DE000F2F39BB2A3F110014FF6EF72914235D896
:101DF00023F00F02C3F3420313432268D360002091
:101E00001BE0FFF775FFE4E7FFF74AFEE1E71B4839
:101E1000E1E71A4802E0FFF755FF18B3636800EBEB
:101E20005300B0FBF3F080B2A0F110024FF6EF7355
:101E30009A4219D82368D860002000236366A366FD
:101E400010BDFFF755FFE8E7FFF72AFEE5E74FF47F
:101E50000040E3E70120F0E70020EEE70120ECE797
:101E60000120EAE70020E8E70120E6E7F369FFEF59
:101E700000380140004400400010024000127A0087
:101E8000436A13F0010F06D00268536823F400334D
:101E9000816A0B435360436A13F0020F06D0026855
:101EA000536823F48033C16A0B435360436A13F0D1
:101EB000040F06D00268536823F48023016B0B43A0
:101EC0005360436A13F0080F06D00268536823F486
:101ED0000043416B0B435360436A13F0100F06D06D
:101EE0000268936823F48053816B0B439360436AC9
:101EF00013F0200F06D00268936823F40053C16BDF
:101F00000B439360436A13F0400F0AD00268536892
:101F100023F48013016C0B435360036CB3F5801FF3
:101F20000BD0436A13F0800F06D00268536823F485
:101F30000023816C0B43536070470268536823F49D
:101F4000C003416C0B435360EBE72DE9F8430546B2
:101F50000F4616469946DDF820802B68DC6937EA83
:101F600004040CBF01240024B44253D1B8F1FF3F54
:101F7000F3D0FFF75FF8A0EB090040452DD8B8F18A
:101F8000000F2AD02B681A6812F0040FE5D0DA6926
:101F900012F4006FE1D04FF400621A622A6852E82E
:101FA000003F23F4D07342E800310029F6D12A68BB
:101FB00002F1080353E8003F23F00103083242E82E
:101FC00000310029F3D12023AB67EB67C5F88030DF
:101FD000002385F8743003201DE02A6852E8003F92
:101FE00023F4D07342E800310029F6D12A6802F1C7
:101FF000080353E8003F23F00103083242E80031B0
:102000000029F3D12023AB67EB67002385F87430F8
:10201000032000E00020BDE8F8832DE9F04182B004
:102020001E46836F202B56D104460D46904600294C
:1020300055D0002A55D090F87430012B53D001238D
:1020400080F874300023C0F8803021238367FEF7C6
:10205000F1FF0746A4F85080A4F85280A368B3F5B6
:10206000805F05D04FF00008002384F8743014E03E
:10207000236913B14FF00008F6E7A8460025F3E7FF
:1020800038F8023B2268C3F308031385B4F85220E2
:1020900092B2013A92B2A4F85220B4F852309BB2F4
:1020A00073B100963B46002280212046FFF74DFF8A
:1020B000D8B9002DE4D015F8012B23681A85E5E77F
:1020C00000963B46002240212046FFF73EFF70B9B4
:1020D0002023A36700E0022002B0BDE8F0810120C8
:1020E000FAE70120F8E70220F6E70320F4E70320EF
:1020F000F2E72DE9F04383B01E46C36F202B7ED15B
:1021000004460D46904600297DD0002A7DD090F8E7
:102110007430012B7BD0012380F874300023C0F889
:1021200080302222C2670366FEF784FF0746A4F8C8
:102130005880A4F85A80A368B3F5805F06D0A3B98D
:10214000226972B9FF22A4F85C2014E0226922B946
:1021500040F2FF12A4F85C200DE0FF22A4F85C20FE
:1021600009E07F22A4F85C2005E0B3F1805F0DD088
:102170000022A4F85C20B4F85C80B3F5805F0FD037
:102180004FF00009002384F874301EE022691AB968
:102190007F22A4F85C20EEE73F22A4F85C20EAE767
:1021A000236913B14FF00009ECE7A9460025E9E7E0
:1021B00023689B8C08EA030329F8023BB4F85A20F1
:1021C00092B2013A92B2A4F85A20B4F85A309BB2B3
:1021D0008BB100963B46002220212046FFF7B5FE3A
:1021E000B8B9002DE4D023689A8C5FFA88F31340C5
:1021F00005F8013BE2E72023E367002000E002202E
:1022000003B0BDE8F0830120FAE70120F8E70220DF
:10221000F6E70320F4E730B583B004460023C0F8A6
:102220008030FEF707FF05462268126812F0080F9B
:102230000DD123681B6813F0040F16D12023A36768
:10224000E3670020206684F8740003B030BD6FF0AF
:102250007E430093034600224FF400112046FFF70F
:1022600074FE0028E5D00320EFE76FF07E43009373
:102270002B4600224FF480012046FFF766FE00281F
:10228000DCD00320E1E768B310B50446836F03B3E5
:102290002423A3672268136823F0010313602046F8
:1022A000FFF73CFD012813D0636ABBB9226853686D
:1022B00023F4904353602268936823F02A039360C9
:1022C0002268136843F0010313602046FFF7A3FF61
:1022D00010BD80F87430FEF7DBFDD9E72046FFF72C
:1022E000CFFDE3E701207047DFF834D00D480E49F9
:1022F0000E4A002302E0D458C4500433C4188C4260
:10230000F9D30B4A0B4C002301E013600432A242C4
:10231000FBD3FEF7FDFD00F013F8FEF719FDFEE715
:102320000030002000000020EC0100203C5A000892
:10233000F001002014040020FEE7002100F08CBE14
:1023400070B50D4D0D4C641BA4100026A64209D19A
:102350000B4D0C4C03F0FAF8641BA4100026A642A7
:1023600005D170BD55F8043B98470136EEE755F8A6
:10237000043B98470136F2E7345A0008345A000803
:10238000345A0008385A00080A44914200F1FF33D9
:1023900000D1704710B511F8014B03F8014F91427D
:1023A000F9D110BD02440346934200D1704703F8AF
:1023B000011BF9E70CB430B5174B0C1E1D689DB01E
:1023C00008DA8B232B604FF0FF301DB0BDE83040A2
:1023D00002B070474FF40273ADF8143014BF04F12B
:1023E000FF332346049307934FF6FF730290069042
:1023F000ADF81630209A21AB02A92846019301F0CE
:102400005BFF431CBCBF8B232B60002CDDD0029BE9
:1024100000221A70D9E700BF1C00002010B56AB175
:102420000139841810F8012B11F8013F9A4203D1A9
:10243000A04201D0002AF5D1D01A10BD1046FCE709
:1024400070B504460D4645EC104B164601F0EEFC07
:1024500051EC100B7EB1C5F30A53C3F16B03002B93
:1024600009DD1B0503F17F55002405F540152246C3
:102470002B46FEF799F870BD2DE9F04F2DED028B3C
:102480009BB004461392002216920D464FF00008AE
:102490004FF000090A46159211782B294CD03AD8F2
:1024A0000D2934D8082934D800293DD000220A92B9
:1024B000159E3278302A40F0B480727802F0DF0244
:1024C000582A70D102930A9B019316AB00938E4A4F
:1024D00017AB15A9204600F039FE10F00F0705468E
:1024E00005D0062F2AD10136002315960A93139B97
:1024F000002B40F07F850A9BDBB1424609F1004387
:1025000043EC102B1BB0BDEC028BBDE8F08F2029F3
:10251000CCD10132BFE72D29C8D101210A91511C2C
:1025200015915278002AC3D1139B1595002B40F0CA
:102530005F8542464B46E3E70021EFE7169A3AB142
:10254000352118A801F06FFD1699204601F042F9D7
:10255000013F179A042F06D8DFE807F014031D2067
:102560001400DDE91889E90548BF49F0004929F060
:1025700000431B0D1B05002BB9D100F079FD222370
:102580000360B4E7DDE9188302F2334223F48013D9
:1025900043EA0259E7E7DFF87891E4E76FF0004992
:1025A0004FF0FF38DFE7159B5A1C15925B78302BF4
:1025B000F9D0002B9BD001234FF0000A0493159B08
:1025C0000B93CDF824A0D3460A2215980678A6F1DD
:1025D0003003D9B2092926D94C490122FFF71EFF41
:1025E000002830D00020324605905E460346652A1A
:1025F00001D0452A13D11EB9049A024394D0002673
:10260000159D6A1C15926A782B2A74D02D2A78D0D1
:102610004FF0000CA2F1300109297FD91595002750
:102620009EE00023C8E7BBF1080FD8BF099900F16D
:102630000100DABF02FB0133099302FB0A3A0BF1F6
:10264000010B1590C1E7159B5A1C15925A78BBF1E6
:10265000000F37D005905E46A2F13003092B12D946
:102660000123C4E7159B5A1C15925A780130302A71
:10267000F8D0A2F13103082B00F2C184159B05901C
:1026800000200B930646303A00F1010314D005995F
:1026900019440591334600EB060C0A21634513D11A
:1026A0003318082B06F1010606441ADC09990A239F
:1026B00003FB012309930023159A511C15915278AD
:1026C0001846C9E75846D2E7082B03F1010303DC9B
:1026D000099F4F430997E1E7102BD8BF01FB0AFA86
:1026E000DCE7102EDCBF0A2303FB0A2AE3E7002302
:1026F0000593012380E74FF0000CAA1C1592AA78DD
:1027000088E74FF0010CF8E74456000834560008FB
:102710000000F07F159A511C15915278302AF9D09B
:10272000A2F1310108293FF67AAF303A0892159AA2
:102730000C92159A571C15975278A2F1300EBEF1E3
:10274000090F38D90C997F1A082F44F61F6703DC4C
:1027500008998F42A8BF0F46BCF1000F00D07F42FE
:10276000002E4FD1049901437FF4C1AE002B7FF4BA
:10277000DBAE692A29D026DC492A26D04E2A7FF4EE
:10278000D3AE9B4915A800F021FF00283FF4CCAE42
:10279000159B1B78282B2FD1964918AA15A800F055
:1027A00029FF052828D1199BDDF8608043F0FF49F7
:1027B00049F4E0099BE6089F0A2101FB0721A1F1EA
:1027C00030020892B5E76E2AD9E78B4915A800F0C8
:1027D000FDFE00283FF4A8AE159B8849013B15A8D3
:1027E000159300F0F3FE10B9159B01331593DFF834
:1027F0001C924FF000087AE6814801F0FDFF59EC89
:10280000108B74E6059B0998FB1ABBF1000F08BFFB
:10281000B346102E08933546A8BF1025FDF74AFE93
:10282000092E8046894613DD764B03EBC50353E939
:102830001223FDF7B9FE804650468946FDF73AFE61
:1028400002460B4640464946FDF7F8FC804689465D
:102850000F2E38DC089B002B3FF449AE24DD162BED
:102860000BDC684901EBC301D1E9000142464B464C
:10287000FDF79AFE8046894639E6089AC6F1250397
:10288000934220DB5F4CC6F10F0604EBC6014246C3
:102890004B46D1E90001FDF787FE089B9E1B04EB28
:1028A000C604D4E90023E3E7089B16330BDB059B42
:1028B000DF1B544B03EBC707D7E9002340464946CB
:1028C000FDF79CFFD6E7089B751B1D44002D70DDAE
:1028D00015F00F030AD04B4901EBC30142464B46AA
:1028E000D1E90001FDF760FE8046894635F00F050D
:1028F0004DD0B5F59A7F22DD0025AB4609950595AB
:102900002223DFF8089123604FF00008099B002B79
:102910003FF4EDAD1699204600F05CFF0599204686
:1029200000F058FF5946204600F054FF0999204610
:1029300000F050FF2946204600F04CFFD7E5324B0F
:10294000049300232D11404649469A46012D21DC6F
:102950000BB1804689462C49A9F1547901EBCA0193
:1029600042464B46D1E90001FDF71EFE274B0A46C1
:102970000B4027498B428046BED8A1F580118B427F
:1029800086BFDFF890904FF0FF3802F154790023B2
:1029900004937BE0EA0705D5049BD3E90023FDF708
:1029A00003FE0123049A08320AF1010A6D10049211
:1029B000CCE7ECD06D4215F00F020AD0114B03EBBF
:1029C000C20340464946D3E90023FDF717FF80467E
:1029D00089462D11DBD01F2D1EDD0025AB46099544
:1029E000059522234FF000084FF0000923608DE782
:1029F0003F56000858560008365600083956000859
:102A0000D258000890570008685700080000F07F6F
:102A10000000A07CFFFFEF7F15F0100318BF6A23B2
:102A2000DFF8A0A30493404649460023EA0704D5F3
:102A3000DAE90023FDF7B8FD01236D100AF1080A59
:102A4000F4D10BB180468946049BBBB1C9F30A524D
:102A5000C2F16B03002B494610DD1F2B40F31E8192
:102A6000342BDEBF4FF0FF33C2F14B0293404FF0E7
:102A70000008CCBF4FF05C7903EA01090022002373
:102A800040464946FDF7F8FF0028A6D1099B009370
:102A90000B9933465A46204600F004FF099000285F
:102AA0003FF42AAF089A059B002AA3EB0703A8BFAF
:102AB00000230C93002522EAE2731293AB46099B94
:102AC0002046596800F046FE059000283FF418AFF4
:102AD000099B1A69023203F10C0192000C30FFF7D6
:102AE00053FC49EC108B18AA17A9204601F00EFAE6
:102AF00049EC188B169000283FF402AF01212046C4
:102B000000F068FF834600283FF4FAAE179E189A3B
:102B1000002EABBF0C9B129B129FDDF830A0ACBF08
:102B200006EB030A9F1B049BF61A1644A04B013EBA
:102B30009E42C2F1360280F2C4809B1B1F2BA2EB87
:102B400003024FF0010100F3B08001FA03F30E938A
:102B500000230D930AEB0206049BB24517441F4461
:102B60005346A8BF3346BB42A8BF3B46002BC2BF5B
:102B7000F61AFF1AAAEB030A0C9B002B17DD594625
:102B80001A46204600F0E6FF834600283FF4B8AE20
:102B90000146169A204600F033FF0B9000283FF4C0
:102BA000AFAE1699204600F015FE0B9B1693002E33
:102BB00000F38C80089B002B08DD129A05992046B3
:102BC00000F0C8FF059000283FF49AAE002F08DD02
:102BD00005993A46204601F017F8059000283FF481
:102BE0008FAEBAF1000F08DD59465246204601F07B
:102BF0000BF8834600283FF483AE059A16992046C9
:102C000001F08AF8054600283FF47AAEC3680B93BA
:102C10000023C360594601F063F8002860DA0B9B7B
:102C200053EA080340F08480C9F31303002B7FD1DB
:102C300029F000431B0D1B05B3F1D66F78D96B69E2
:102C400013B92B69012B73DD29460122204600F0C0
:102C5000DBFF5946054601F043F8002868DD04997A
:102C6000544A4B46002900F0848002EA0901B1F180
:102C7000D66F7EDCB1F15C7F7FF7B3AE4E4B404642
:102C800049460022FDF790FC4A4B0B40804689469E
:102C9000002B7FF43FAE222323603BE64FF0FF3250
:102CA00002FA03F303EA0808E8E6C6F17F4606F5F0
:102CB0007F0606F57B46E23601FA06F3CDE90D31D3
:102CC00048E700210123CDE90D1343E71699324669
:102CD000204600F099FF169000287FF46BAF0FE6B6
:102CE000CA4671D10B9AC9F3130352B3334A9342C4
:102CF0002AD1049B4146FBB12E4B09EA0303B3F1F1
:102D0000D46F4FF0FF321AD81B0DC3F16B0302FAD8
:102D100003F3994218D12A4B9A4502D101313FF46D
:102D2000EFAD244B0AEA030303F580194FF00008C6
:102D3000049B002BA2D1EDE54FF0FF33E9E71346EA
:102D4000E7E753EA08038AD00D9BE3B113EA0A0FC1
:102D5000EED00B9B049A40464946C3B1FFF770FB87
:102D600002460B4651EC180BFDF768FA804689467F
:102D7000DEE71340A3F580136FEA13596FEA095990
:102D80004FF0FF38D4E70E9B13EA080FE0E7FFF798
:102D900057FB02460B4651EC180BFDF74DFA00228B
:102DA000002380468946FDF767FE0028C0D018E65C
:102DB00002FCFFFF0000F07F00005039FFFF0F0012
:102DC000FFFFEF7F705600085946284601F0F8F8DB
:102DD00057EC106B10EE100A00224FF0804339467A
:102DE000FDF75EFE002871D00B9B002B7CD1B8F163
:102DF000000F5AD1C9F31303002B5DD1904B002271
:102E000030463946FDF742FE00285CD1304639464F
:102E10008C4B0022FDF7C8FB06460F4607F1004326
:102E200006960793DDE90623CDE90E23864B0AEAD1
:102E300003030D930D9A854B9A4240F09080AAF1BE
:102E4000547949EC108B00F0F1FFDDE9062351ECD9
:102E5000100BFDF7A9FB42464B46FDF7EFF90B4679
:102E600079497B4A19409142804644D918EE902A0C
:102E7000784B9A4204D118EE103A01333FF440AD3A
:102E8000DFF8D0914FF0FF381699204600F0A2FCF1
:102E90000599204600F09EFC5946204600F09AFC19
:102EA0002946204600F096FC09E6B8F1010F03D14F
:102EB000B9F1000F3FF495AD9FED557B604F8DED5F
:102EC000067B0026AEE75F4F0026A7E75D4B304646
:102ED00039460022FDF768FB0B9B06460F46002B88
:102EE0009CD0CDE906679DE79FED4B7B8DED067B82
:102EF00057EC176B96E703F15479049BCA46002BF5
:102F0000C2D129F000430D9A1B0D1B059A42BBD17B
:102F10003046394602F0E4FAFDF718FB02460B464C
:102F200030463946FDF788F90B9AC9F3130343EA93
:102F30000803134306460F4654D039A3D3E90023B0
:102F4000FDF7A4FD00287FF4E5AC37A3D3E9002307
:102F500030463946FDF7B8FD002895D0DAE4049BE9
:102F600033B30D9BB3F1D46F22D831A3D3E900233F
:102F700030463946FDF794FDA0B139463046FDF79D
:102F8000ADFD012838BF0120FDF794FA0B9B0646E2
:102F90000F4623BB01F1004310901193DDE910238C
:102FA000CDE90E230F9B0D9A03F1D6639B1A0F9365
:102FB000DDE90E01B0EE480AF0EE680ACDE90E0137
:102FC00000F034FFDDE90E0153EC102BFDF7ECFAB5
:102FD00053EC182BFDF732F9804689468DE7CDE991
:102FE0001067DBE714A3D3E90023FDF74FFDB3E738
:102FF00000230A93139A159B1360FFF77CBA652A86
:103000003FF475AB452A3FF472AB0123FFF7AABB2F
:10301000000000000000F0BF000000000000F03FD2
:103020009535A094FFFFDF3F35E5AF350000E03F69
:103030000000C0FFFFFFDF419535A094FFFFCF3FA9
:103040000000F03F0000E03F0000F07F0000E07F64
:10305000FFFF9F7CFFFFEF7F0A4601460248034BBC
:103060000068FFF709BA00BF1C00002080000020A4
:10307000014B1868704700BF1C0000200369B3EBC8
:10308000611F2DE9F0434FEA611200F1140445DDA0
:1030900011F01F0104EB830604EB82050CD100F153
:1030A00010072946B14234D39B1A9B00EA1E964270
:1030B00038BF0023234415E054F82270C1F12008E2
:1030C000CF4005F1040EA1467645F44615D89A1A6C
:1030D0009200043A0135AE4238BF0022A318A7502F
:1030E00007B104331A1BA3424FEAA20208BF002310
:1030F000026108BF4361BDE8F083DCF800C00CFA50
:1031000008FC4CEA070749F8047B5EF8047BCF40D3
:10311000DAE751F804CB47F804CFC3E72346E1E7E9
:10312000A0F13003092B02D82038C0B27047A0F1BB
:103130006103052B01D84738F7E7A0F14103052BC0
:1031400001D82738F1E70020704700002DE9F04F43
:1031500017460A6885B002F1020BC2F1FF2202F5A0
:103160007F0281468A460293FE3202EB0B03D84669
:103170001BF8010B01933028F7D0FFF7D1FF04466D
:10318000002838D1A74901224046FFF747F90646F3
:10319000002869D198F801005D46FFF7C1FF0028BB
:1031A00064D05A4610783028904602F10102F9D0D6
:1031B000FFF7B6FF0123B0FA80F464095E4601937D
:1031C0004246154601322878FFF7AAFF0028F8D1B9
:1031D000944901222846FFF721F978B946B96E1CB7
:1031E0003246154601322878FFF79AFF0028F8D1B9
:1031F000731B9E0004E000242646E1E7002EF7D171
:103200002B7803F0DF03502B3DD16B782B2B2FD085
:103210002D2B31D0691C4FF0000B0878FFF780FF91
:10322000421ED2B2182A2ED8A0F1100211F8010FB6
:10323000FFF776FF00F1FF3C5FFA8CFCBCF1180F42
:103240001DD9BBF1000F00D052421644CAF800103D
:10325000DCB1019B002B14BF4FF000084FF00608B3
:10326000404605B0BDE8F08F454626460124C7E735
:103270004FF0000BA91CD0E74FF0010BFAE70A232F
:1032800003FB0200D0E72946E0E7A5EB0803013B7A
:103290002146072B0ADC484600F05CFA044640B998
:1032A000614B0246E421614801F0BCFA01315B1038
:1032B000EFE700F1140A00235A49CDF804A09B4619
:1032C000A84542D3019840F804BBA0EB0A00801047
:1032D00020614FEA4018584600F02EFB3D68A8EBED
:1032E0000000A84259DDA0EB05084146204600F049
:1032F000BDFE8346B8B108F1FF33591103F01F0238
:103300005AF821104FF0010B0BFA02F20A420AD0D0
:103310005B4506DDA8F10201204600F0A7FE00286B
:1033200038D14FF0020B41462046FFF7A7FE464436
:10333000BB68B34241DA2146484600F04BFA0E9A88
:10334000002313604FF0A3088AE715F8012D2E2AF9
:1033500014D0202B06D1019B43F804BB4FF0000B87
:1033600001935B4628780393FFF7DAFE039B00F096
:103370000F0098404BEA000B0433A1E7A845E8D8BA
:10338000012228460393FFF749F82649039B0028AA
:10339000DFD195E74FF0030BC5E70BDAA5EB00088B
:1033A00021464246484600F02FFCA6EB080604469C
:1033B00000F1140A4FF0000BBAE77B68B34273DDEB
:1033C0009E1BB54234DCFB68022B23D0032B25D097
:1033D000012B15D1B54213D1012D0BD1029A7B6877
:1033E000136001232361CAF800300E9B4FF062087E
:1033F0001C6035E7691E204600F038FE0028EDD13C
:103400002146484600F0E6F90E9A002313604FF07B
:10341000500825E70F9B002BF2D1DFE70F9B002B15
:10342000DCD1EDE73456000898560008A95600088C
:1034300006F1FF38BBF1000F33D1B8F1000F04D013
:103440004146204600F012FE83464FEA68120123EF
:103450005AF8222008F01F0803FA08F313423146F5
:10346000204618BF4BF0020BAD1BFFF707FE7E682E
:103470004FF00208BBF1000F4AD0FB68022B16D0B8
:10348000032B18D0012B09D11BF0020F06D0DAF85C
:1034900000304BEA030B1BF0010F0FD148F010086E
:1034A00036E04FF0010BD0E74FF00108E2E70F9B49
:1034B000C3F101030F930F9B002BEFD0D4F810B092
:1034C00004F114024FEA8B03019302EB8B000023FB
:1034D000944652F8041BB1F1FF3F1ED00131CCF8E5
:1034E0000010B8F1020F04F114023DD13B68013B1A
:1034F000AB420BD16911012305F01F0503FA05F555
:1035000052F821301D4218BF4FF0010848F0200842
:103510000E9B1C60029B1E60A2E6904242F8043C97
:10352000D6D8A268934517DB61684846013100F0A0
:1035300011F9824618B91B4B02468421B3E6226971
:10354000023204F10C0192000C30FEF71DFF2146FF
:10355000484600F03FF954462269511C04EB8202B0
:10356000216101215161BCE7216959450BDD012130
:103570002046FFF783FDBB680136B342FFF6DBAEA2
:103580004FF00108C2E715F01F05F9D0019B1A445E
:10359000C5F1200552F8040C00F0CEF9A842E6DB94
:1035A000EEE700BF98560008C2F10802920070B51D
:1035B000C2F120064368046803FA06F52C43D340A1
:1035C000046040F8043F8842F4D370BD30B503680E
:1035D000013311F8014B14B90360012030BD13F819
:1035E000012BA2F14105192D98BF2032A242F0D043
:1035F0000020F3E72DE9F04F0B6801685E1102EB44
:10360000860613F01F0387B018BF04360025371F46
:1036100082469046019346F8045CB9463C460295C2
:10362000AB464A784B1C039342B310460591049273
:10363000FFF776FD00284FD1049A0599202A18D863
:10364000029B9B4513DD4C4506D2072D04DC2A4620
:1036500049462046FFF7A8FF444550D90023A4F16E
:10366000040944F8043CCDF808B04C461D460399C3
:10367000D7E7292A55D10231CAF80010BBF1000F53
:103680004FD04C4506D2072D04DC2A464946204639
:10369000FFF78AFF444534D9A8F10402234653F8C2
:1036A000041B42F8041F9F42F9D23B1B23F0030383
:1036B0000433033E0134A64238BF042343440022AE
:1036C00043F8042B9F42FBD23B681BB9474526D1E8
:1036D00001233B60052025E00135082D0BF1010B8E
:1036E00006DD4445C3D9002344F8043C0125043CCD
:1036F000226800F00F0040EA02102060B7E70825BA
:10370000B5E7019B002BDFD0C3F120034FF0FF3260
:10371000DA4056F8043C134046F8043CD4E7043F32
:10372000D2E7042007B0BDE8F08F704770477047BC
:1037300082B001B901A942B14BB113780B60127884
:10374000101E18BF012002B070471046FBE76FF053
:103750000100F8E770B5466A04460D4676B91020B8
:1037600001F090F80246606220B9184B18486621B3
:1037700001F058F8C0E901660660C660666AF36841
:1037800083B1636ADB6853F82500B8B9012101FAF7
:1037900005F6721D9200204600F089FC60B1C0E978
:1037A00001560EE021220421204600F080FC636ACD
:1037B000F060DB68002BE4D1002070BD026843F8A4
:1037C00025200023C0E90333F7E700BF01570008B5
:1037D0001857000870B5466A05460C4676B91020A1
:1037E00001F050F80246686220B9094B09488A2165
:1037F00001F018F8C0E901660660C6603CB16B6A6A
:103800006268DB6853F82210216043F8224070BDE3
:1038100001570008185700082DE9F0410D690746C7
:103820000C461E4601F1140C0020DCF8003099B261
:1038300002FB01611E0C0B0C02FB063389B2013046
:1038400001EB034185424CF8041B4FEA1346ECDCC4
:103850000EB3A368AB4219DC616838460131FFF74B
:1038600079FF804628B902460C4B0D48B52100F07F
:10387000D9FF2269023204F10C0192000C30FEF7EC
:1038800083FD21463846FFF7A5FF444604EB850338
:1038900001355E6125612046BDE8F081985600083B
:1038A000185700082DE9F8430C4615461F46092213
:1038B0000833064693FBF2F3002101229A4209DB0A
:1038C0003046FFF747FF40B90246194B1948CE2151
:1038D00000F0A8FF52000131F0E7089B4361092D79
:1038E0004FF00103036116DD04F10909C8462C44B9
:1038F00018F8013B0146303B0A223046FFF78CFFA7
:10390000A045F5D1A5F108044C442D1B6319BB4219
:1039100004DBBDE8F8830A340925F6E714F8013B17
:103920000146303B0A223046FFF776FFEEE700BF44
:103930009856000818570008030C1B04D3B900045C
:10394000102310F07F4F04BF0002083310F0704FB7
:1039500004BF0001043310F0404F04BF8000023365
:10396000002805DB10F0804F03F1010308BF20237E
:10397000184670470023E4E7036813F007020CD0F1
:10398000D90722D49A0749BF5B089B08036001222C
:103990005CBF036002221046704799B209B91B0C44
:1039A0001022D9B209B908321B0A190704BF1B0932
:1039B0000432990704BF9B080232D90703D45B087D
:1039C00002F1010203D00360E5E70022E3E72022D1
:1039D000E1E7000010B50C460121FFF7BBFE0246EF
:1039E00028B9054B05484FF4A07100F01BFF0123D7
:1039F0004461036110BD00BF9856000818570008C5
:103A00002DE9F04F91460A69D9F810309A42B8BFB3
:103A10000B460C46BCBF4C4699462769D9F810A006
:103A2000A368616807EB0A06B34285B0B8BF0131ED
:103A3000FFF790FE30B90246444B454840F25D1115
:103A400000F0F0FE00F1140505EB86082B4600227D
:103A5000434521D304F1140303EB870709F1140351
:103A600003EB8A0202923A1B153A22F00302043257
:103A700004F115018F4238BF04220192029A039388
:103A80009A420CD8002E03DD58F8043D002B5BD081
:103A9000066105B0BDE8F08F43F8042BD8E7B3F812
:103AA00000A0BAF1000F24D004F1140EA9464FF083
:103AB000000C5EF8042BD9F800101FFA82FB89B2C3
:103AC0000AFB0B114FEA124BD9F8002061444FEA70
:103AD000124C0AFB0BC202EB114289B241EA0241CD
:103AE000774549F8041B4FEA124CE2D8019A45F891
:103AF00002C0039AB2F802900433B9F1000F21D04A
:103B0000296804F1140CAE464FF0000ABCF800B06E
:103B1000BEF8022009FB0B22524489B241EA02415D
:103B20004EF8041B5CF8041B4FEA114ABEF8001063
:103B300009FB0A1101EB124167454FEA114AE5D82A
:103B4000019AA950043599E7013E9BE79856000871
:103B5000185700082DE9F843154612F003020646EF
:103B60000F4607D0254C013A002354F82220FFF7D6
:103B700053FE0746AD103DD0746A7CB9102000F0AA
:103B800081FE0246706228B91D4B1E484FF4D77162
:103B900000F048FEC0E901440460C460D6F8248007
:103BA000D8F808404CB940F271213046FFF712FFB7
:103BB0000023C8F80800044603604FF00009EB0733
:103BC0000AD5394622463046FFF71AFF3946804665
:103BD0003046FFF7FFFD47466D100BD0206838B91F
:103BE000224621463046FFF70BFF2060C0F80090C8
:103BF0000446E4E73846BDE8F88300BF585800089B
:103C000001570008185700082DE9F0470C4649688D
:103C1000236903EB6218A368074691464FEA621ACC
:103C200008F10106B3420BDB3846FFF793FD05466A
:103C300048B90246284B294840F2D91100F0F2FD5C
:103C400001315B00EEE7002300F1140100F11002E6
:103C50001846534533DB20692AEAEA7A04F1140353
:103C600019F01F0901EB8A0103EB800C2BD0C9F17D
:103C7000200E8A460022186800FA09F010434AF81C
:103C8000040B53F8042B9C4522FA0EF2F3D8ACEB4C
:103C90000403153B23F00303043304F115008445AA
:103CA00038BF0423CA500AB108F10206013E384663
:103CB0002E612146FFF78EFD2846BDE8F08742F8C9
:103CC000040F0133C5E7043953F8042B41F8042FDE
:103CD0009C45F9D8EAE700BF985600081857000835
:103CE00030B502690C69121B0ED100F114031431B6
:103CF00003EB840001EB840150F8045D51F8044D9E
:103D0000A54203D005D30122104630BD8342F3D330
:103D1000FAE74FF0FF32F7E72DE9F84F0C46064679
:103D2000114620469046FFF7DBFF051E10D12946BD
:103D30003046FFF70FFD30B93A4B024640F23221D0
:103D4000394800F06FFD0123C0E90435BDE8F88F64
:103D5000A4BF4346A0463046D8F80410A6BF1C4670
:103D600000250125FFF7F6FC20B92E4B02464FF443
:103D70001071E5E7D8F810702669C56004F11409E0
:103D800008F1140500F1140E05EB870C09EB86060B
:103D900008F11002F246002159F8043B52F804BF22
:103DA00011FA8BF899B21B0CA8EB0108C3EB1B436B
:103DB00003EB28431FFA88F819144E4548EA0343D9
:103DC0004AF8043BE8D8331B153B23F003030433C4
:103DD0001534A64238BF04231D4473449E462E4624
:103DE00066450ED30CF10302521B22F00302033D81
:103DF000AC4538BF0022134453F8042D7AB1076153
:103E0000A4E756F8048B11FA88F2141404EB184452
:103E100092B242EA04424EF8042B2114E0E7013F3B
:103E2000EAE700BF985600081857000882B08DEDE9
:103E3000000B019A0F4B1340A3F15073002B08DCC9
:103E40005B42B3F1A07F4FEA235204DA4FF4002320
:103E50001341002208E0A2F114031E2BDABF4FF039
:103E60000042DA40012200231946104641EC100BB3
:103E700002B070470000F07F2DE9F041066900F1C3
:103E8000140808EB8606371F56F8042C1046FFF777
:103E900053FDC0F120030A280B601B4915DCC0F15B
:103EA0000B0C22FA0CF3B84543EA010534BF56F86F
:103EB000083C0023153002FA00F023FA0CF3034308
:103EC0001C4645EC104BBDE8F081B8453ABF56F8AA
:103ED000083CA6F1080700230B3812D0C0F12001DE
:103EE00023FA01F482402243474542F07F558CBFBC
:103EF00057F8042C00228340CA4045F44015134370
:103F0000DEE742EA0105DBE70000F03F2DE9F74379
:103F10000F46012159EC108B1646FFF71BFC044697
:103F200030B90246244B254840F20A3100F07AFCB1
:103F3000C9F30A55C9F313032DBB0193B8F100036C
:103F400026D068460093FFF717FDDDE90012E8B1BF
:103F5000C0F1200302FA03F30B43C24063610192F4
:103F6000019BA361002B14BF022201222261BDB17B
:103F7000A5F2334505443D60C0F135003060204670
:103F800003B0BDE8F08343F48013D6E76161E7E74F
:103F900001A8FFF7F1FC019B636120300122E5E7F6
:103FA00004EB8203A0F2324038601869FFF7C4FCCA
:103FB000C0EB4210E2E700BF98560008185700080F
:103FC0002DE9F74F884669468146FFF755FF01A95D
:103FD000404655EC104BFFF74FFFD9F81030D8F89A
:103FE0001020A3EB020CDDE900329B1A03EB4C130B
:103FF00051EC100B002BD6BF0A462A46C3EB033305
:104000008B462F46D4BF02EB035B02EB03572046DF
:1040100010EE102A5B463946FCF7F0FB41EC100B22
:1040200003B0BDE8F08F013970B549111469013151
:1040300002F1140300EB810103EB8404051FA3428A
:104040000CD3A31A113B23F003031132A24288BF01
:10405000002318440023884205D370BD53F8046B35
:1040600045F8046FEBE740F8043BF4E700F1140275
:1040700000694B11984210B511DB0ADD11F01F01E8
:1040800007D052F8234024FA01F000FA01F18C42E3
:104090000BD102EB8303934203D8002010BD0346EB
:1040A000F7E753F8041D0029F5D00120F6E737B5EE
:1040B000A1FB02244CB91146019200F02FF8019A9D
:1040C000054630B9284603B030BD0C2202600025F9
:1040D000F8E72146FEF766F9F4E7000070B50E4EEA
:1040E0000C463168054611B900F074FB306021467A
:1040F000284600F06FFB431C0AD0C41C24F00304C4
:10410000A04207D0211A284600F064FB013001D1FB
:104110004FF0FF34204670BD080400202DE9F04127
:10412000CD1C25F0030508350C2D38BF0C25002DBE
:10413000074601DBA94205D90C233B600026304627
:10414000BDE8F0812E4E00F0BFFB33681C4634BB47
:1041500029463846FFF7C2FF431C04464DD1346858
:104160002646002E40D123683146384604EB03082A
:1041700000F030FB80453AD123680335ED1A25F075
:10418000030508350C2D38BF0C2529463846FFF7A6
:10419000A5FF01302BD023682B4423600EE022685A
:1041A000521B1ED40B2A16D96119A342256018BFD1
:1041B0005960636808BF316062514B60384604F152
:1041C0000B0600F087FB26F00706231DF21AB6D077
:1041D0009B1BA350B3E76268A3420CBF32605A60D6
:1041E000ECE723466468B2E734467668B9E70C2307
:1041F0003B60384600F06EFBA1E72560DEE700BFBC
:10420000040400202DE9F0478E681F46BE420B686B
:1042100082460C4690462CD88A8912F4906F26D09C
:104220006569096905EB4505A3EB010905EBD57542
:104230007B1C4B446D109D4238BF1D46530527D54E
:104240002946FFF76BFF064660B321694A46FEF731
:104250009BF8A38923F4906343F08003A381266134
:1042600065614E44A5EB09052660A5603E46BE4249
:1042700000D93E4620683246414600F00BFBA36859
:104280009B1BA3602368334423600020BDE8F087B4
:104290002A4600F071FB06460028E0D1216950460D
:1042A00000F01EFB0C23CAF80030A38943F0400342
:1042B000A3814FF0FF30E9E72DE9F04F98468B8955
:1042C0001B069DB007460D4614460ED50B6963B913
:1042D0004021FFF723FF2860286120B90C233B60B1
:1042E0004FF0FF30D0E040236B610023099320237F
:1042F0008DF82930CDF80C803023DFF8A4818DF8BB
:104300002A304FF0010923469A4613F8012B0AB1CF
:10431000252AF9D1BAEB040B0BD05B46224629467D
:104320003846FFF76FFF013000F0A980099A5A4420
:1043300009929AF80030002B00F0A18000234FF082
:10434000FF32CDE905230AF1010A049307938DF8A2
:1043500053301A935446052214F8011B5048FBF7BA
:1043600017FF049AD8B9D00644BF20238DF85330E4
:10437000110744BF2B238DF853309AF800302A2BB5
:1043800015D0079A544600204FF00A0C214611F828
:10439000013B303B092B4DD9B0B1079214E0A0EBA3
:1043A000080309FA03F313430493A246D2E7039BDD
:1043B000191D1B680391002BBBBF5B4242F0020238
:1043C00007930793B8BF049223782E2B0CD1637800
:1043D0002A2B34D1039B1A1D1B680392002BB8BFF4
:1043E0004FF0FF3302340593DFF8C4A02178032295
:1043F0005046FBF7CDFE38B1049BA0EB0A004022EB
:10440000824013430134049314F8011B25488DF8AE
:1044100028100622FBF7BCFE002838D0224B1BBB1D
:10442000039B073323F0070308330393099B3344AB
:10443000099368E70CFB02320C460120A6E7002333
:104440000134059319464FF00A0C204610F8012B51
:10445000303A092A03D9002BC6D00591C4E70CFBDA
:10446000012104460123F0E703AB00932A460F4BDA
:1044700004A93846AFF30080421C0646D6D1AB896A
:104480005B063FF52DAF09981DB0BDE8F08F03AB7B
:1044900000932A46054B04A9384600F079F8EBE76B
:1044A000645800086E58000800000000054200082B
:1044B0006A5800082DE9F047164699468A680B6944
:1044C000DDF820809342B8BF1346336091F8432053
:1044D00007460C460AB1013333602368990642BF90
:1044E000336802333360256815F0060506D104F100
:1044F000190AE36832689B1AAB4226DC94F8432021
:10450000131E226818BF012392062BD404F1430224
:1045100049463846C04701301ED02368226903F05F
:104520000603042B02BFE5683368ED1AA3680CBFCD
:1045300025EAE57500259342C4BF9B1AED180026B5
:104540001A34B5421AD1002008E0012352464946E8
:104550003846C047013003D14FF0FF30BDE8F08747
:104560000135C6E7E1185A1C302081F84300224487
:1045700094F8451082F843100233C7E7012322461E
:1045800049463846C0470130E6D00136D9E7000039
:104590002DE9FF470F7E0C9D782F914680460C46F3
:1045A0009A4601F1430207D8622F0AD8002F00F083
:1045B000D480582F00F0C08004F1420584F8427086
:1045C0003AE0A7F16303152BF6D801A151F823F0C7
:1045D000294600083D460008B9450008B9450008CD
:1045E000B9450008B94500083D460008B94500082E
:1045F000B9450008B9450008B94500084147000819
:1046000069460008FB460008B9450008B94500089E
:1046100063470008B945000869460008B945000825
:10462000B9450008034700082B681A1D1B682A605B
:1046300004F1420584F8423001239FE020682B6892
:10464000070603F10401296001D51E6803E0460650
:10465000FBD5B3F90060002E03DA2D23764284F8EF
:1046600043305A480A2312E02B682068191D29603C
:10467000050601D51E6802E04106FBD51E88534899
:104680006F2F0CBF08230A23002184F843106568AC
:10469000A560002DA2BF216821F0040121600EB9A0
:1046A000002D4BD01546B6FBF3F103FB1167C75D38
:1046B00005F8017D3746BB420E46F4D9082B0BD1D5
:1046C0002368DE0708D5236961689942DEBF30237D
:1046D00005F8013C05F1FF35521B2261CDF800A021
:1046E0004B4603AA21464046FFF7E4FE01304AD17B
:1046F0004FF0FF3004B0BDE8F087236843F020039B
:1047000023603348782784F84570236829681F069A
:1047100051F8046B02D45F0648BFB6B2DF0748BF4A
:1047200043F02003296048BF23601EB9236823F0AB
:10473000200323601023A7E72448E4E71546BDE7DC
:104740002B6826686169181D286035061B6801D52D
:10475000196002E07006FBD519800023236115461D
:10476000BCE72B681A1D2A601D6862680021284674
:10477000FBF70EFD08B1401B6060636823610023F6
:1047800084F84330AAE723692A4649464046D04781
:104790000130ADD023689B0713D4E068039B984297
:1047A000B8BF1846A6E70123324649464046D047DF
:1047B00001309DD00135E36803995B1AAB42F2DC0E
:1047C000EBE7002504F11906F5E700BF755800086E
:1047D0008658000838B5064D0023044608462B606D
:1047E00000F066FE431C02D12B6803B1236038BD84
:1047F0000C040020000000009FED010B704700BF7B
:10480000000000000000F87F49B1FF2A85BF8A231D
:1048100003600A704FF0FF3098BF012070470846D0
:10482000704700001FB514461A46094B1B68054621
:10483000D8684CB1074B0091CDE9013406492B46AD
:1048400000F00EF800F0DEFA044B1C46F3E700BF60
:104850001C00002097580008A4580008D2580008EF
:104860000EB403B5014603AB054853F8042B0068AA
:10487000019300F0D9F802B05DF804EB03B0704783
:104880001C000020024B01461868FFF747BC00BF20
:104890001C000020884210B501EB020402D98442BA
:1048A000234607D8431EA14208D011F8012B03F874
:1048B000012FF8E7024401468A4200D110BD13F8E7
:1048C000014D02F8014DF7E70148FEF72FBF00BF89
:1048D000000400200148FEF72ABF00BF00040020AA
:1048E00037B5002944D051F8043C0190002BA1F1C8
:1048F0000404B8BFE418FFF7E7FF1E4A01981368E5
:1049000033B96360146003B0BDE83040FFF7E2BF25
:10491000A34208D9256861198B4201BF19685B68F9
:1049200049192160EDE71A465B680BB1A342FAD939
:1049300011685518A5420BD1246821445418A3428C
:104940001160E0D11C685B6853600C441460DAE7C6
:1049500002D90C230360D6E7256861198B4204BF96
:1049600019685B68636004BF491921605460CAE735
:1049700003B030BD040400202DE9F0418046144608
:104980000E4621B9BDE8F0411146FFF7C7BB2AB971
:10499000FFF7A6FF25462846BDE8F08100F058FC49
:1049A0008442074602D8B4EB500F12D82146404645
:1049B000FFF7B4FB05460028EDD0BC422246314645
:1049C00028BF3A46FDF7E0FC31464046FFF788FF36
:1049D000E1E73546DFE79368013B002B10B49360B5
:1049E00008DA9469A34201DB0A2903D15DF8044B7C
:1049F00000F048B91368581C1060197008465DF83B
:104A0000044B7047F8B506460F461446D518AC421D
:104A100001D1002007E014F8011B3A463046FFF7A9
:104A2000DAFF431CF3D1F8BD2DE9F04F0D469DB0E0
:104A300014469846064618B183690BB900F004FB8A
:104A4000884B9D421BD175686B6ED90705D4AB8925
:104A50009A0502D4A86DFEF769FEAB891B0701D544
:104A60002B69EBB92946304600F05EF9C0B16B6E98
:104A7000DC070ED54FF0FF301DB0BDE8F08F7A4B4C
:104A80009D4201D1B568DFE7784B9D4208BFF568CC
:104A9000DAE7AB899805EDD4A86DFEF748FEE9E7A3
:104AA0000023099320238DF82930CDF80C80302382
:104AB000DFF8BC818DF82A304FF0010923469A4671
:104AC00013F8012B0AB1252AF9D1BAEB040B0BD04C
:104AD0005B46224629463046FFF794FF013000F03E
:104AE000A980099A5A4409929AF80030002B00F0E4
:104AF000A18000234FF0FF32CDE905230AF1010A1E
:104B0000049307938DF853301A935446052214F8F2
:104B1000011B5748FBF73CFB049AD8B9D10644BFA8
:104B200020238DF85330130744BF2B238DF85330C7
:104B30009AF800302A2B15D0079A544600204FF0DF
:104B40000A0C214611F8013B303B092B4DD9B0B17D
:104B5000079214E0A0EB080309FA03F3134304934C
:104B6000A246D2E7039B191D1B680391002BBBBF14
:104B70005B4242F0020207930793B8BF0492237886
:104B80002E2B0CD163782A2B34D1039B1A1D1B6862
:104B90000392002BB8BF4FF0FF3302340593DFF8C8
:104BA000E0A0217803225046FBF7F2FA38B1049BCB
:104BB000A0EB0A004022824013430134049314F80E
:104BC000011B2C488DF828100622FBF7E1FA00287B
:104BD0003FD0294B1BBB039B073323F0070308334C
:104BE0000393099B3B44099368E70CFB02320C4694
:104BF0000120A6E700230134059319464FF00A0C63
:104C0000204610F8012B303A092A03D9002BC6D0D0
:104C10000591C4E70CFB012104460123F0E703AB37
:104C200000932A46154B04A93046AFF3008007468F
:104C3000781CD6D16B6ED90705D4AB899A0502D4FE
:104C4000A86DFEF774FDAB895B063FF513AF0998BD
:104C500012E703AB00932A46084B04A93046FFF73E
:104C600097FCE4E7F4590008145A0008D4590008E6
:104C7000645800086E58000800000000054A00084B
:104C80006A580008F8B50E461446054618B18369FF
:104C90000BB900F0D9F9214B9C422BD16C68A36968
:104CA000A360A3891A072FD523696BB323692068F2
:104CB000C01A6369F6B28342374604DC21462846AF
:104CC00000F02EF930BBA368013BA36023685A1C97
:104CD00022601E7063690130834204D0A389DB0720
:104CE00006D50A2E04D12146284600F019F988B9C4
:104CF0003846F8BD0A4B9C4201D1AC68CFE7094B5E
:104D00009C4208BFEC68CAE72146284600F00CF830
:104D10000028CBD04FF0FF37EAE700BFF459000876
:104D2000145A0008D4590008324B70B51D68064665
:104D30000C4625B1AB6913B9284600F085F92E4B16
:104D40009C420FD16C68A389B4F90C2019072CD4AC
:104D5000DD0611D40923336042F04003A3814FF0F4
:104D6000FF303EE0254B9C4201D1AC68EBE7244B81
:104D70009C4208BFEC68E6E7580712D5616B41B169
:104D800004F14403994202D03046FFF7A9FD002305
:104D90006363A38923F02403A38100236360236951
:104DA0002360A38943F00803A38123694BB9A38936
:104DB00003F42073B3F5007F03D02146304600F0A2
:104DC00007FAA089B4F90C2010F001030AD00023DF
:104DD000A36063695B42A361236943B910F080005B
:104DE000BAD170BD810758BF6369A360F4E70020A2
:104DF000F7E700BF1C000020F4590008145A00080F
:104E0000D459000808B5062000F052FA012000F03D
:104E100065FB00008A892DE9F041054610070C4624
:104E200058D44B68002B05DC0B6C002B02DC0020F7
:104E3000BDE8F081E66A002EF9D0002312F480521A
:104E40002F68216A2B6032D0606DA3895A0705D57F
:104E50006368C01A636B0BB1236CC01A002302464F
:104E6000E66A216A2846B047431CA38906D129680F
:104E70001D292BD8294A0A41D60727D4002262606F
:104E8000D9042269226004D5421C01D12B6803B9E0
:104E90006065616B2F600029C9D004F14403994219
:104EA00002D02846FFF71CFD00206063C0E7012305
:104EB0002846B047411CC8D12B68002BC5D01D2BFC
:104EC00001D0162B01D12F60B1E7A38943F0400335
:104ED000A381ADE70F69002FA9D093070E6808BF23
:104EE0004B690F6018BF0023A6EB07088B60B8F171
:104EF000000F9CDD216AA66A43463A462846B04721
:104F0000002806DCA38943F04003A3814FF0FF3063
:104F10008EE70744A8EB0008E9E700BFFEFFBFDF0C
:104F200038B50B6905460C4613B90025284638BD2F
:104F300018B183690BB900F087F8144B9C421BD160
:104F40006C68B4F90C30002BEFD0626ED00704D43B
:104F5000990502D4A06DFEF7E9FB28462146FFF72C
:104F600059FF636EDA070546E0D4A3899B05DDD4BB
:104F7000A06DFEF7DCFBD9E7054B9C4201D1AC6884
:104F8000DFE7044B9C4208BFEC68DAE7F4590008FD
:104F9000145A0008D4590008002310B50446C0E98B
:104FA0000033C0E90433836081814366C281836139
:104FB000194608225C30FDF7F5F9054B6362054B95
:104FC000A362054BE362054B2462236310BD00BF5F
:104FD000E95200080B5300084353000867530008C8
:104FE000014900F0AFB800BF214F000870B5682339
:104FF0004D1E5D430E4605F17401FFF78FF8044620
:1050000040B10021C0E900160C30A06005F1680233
:10501000FDF7C8F9204670BD0148FEF787BB00BF09
:10502000010400200148FEF782BB00BF01040020FC
:105030000148FEF77BBB00BF020400200148FEF7D9
:1050400076BB00BF0204002010B50446FFF7F0FF56
:10505000A3691BB1BDE81040FFF7F0BFC4E91233EC
:105060002365134B134A1B68A262A34204BF0123AA
:10507000A361204600F020F86060204600F01CF894
:10508000A060204600F018F80022E060042160686B
:10509000FFF782FFA06801220921FFF77DFFE0688A
:1050A00002221221FFF778FF0123A361D2E700BF9C
:1050B00030560008E14F0008F8B50746FFF7ACFF8F
:1050C0001E4B1E68B36913B93046FFF7BDFF483663
:1050D000D6E90134013B03D533680BB33668F7E7F3
:1050E000B4F90C50D5B9164BE36004F1580065666D
:1050F000FEF71BFBFFF796FFC4E90155C4E9045511
:105100002560A5610822294604F15C00FDF74AF9F3
:10511000C4E90D55C4E912552046F8BD6834D9E7F5
:1051200004213846FFF762FF044630600028D5D1DD
:10513000FFF778FF0C233B60EEE700BF3056000816
:105140000100FFFF2DE9F8430646884600F14804B8
:105150000027D4E90195B9F1010905D52468002C8F
:10516000F7D13846BDE8F883AB89012B07D9B5F9EB
:105170000E30013303D029463046C0470743683517
:10518000E9E770B50C46B1F90E10002996B0154646
:105190001E460DDAA38913F0800F4FF000010CBFFB
:1051A0004FF480634023002031602B6016B070BD47
:1051B0006A4600F0FFF80028ECDB019901F4704129
:1051C000A1F50053594259414FF48063EBE70000C9
:1051D0008B8973B59D0706460C4607D504F1470336
:1051E000236023610123636102B070BD01AB6A4695
:1051F000FFF7C7FF009905463046FEF78FFF48B915
:10520000B4F90C309A05EFD423F0030343F0020302
:10521000A381E3E70D4BB362A389206043F08003D1
:10522000A381009B6361019B20615BB1B4F90E1007
:10523000304600F0D1F828B1A38923F0030343F0EE
:105240000103A381A3891D43A581CDE7E14F000898
:1052500051F8043C181F002BBCBF0B58C0187047F6
:105260001F2938B504460D4604D9162303604FF0B4
:10527000FF3038BD426C12B152F821304BB9204694
:1052800000F030F82A4601462046BDE8384000F0DC
:1052900017B8012B0AD0591C03D116230360012033
:1052A000E7E7002442F82540284698470020E0E739
:1052B000024B01461868FFF7D3BF00BF1C00002057
:1052C00038B5074D00230446084611462B6000F010
:1052D000D7F8431C02D12B6803B1236038BD00BF4F
:1052E0000C04002000F0BCB810B50C46B1F90E104B
:1052F00000F094F80028ABBF636DA3891B1823F45A
:105300008053ACBF6365A38110BD2DE9F0411F46FA
:105310008B89DB0505460C46164605D5B1F90E10FE
:105320000223002200F068F8A389B4F90E1023F4D8
:105330008053A38132463B462846BDE8F04100F049
:1053400017B810B50C46B1F90E1000F055F8431C13
:10535000A38915BF606523F4805343F48053A38170
:1053600018BFA38110BDB1F90E1000F013B80000F2
:1053700038B5074D04460846114600222A601A46F1
:1053800000F0A4F8431C02D12B6803B1236038BDA0
:105390000C04002038B5064D0023044608462B6057
:1053A00000F04EF8431C02D12B6803B1236038BDD6
:1053B0000C04002038B5074D00230446084611466A
:1053C0002B6000F045F8431C02D12B6803B1236029
:1053D00038BD00BF0C04002038B5064D002304463C
:1053E00008462B6000F044F8431C02D12B6803B13F
:1053F000236038BD0C04002038B5074D044608462C
:10540000114600222A601A4600F042F8431C02D1DD
:105410002B6803B1236038BD0C04002038B5074D5C
:1054200004460846114600222A601A4600F038F861
:10543000431C02D12B6803B1236038BD0C0400204B
:10544000024B58221A604FF0FF3070470C040020C6
:10545000024B58221A604FF0FF3070470C040020B6
:10546000024B58221A604FF0FF3070470C040020A6
:10547000024B58221A600020704700BF0C04002025
:10548000024B58221A604FF0FF3070470C04002086
:10549000024B58221A604FF0FF3070470C04002076
:1054A000024B58221A604FF0FF3070470C04002066
:1054B000044A05491368002B08BF0B4618441060C6
:1054C000184670471004002018040020024B582290
:1054D0001A604FF0FF3070470C040020FEE700BF59
:1054E00038B50022002304460D46FBF7CFFA28B951
:1054F00020462946BDE8384000F00AB8204605F1AC
:10550000004100F005F8404261EB410138BD000068
:10551000D0B50C4B002206460F46FBF745F8FBF7CB
:10552000DDFA0446FAF7C6FF074B0022FBF73CF80A
:1055300002460B4630463946FAF77EFEFBF7CEFAB6
:105540002146D0BD0000F03D0000F041F8B500BF9D
:10555000F8BC08BC9E467047F8B500BFF8BC08BC54
:045560009E467047AC
:10556800585945005049440053454C004C53540089
:10557800414444000A526F773A2025640D0A53705B
:105588006565643A20256C640D0A0000436F656602
:1055980066696369656E742025643A20256C660D1A
:1055A8000A00000057616974696E6720666F72208F
:1055B800636F6E7374616E74732C20357320746915
:1055C8006D656F7574202D2074797065205345546E
:1055D8000D0A0000526563656976656420502049AC
:1055E80020442076616C7565730D0A000000000088
:1055F800010203040000000000000000010203048F
:1056080006070809524F5700010203040506070858
:10561800090A0B0C0D0E0F100203040506070809F2
:105628000A0B0C0D0E0F1010200000202E006E66C5
:1056380000696E69747900616E0000003500000031
:10564800CEFBFFFFCB0300000100000000000000BC
:1056580034000000CEFBFFFFCB0300000100000078
:105668000000000000000000BC89D897B2D29C3C22
:1056780033A7A8D523F649393DA7F444FD0FA53231
:105688009D978CCF08BA5B25436FAC6428066811D8
:1056980042616C6C6F6320737563636565646564F0
:1056A800002E2E2F2E2E2F2E2E2F2E2E2F2E2E2F3B
:1056B8002E2E2F2E2E2F2E2E2F6E65776C69622D93
:1056C800342E322E302E32303231313233312F6E89
:1056D80065776C69622F6C6962632F7374646C6997
:1056E800622F6764746F612D6765746865782E63CF
:1056F800004300504F534958005245454E54206DC1
:10570800616C6C6F632073756363656564656400C1
:105718002E2E2F2E2E2F2E2E2F2E2E2F2E2E2F2E9C
:105728002E2F2E2E2F2E2E2F6E65776C69622D341C
:105738002E322E302E32303231313233312F6E65E7
:10574800776C69622F6C6962632F7374646C696229
:105758002F6D707265632E6300000000000000006A
:105768000080E03779C34143176E05B5B5B8934655
:10577800F5F93FE9034F384D321D30F94877825A21
:105788003CBF737FDD4F1575000000000000F03F3F
:105798000000000000002440000000000000594004
:1057A8000000000000408F40000000000088C34057
:1057B80000000000006AF8400000000080842E41CC
:1057C80000000000D01263410000000084D7974118
:1057D8000000000065CDCD41000000205FA002421E
:1057E800000000E876483742000000A2941A6D4293
:1057F800000040E59C30A2420000901EC4BCD64286
:1058080000003426F56B0C430080E03779C3414330
:1058180000A0D8855734764300C84E676DC1AB43A6
:10582800003D9160E458E143408CB5781DAF1544C4
:1058380050EFE2D6E41A4B4492D54D06CFF080449F
:10584800F64AE1C7022DB544B49DD9794378EA44B4
:1058580005000000190000007D000000232D302BFA
:105868002000686C4C006566674546470030313259
:1058780033343536373839414243444546003031B0
:105888003233343536373839616263646566002CE3
:105898002066756E6374696F6E3A20006173736574
:1058A8007274696F6E2022257322206661696C65A7
:1058B800643A2066696C6520222573222C206C6965
:1058C8006E65202564257325730A0000202020209A
:1058D8002020202020282828282820202020202098
:1058E8002020202020202020202020208810101078
:1058F80010101010101010101010101004040404D0
:105908000404040404041010101010101041414144
:1059180041414101010101010101010101010101AF
:105928000101010101010110101010101042424242
:10593800424242020202020202020202020202027F
:1059480002020202020202101010102000000000E1
:10595800000000000000000000000000000000003F
:10596800000000000000000000000000000000002F
:10597800000000000000000000000000000000001F
:10598800000000000000000000000000000000000F
:1059980000000000000000000000000000000000FF
:1059A80000000000000000000000000000000000EF
:1059B80000000000000000000000000000000000DF
:1059C80000000000000000000000000000000000CF
:1059D80000000000000000000000000000000000BF
:1059E80000000000000000000000000000000000AF
:1059F800000000000000000000000000000000009F
:105A0800000000000000000000000000000000008E
:105A1800000000000000000000000000000000007E
:0C5A280000000000000000000000000072
:045A3400410B00081A
:045A38001D0B00083A
:105A3C0053657420536572766F205820593A2000B4
:105A4C0000127A000100000010000000200000206D
:105A5C0000000000F4590008145A0008D45900083A
:105A6C00000000000000000000000000000000002A
:105A7C00000000000000000000000000000000001A
:105A8C00000000000000000000000000000000000A
:105A9C0000000000000000000000000000000000FA
:105AAC0000000000000000000000000000000000EA
:105ABC004300000000000000000000000000000097
:105ACC0000000000000000000000000000000000CA
