:020000040800F2
:10000000003000205D4F0008D91C0008DB1C0008F0
:10001000DD1C0008DF1C0008E11C000800000000D7
:10002000000000000000000000000000E31C0008C9
:10003000E51C000800000000E71C0008E91C00089F
:10004000AD4F0008AD4F0008AD4F0008AD4F0008A0
:10005000AD4F0008AD4F0008AD4F0008AD4F000890
:10006000AD4F0008AD4F0008AD4F0008F11C00086F
:10007000AD4F0008AD4F0008AD4F0008AD4F000870
:10008000AD4F0008AD4F0008AD4F0008AD4F000860
:10009000AD4F0008AD4F0008AD4F0008AD4F000850
:1000A000AD4F0008051D0008AD4F0008AD4F00081A
:1000B000AD4F0008AD4F000800000000AD4F000834
:1000C000AD4F00080000000000000000AD4F000828
:1000D00000000000AD4F0008AD4F0008AD4F000814
:1000E000AD4F0008AD4F0008000000000000000008
:1000F0000000000000000000000000000000000000
:1001000000000000000000000000000000000000EF
:100110000000000000000000AD4F0008AD4F0008D7
:1001200000000000000000000000000000000000CF
:1001300000000000000000000000000000000000BF
:10014000AD4F0008AD4F00080000000000000000A7
:10015000000000000000000000000000000000009F
:10016000000000000000000000000000000000008F
:10017000000000000000000000000000000000007F
:0801800000000000AD4F000873
:1001C00001F0FF01102A2BDB10F0070F08D010F808
:1001D000013B013A8B422DD010F0070F42B3F6D10C
:1001E000F0B441EA012141EA014122F007047FF025
:1001F00000070023F0E80256083C85EA010586EA7C
:10020000010685FA47F5A3FA87F586FA47F6A5FAB7
:1002100087F68EB9EED1F0BC01F0FF0102F00702C3
:1002200032B110F8013B013A83EA010313B1F8D16E
:100230000020704701387047002D06BF354603384F
:10024000073815F0010F07D1013015F4807F02BF88
:10025000013015F4C03F0130F0BC0138704700BFD9
:10026000844641EA000313F003036DD1403A41D3C1
:1002700051F8043B40F8043B51F8043B40F8043B80
:1002800051F8043B40F8043B51F8043B40F8043B70
:1002900051F8043B40F8043B51F8043B40F8043B60
:1002A00051F8043B40F8043B51F8043B40F8043B50
:1002B00051F8043B40F8043B51F8043B40F8043B40
:1002C00051F8043B40F8043B51F8043B40F8043B30
:1002D00051F8043B40F8043B51F8043B40F8043B20
:1002E00051F8043B40F8043B51F8043B40F8043B10
:1002F000403ABDD2303211D351F8043B40F8043BB0
:1003000051F8043B40F8043B51F8043B40F8043BEF
:1003100051F8043B40F8043B103AEDD20C3205D3BF
:1003200051F8043B40F8043B043AF9D2043208D0B7
:10033000D2071CBF11F8013B00F8013B01D30B8829
:1003400003806046704700BF082A13D38B078DD007
:1003500010F003038AD0C3F10403D21ADB071CBFD9
:1003600011F8013B00F8013B80D331F8023B20F843
:10037000023B7BE7043AD9D3013A11F8013B00F87C
:10038000013BF9D20B7803704B7843708B78837004
:100390006046704700000000000000000000000000
:1003A000000000000000000000000000000000004D
:1003B000000000000000000000000000000000003D
:1003C00090F800F06DE9024520F007016FF0000C95
:1003D00010F0070491F820F040F049804FF000043D
:1003E0006FF00700D1E9002391F840F000F1080018
:1003F00082FA4CF2A4FA8CF283FA4CF3A2FA8CF350
:100400004BBBD1E9022382FA4CF200F10800A4FAB6
:100410008CF283FA4CF3A2FA8CF3E3B9D1E904230A
:1004200082FA4CF200F10800A4FA8CF283FA4CF341
:10043000A2FA8CF37BB9D1E9062301F1200182FAFB
:100440004CF200F10800A4FA8CF283FA4CF3A2FA01
:100450008CF3002BC6D0002A04BF04301A4612BA0F
:10046000B2FA82F2FDE8024500EBD2007047D1E912
:10047000002304F00305C4F100004FEAC50514F0A1
:10048000040F91F840F00CFA05F562EA05021CBF72
:1004900063EA050362464FF00004A9E781F00041DA
:1004A00002E000BF83F0004330B54FEA41044FEA59
:1004B000430594EA050F08BF90EA020F1FBF54EAF4
:1004C000000C55EA020C7FEA645C7FEA655C00F090
:1004D000E2804FEA5454D4EB5555B8BF6D420CDD61
:1004E0002C4480EA020281EA030382EA000083EAE4
:1004F000010180EA020281EA0303362D88BF30BD84
:1005000011F0004F4FEA01314FF4801C4CEA1131D9
:1005100002D0404261EB410113F0004F4FEA033338
:100520004CEA133302D0524263EB430394EA050FC3
:1005300000F0A780A4F10104D5F1200E0DDB02FA32
:100540000EFC22FA05F2801841F1000103FA0EF2C6
:10055000801843FA05F359410EE0A5F120050EF18C
:10056000200E012A03FA0EFC28BF4CF0020C43FABD
:1005700005F3C01851EBE37101F0004507D54FF0CA
:10058000000EDCF1000C7EEB00006EEB0101B1F51A
:10059000801F1BD3B1F5001F0CD349085FEA300060
:1005A0004FEA3C0C04F101044FEA445212F5800F6B
:1005B00080F09A80BCF1004F08BF5FEA500C50F108
:1005C000000041EB045141EA050130BD5FEA4C0CEB
:1005D000404141EB0101013C28BFB1F5801FE9D248
:1005E00091F0000F04BF01460020B1FA81F308BF6B
:1005F0002033A3F10B03B3F120020CDA0C3208DD37
:1006000002F1140CC2F10C0201FA0CF021FA02F111
:100610000CE002F11402D8BFC2F1200C01FA02F181
:1006200020FA0CFCDCBF41EA0C019040E41AA2BFA6
:1006300001EB0451294330BD6FEA04041F3C1CDA6E
:100640000C340EDC04F11404C4F1200220FA04F08E
:1006500001FA02F340EA030021FA04F345EA030138
:1006600030BDC4F10C04C4F1200220FA02F001FAFA
:1006700004F340EA0300294630BD21FA04F029467C
:1006800030BD94F0000F83F4801306BF81F4801115
:100690000134013D4EE77FEA645C18BF7FEA655C88
:1006A00029D094EA050F08BF90EA020F05D054EA5A
:1006B000000C04BF1946104630BD91EA030F1EBF5F
:1006C0000021002030BD5FEA545C05D14000494163
:1006D00028BF41F0004130BD14F580043CBF01F556
:1006E000801130BD01F0004545F0FE4141F470013C
:1006F0004FF0000030BD7FEA645C1ABF1946104617
:100700007FEA655C1CBF0B46024650EA013406BF17
:1007100052EA033591EA030F41F4002130BD00BFD6
:1007200090F0000F04BF0021704730B54FF4806493
:1007300004F132044FF000054FF0000150E700BF14
:1007400090F0000F04BF0021704730B54FF4806473
:1007500004F1320410F0004548BF40424FF0000160
:100760003EE700BF42004FEAE2014FEA31014FEAA3
:1007700002701FBF12F07F4393F07F4F81F06051F2
:10078000704732F07F4208BF704793F07F4F04BF3D
:1007900041F40021704730B54FF4607401F000451A
:1007A00021F000411CE700BF50EA010208BF70477A
:1007B00030B54FF000050AE050EA010208BF70476B
:1007C00030B511F0004502D5404261EB41014FF4D4
:1007D000806404F132045FEA915C3FF4D8AE4FF0DC
:1007E00003025FEADC0C18BF03325FEADC0C18BFBF
:1007F000033202EBDC02C2F1200300FA03FC20FA10
:1008000002F001FA03FE40EA0E0021FA02F114445C
:10081000BDE600BF70B54FF0FF0C4CF4E06C1CEA75
:1008200011541DBF1CEA135594EA0C0F95EA0C0FE6
:1008300000F0DEF82C4481EA030621EA4C5123EA59
:100840004C5350EA013518BF52EA033541F4801188
:1008500043F4801338D0A0FB02CE4FF00005E1FB3B
:1008600002E506F00042E0FB03E54FF00006E1FB85
:1008700003569CF0000F18BF4EF0010EA4F1FF04C8
:10088000B6F5007F64F5407404D25FEA4E0E6D4108
:1008900046EB060642EAC62141EA55514FEAC52019
:1008A00040EA5E504FEACE2EB4F1FD0C88BFBCF595
:1008B000E06F1ED8BEF1004F08BF5FEA500E50F146
:1008C000000041EB045170BD06F0004646EA01010C
:1008D00040EA020081EA0301B4EB5C04C2BFD4EB3E
:1008E0000C0541EA045170BD41F480114FF0000E37
:1008F000013C00F3AB8014F1360FDEBF002001F0A5
:10090000004170BDC4F10004203C35DA0C341BDC1E
:1009100004F11404C4F1200500FA05F320FA04F0F0
:1009200001FA05F240EA020001F0004221F0004124
:1009300010EBD37021FA04F642EB06015EEA430E97
:1009400008BF20EAD37070BDC4F10C04C4F12005C7
:1009500000FA04F320FA05F001FA04F240EA02007A
:1009600001F0004110EBD37041F100015EEA430E4B
:1009700008BF20EAD37070BDC4F1200500FA05F26B
:100980004EEA020E20FA04F301FA05F243EA0203EA
:1009900021FA04F001F0004121FA04F220EA0200F9
:1009A00000EBD3705EEA430E08BF20EAD37070BD3F
:1009B00094F0000F0FD101F00046400041EB01011F
:1009C00011F4801F08BF013CF7D041EA060195F001
:1009D000000F18BF704703F00046520043EB0303BB
:1009E00013F4801F08BF013DF7D043EA06037047A8
:1009F00094EA0C0F0CEA135518BF95EA0C0F0CD0B3
:100A000050EA410618BF52EA4306D1D181EA0301F8
:100A100001F000414FF0000070BD50EA410606BFF2
:100A20001046194652EA430619D094EA0C0F02D137
:100A300050EA013613D195EA0C0F05D152EA03367C
:100A40001CBF104619460AD181EA030101F000419A
:100A500041F0FE4141F470014FF0000070BD41F0E3
:100A6000FE4141F4780170BD70B54FF0FF0C4CF4BD
:100A7000E06C1CEA11541DBF1CEA135594EA0C0FDC
:100A800095EA0C0F00F0A7F8A4EB050481EA030E29
:100A900052EA03354FEA013100F088804FEA033310
:100AA0004FF0805545EA131343EA12634FEA0222DE
:100AB00045EA111545EA10654FEA00260EF000419F
:100AC0009D4208BF964244F1FD0404F5407402D2F1
:100AD0005B084FEA3202B61A65EB03055B084FEA82
:100AE00032024FF480104FF4002CB6EB020E75EB7F
:100AF000030E22BFB61A754640EA0C005B084FEAA7
:100B00003202B6EB020E75EB030E22BFB61A754623
:100B100040EA5C005B084FEA3202B6EB020E75EB6E
:100B2000030E22BFB61A754640EA9C005B084FEAE6
:100B30003202B6EB020E75EB030E22BFB61A7546F3
:100B400040EADC0055EA060E18D04FEA051545EAE2
:100B500016754FEA06164FEAC30343EA52734FEA8B
:100B6000C2025FEA1C1CC0D111F4801F0BD141EA04
:100B700000014FF000004FF0004CB6E711F4801F69
:100B800004BF01430020B4F1FD0C88BFBCF5E06F49
:100B90003FF6AFAEB5EB030C04BFB6EB020C5FEA59
:100BA000500C50F1000041EB045170BD0EF0004EAE
:100BB0004EEA113114EB5C04C2BFD4EB0C0541EAE0
:100BC000045170BD41F480114FF0000E013C90E6DD
:100BD00045EA060E8DE60CEA135594EA0C0F08BFA1
:100BE00095EA0C0F3FF43BAF94EA0C0F0AD150EAA0
:100BF00001347FF434AF95EA0C0F7FF425AF104633
:100C000019462CE795EA0C0F06D152EA03353FF45A
:100C1000FDAE1046194622E750EA410618BF52EAD7
:100C200043067FF4C5AE50EA41047FF40DAF52EAAB
:100C300043057FF4EBAE12E74FF0FF3C06E000BF48
:100C40004FF0010C02E000BF4FF0010C4DF804CD55
:100C50004FEA410C7FEA6C5C4FEA430C18BF7FEA15
:100C60006C5C1BD001B050EA410C0CBF52EA430C43
:100C700091EA030F02BF90EA020F0020704710F1C3
:100C8000000F91EA030F58BF994208BF90422CBF52
:100C9000D8176FEAE37040F0010070474FEA410C4B
:100CA0007FEA6C5C02D150EA013C07D14FEA430C69
:100CB0007FEA6C5CD6D152EA033CD3D05DF8040BDA
:100CC000704700BF8446104662468C46194663460C
:100CD00000E000BF01B5FFF7B7FF002848BF10F1E3
:100CE000000F01BD4DF808EDFFF7F4FF0CBF012028
:100CF00000205DF808FB00BF4DF808EDFFF7EAFFA4
:100D000034BF012000205DF808FB00BF4DF808ED5E
:100D1000FFF7E0FF94BF012000205DF808FB00BF53
:100D20004DF808EDFFF7CEFF94BF012000205DF8DD
:100D300008FB00BF4DF808EDFFF7C4FF34BF0120EA
:100D400000205DF808FB00BF4FEA410C7FEA6C5CB5
:100D500002D150EA013C0AD14FEA430C7FEA6C5CB5
:100D600002D152EA033C02D14FF0000070474FF02D
:100D7000010070474FEA410212F5001215D211D559
:100D80006FF47873B3EB625212D94FEAC12343F088
:100D9000004343EA505311F0004F23FA02F018BF0A
:100DA000404270474FF00000704750EA013005D1D3
:100DB00011F0004008BF6FF0004070474FF0000096
:100DC000704700BF53B94AB9002908BF00281CBFAB
:100DD0004FF0FF314FF0FF3000F0E2B8ADF1080CFA
:100DE0006DE904CE0AF034F9DDF804E0DDE9022310
:100DF00004B0704700F1340191E838009C46A646E3
:100E00004CF8045D90E8FF0FE54600BD90EC210B27
:100E1000704700BF80EC210B704700BF90EC200BA7
:100E2000704700BF80EC200B704700BFD0EC200B58
:100E3000704700BFC0EC200B704700BFF0EC020110
:100E4000F0EC0211F0EC0221F0EC0231F0EC024186
:100E5000F0EC0251F0EC0261F0EC0271F0EC028176
:100E6000F0EC0291F0EC02A1F0EC02B1F0EC02C166
:100E7000F0EC02D1F0EC02E1F0EC02F1704700BFBF
:100E8000E0EC0201E0EC0211E0EC0221E0EC0231C6
:100E9000E0EC0241E0EC0251E0EC0261E0EC0271B6
:100EA000E0EC0281E0EC0291E0EC02A1E0EC02B1A6
:100EB000E0EC02C1E0EC02D1E0EC02E1E0EC02F196
:100EC000704700BFB0FC0181B0FC0191B0FC01A1F2
:100ED000B0FC01B1704700BFA0FC0181A0FC0191F2
:100EE000A0FC01A1A0FC01B1704700BFEC4600B519
:100EF0002DE900502DE9FF1F4FF000032DE90C00F4
:100F000001A90AF05FFBDDF840E012B0704700BFB6
:100F1000EC4600B52DE900502DE9FF1F4FF000030E
:100F20002DE90C0001A90AF089FBDDF840E012B0C0
:100F3000704700BFEC4600B52DE900502DE9FF1FBA
:100F40004FF000032DE90C0001A90AF099FBDDF830
:100F500040E012B0704700BFEC4600B52DE90050EC
:100F60002DE9FF1F4FF000032DE90C0001AB0AF043
:100F70005DFBDDF840E012B0704700BFEC4600B505
:100F80002DE900502DE9FF1F4FF000032DE90C0063
:100F900001AA0AF0C9FBDDF840E012B0704700BFBB
:100FA000704700BF10B5054C237833B9044B13B11B
:100FB0000448AFF300800123237010BDB80900205E
:100FC00000000000D4BF000808B5034B1BB1034963
:100FD0000348AFF3008008BD00000000BC090020FA
:100FE000D4BF0008F0B583B000268DF807608DF8F7
:100FF0000660ADF80460394C2060C56801230DF12E
:1010000006020721407AA8470546206807690123A0
:101010000DF107023146407AB84755FA80F5EDB236
:1010200020689DF807300370066901230DF107025F
:101030001946407AB04755FA80F5EDB220689DF820
:1010400007304371066901230DF107020221407A3E
:10105000B04755FA80F5EDB220689DF807308371EE
:10106000066901230DF107020321407AB04755FAC2
:1010700080F5EDB220689DF80730C3710669012341
:101080000DF107020621407AB04755FA80F5EDB21E
:1010900020689DF8073003720669022301AA042123
:1010A000407AB04755FA80F5EDB29DF805209DF8DD
:1010B0000430206843EA02234380066901230DF1CE
:1010C00007020721407AB04755FA80F023689DF85F
:1010D00007201A7140B203B0F0BD00BFD409002050
:1010E00038B51346054A14682CB1E5680A4601462E
:1010F000607AA84738BD6FF07E00FBE7D409002076
:1011000070B582B0044600238DF80730124B186882
:10111000E0B1056901230DF107020721407AA847D4
:101120000546B0B98DF807400B4B1868C668012317
:101130000DF107020721407AB04755FA80F358B203
:1011400010B9054B1B681C7102B070BD6FF07E00BA
:10115000FAE74FF0FF30F7E7D409002030B583B04D
:1011600004461D4B93E803000090ADF804101B4BA0
:101170001B6853B31B7913BB184B1B681B793BBB14
:10118000164B1868056906236A461A21407AA84753
:101190009DF901209DF8003043EA022323809DF948
:1011A00003209DF8023043EA022363809DF9052065
:1011B0009DF8043043EA0223A38003B030BD002031
:1011C000FFF79EFF0028DBD0D6E76FF07E00F4E744
:1011D0004FF0FF30F1E700BFF0BF0008D409002056
:1011E00030B583B000238DF80730134B1B68E3B193
:1011F00004461B799BB9104B1B681B79C3B90E4B76
:101200001868056901230DF107023B21407AA847C0
:101210009DF80730C3F38003237003B030BD002076
:10122000FFF76EFF0028EAD0E5E76FF07E00F4E7F5
:101230004FF0FF30F1E700BFD409002030B583B094
:1012400000238DF80730134B1B68E3B104461B796C
:101250009BB9104B1B681B79C3B90E4B1868056905
:1012600001230DF107023D21407AA8479DF8073080
:1012700003F00F03237003B030BD0020FFF740FFE1
:101280000028EAD0E5E76FF07E00F4E74FF0FF308A
:10129000F1E700BFD409002070B582B000238DF8BB
:1012A00007308DF80630434B1B68002B7CD0054679
:1012B0000DF10600FFF7C2FF002878D19DF8063037
:1012C00043BB3C4B1868046901230DF107023D2123
:1012D000407AA0470446D0B99DF8070020F00F00DF
:1012E00043B205F00F0018438DF80700314D286810
:1012F000C66801230DF107023D21407AB04754FA38
:1013000080F464B22B685B694FF4167098472046EE
:1013100002B070BD274B1868046901230DF1070264
:101320003D21407AA047044648B3002DEFD0214B21
:101330001868046901230DF107023D21407AA04796
:1013400004460028E3D19DF8070020F00F0043B2C7
:1013500005F00F0018438DF80700164D2868C66881
:1013600001230DF107023D21407AB04754FA80F481
:1013700064B22B685B694FF416709847C7E79DF815
:10138000073003F0F0038DF8073001220DF107015B
:101390003D20FFF7A5FE54FA80F464B2054B1B68AC
:1013A0005B6914209847C0E76FF07E04AFE74FF009
:1013B000FF34ACE7D409002030B583B000238DF8AA
:1013C00007308DF80630264B1B68002B44D00546AD
:1013D0000DF10600FFF732FF044660BB9DF80630B2
:1013E0001BBB84BB1E4B1868046901230DF1070267
:1013F0003B21407AA0470446F8B99DF8070020F049
:10140000040043B2A80000F0040018438DF8070060
:10141000134B1868C56801230DF107023B21407A80
:10142000A84754FA80F464B207E0FFF735FF54FA96
:1014300080F464B2D5E74FF0FF349DF8060028B978
:10144000204603B030BD4FF0FF34F6E7FFF724FF2E
:1014500054FA80F464B2F3E76FF07E04F0E700BF63
:10146000D409002030B585B004460023ADF808301B
:10147000ADF80A30ADF80C308DF807300DF10700EB
:10148000FFF7AEFE9DF80730012B26D148BB02A81E
:10149000FFF764FE054638BBBDF90800FFF750F9B9
:1014A0000022134BFFF7E0FAC4E90001BDF90C007C
:1014B000FFF746F900220E4BFFF7D6FAC4E9040104
:1014C000BDF90A00FFF73CF90022094BFFF7CCFAFF
:1014D000C4E90201284605B030BD0120FFF76CFFCA
:1014E000D4E74FF0FF35F5E74FF0FF35F2E700BFE7
:1014F00000208C4030B583B000238DF807308DF884
:101500000630254B1B68002B43D005460DF1060025
:10151000FFF794FE044658BB9DF8063013BB7CBB16
:101520001D4B1868046901230DF107023E21407A22
:10153000A0470446F0B99DF8070020F0030043B22D
:1015400005F0030018438DF80700134B1868C568B1
:1015500001230DF107023E21407AA84754FA80F496
:1015600064B207E0FFF798FE54FA80F464B2D6E75D
:101570004FF0FF349DF8060028B9204603B030BD77
:101580004FF0FF34F6E7FFF787FE54FA80F464B2B9
:10159000F3E76FF07E04F0E7D409002000B585B0D2
:1015A0008DF80810002109E001F1010C12F801E0AA
:1015B0001131694401F808EC5FFA8CF19942F3D3D8
:1015C0000A220092013302AA4100064801F0BAFD46
:1015D0000346002801DD4FF0FF3358B205B05DF837
:1015E00004FB00BF700A00202DE9F04184B00646DC
:1015F00015461C460023029303938DF80810164FDE
:101600004FF06408CDF80080012302AA00FA03F12C
:10161000384601F097FD7100CDF80080234602AAFC
:1016200041F00101384601F04BFE0346002801DD80
:101630004FF0FF33002109E001F110020DEB020C25
:101640001CF808CC05F801C00131C9B2A142F3D39E
:1016500058B204B0BDE8F081700A002008B500F06F
:1016600029FC08BD82B00A4B5A6942F400325A6123
:101670005A6902F400320092009A5A6942F48022B8
:101680005A615B6903F480230193019B02B07047A8
:101690000010024000B583B00A4B5A6942F00102C3
:1016A0005A615B6903F001030193019B002211461B
:1016B0000B2001F071F90B2001F0A6F903B05DF8E1
:1016C00004FB00BF00100240704772B6FEE7000046
:1016D00010B59AB000241694179418941994139482
:1016E000149415940C940D940E940F9410941194DA
:1016F00012942C22214601A803F084FC3B483C4B69
:1017000003600123436084604FF6FF73C36004618C
:101710004461846102F0AAFE002855D14FF4805341
:10172000169316A9314802F0EBFF00284ED12F483E
:1017300002F0CCFE00284BD1002313931493159391
:1017400013A92A4803F030F9002843D160230C93F1
:1017500045F255530D9300220E920F921092119262
:1017600012920CA9214802F021FF002834D1042252
:101770000CA91E4802F01AFF00282FD108220CA93C
:101780001A4802F013FF58BB0C220CA9174802F0AC
:101790000DFF38BB00230193029303930493059339
:1017A0004FF400520692079308934FF0007209928B
:1017B0000A930B9301A90D4803F032F9A0B90B4825
:1017C00000F020FA1AB010BDFFF77FFFFFF77DFF92
:1017D000FFF77BFFFFF779FFFFF777FFFFF775FF55
:1017E000FFF773FFFFF771FFFFF76FFFBC0A0020E1
:1017F000002C014000B58BB0002307930893099398
:101800000193029303930493059306931A484FF0B0
:10181000A04202604360836003610122427680F847
:101820002030C3628262C360C26180F8302004222B
:1018300042610376436300F00FFCB0B900230793C5
:1018400007A90D4801F00AF888B901230193029312
:101850000023049303930593069301A9064800F01F
:101860003BFE30B90BB05DF804FBFFF72EFFFFF72E
:101870002CFFFFF72AFF00BFDC09002008B5114844
:10188000114B0360114B4360002383600122C2604F
:10189000036143618361C361036201F0F4FB50B9EA
:1018A0000021084801F0CAFD38B90021054801F0BF
:1018B000F3FD20B908BDFFF708FFFFF706FFFFF7AC
:1018C00004FF00BF700A0020005400400E090020F1
:1018D00008B50B480B4B03604FF4164343600023DD
:1018E0008360C36003610C2242618361C361036250
:1018F000436203F002FB00B908BDFFF7E6FE00BF3C
:10190000080B00200044004000B597B028220021B9
:101910000CA803F077FB00230793089309930A931D
:101920000B9301930293039304930593069302236D
:101930000C93012210921022119213934FF4101362
:1019400015930CA801F0D4FDF0B90F2307930223DF
:101950000893002309934FF480620A920B930121AC
:1019600007A802F017F988B94FF4855301934FF493
:101970008073059300230493069301A802F010FAE4
:1019800030B917B05DF804FBFFF79FFEFFF79DFE2F
:10199000FFF79BFE10B5ACB000F068FAFFF7B4FF9C
:1019A000FFF760FEFFF794FEFFF774FEFFF722FFDC
:1019B000FFF764FFFFF78CFF2B4C204602F000FC82
:1019C0000021204602F02CFF0421204602F028FFCF
:1019D0000821204602F024FF0C21204602F020FFBF
:1019E000224C01222249204600F0DCFC0B2001F0B1
:1019F00019F8204600F03AFC1E481F4B03611F4BAC
:101A0000C3601F4B436128234372FFF7EBFA0020AA
:101A1000FFF770FD0820FFF73FFC26A8FFF722FD27
:101A200080242246002106A803F0ECFADDE92823F1
:101A3000CDE90423DDE92A23CDE90223DDE92623CC
:101A4000CDE900230F4A214606A803F02DFB6423AD
:101A5000224606A90C4803F0ACF9962000F02AFAB9
:101A60000B2000F0D1FFD8E7BC0A0020DC090020E1
:101A7000D80900208C0B0020E91500089D150008EE
:101A80005D16000814C00008080B002082B00A4B45
:101A90009A6942F001029A619A6902F00102009289
:101AA000009ADA6942F08052DA61DB6903F0805310
:101AB0000193019B02B070470010024010B588B03E
:101AC0000023039304930593069307930368B3F1EC
:101AD000A04F01D008B010BD044603F1704303F5D8
:101AE00004335A6942F080525A615A6902F08052B6
:101AF0000192019A5A6942F400325A615B6903F417
:101B000000330293029B012303930323049303A94D
:101B10004FF0904001F090F80E480F4B0360002307
:101B2000436083608023C3604FF4807303614FF48C
:101B300000634361202383614FF48053C36100F04D
:101B4000BFFF18B9034BA3635C62C3E7FFF7BDFD9A
:101B5000F8E700BF2C0A00200800024010B588B04A
:101B60000023039304930593069307930268124B93
:101B70009A4201D008B010BD104C636943F4802331
:101B80006361636903F480230193019BC023039382
:101B900012230493032306930423079303A90848FD
:101BA00001F04AF8E36943F40013E361E36903F4E5
:101BB00000130293029BDDE7005400400010024036
:101BC0000004004802680E4B9A4200D0704700B5EE
:101BD00083B003F564439A6942F400629A619B6999
:101BE00003F400630193019B00221146192000F0C9
:101BF000D3FE192000F008FF03B05DF804FB00BF1E
:101C0000002C014010B586B000230193029303938A
:101C1000049305930268154B9A4201D006B010BD9B
:101C200003F564435A6942F400325A615B6903F474
:101C300000330093009B4FF4E0630193022402946D
:101C40000623059301A94FF0904000F0F5FF4FF4F3
:101C50000063019302940023039304930B230593E1
:101C600001A94FF0904000F0E7FFD7E7002C0140BA
:101C700000B589B00023039304930593069307935B
:101C80000268144B9A4202D009B05DF804FB03F5D8
:101C9000E633DA6942F40032DA61DA6902F40032DA
:101CA0000192019A5A6942F400325A615B6903F465
:101CB00000330293029B0C23039302230493032318
:101CC00006930723079303A94FF0904000F0B4FF59
:101CD000DAE700BF00440040FEE7FEE7FEE7FEE76C
:101CE000FEE770477047704708B500F0D1F808BDAF
:101CF00008B5034800F046FF0B2000F093FE08BD36
:101D00002C0A002010B50E4B1B6819010D4CA4FBCA
:101D1000012145F2555202EB51010B484163D900B4
:101D2000A4FB01C102EB510181639B00A4FB0313DF
:101D300002EB5303C363054802F082FA10BD00BFF3
:101D4000D8090020ABAAAAAA002C0140BC0A002096
:101D50000120704708B503F02BF9162303604FF0FC
:101D6000FF3008BD08B54FF0FF31FFF7F3FFFEE786
:101D700070B50C461646002506E0AFF300802146FC
:101D800001F8010B01350C46B542F6DB304670BD5B
:101D900070B50C461646002504E014F8010BAFF3AD
:101DA00000800135B542F8DB304670BD4FF0FF30A2
:101DB00070474FF400534B6000207047012070477C
:101DC0000020704710B503460C4A0D490D480068C5
:101DD00040B10C4800680344521A934206D8094A9D
:101DE000136010BD0748084C0460F2E703F0E0F808
:101DF0000C2303604FF0FF30F3E700BF00300020FA
:101E000000040000A40B0020F80B0020034AD2F8C5
:101E1000883043F47003C2F88830704700ED00E06A
:101E200010B504460E4B18784FF47A73B3FBF0F3F9
:101E30000C4A1068B0FBF3F000F006FE68B90F2CF6
:101E400001D901200AE0002221464FF0FF3000F0C6
:101E5000A3FD054B1C60002000E0012010BD00BF69
:101E600004000020000000200800002008B5074AF8
:101E7000136843F010031360032000F07BFD0F2074
:101E8000FFF7CEFFFFF702FE002008BD0020024052
:101E9000034A1168034B1B780B441360704700BF63
:101EA000A80B002004000020014B1868704700BFF9
:101EB000A80B002038B50446FFF7F6FF0546B4F13D
:101EC000FF3F02D0044B1B781C44FFF7EDFF401B83
:101ED000A042FAD338BD00BF04000020704770470D
:101EE00038B50268936803F00303012B01D000208A
:101EF00038BD0446136813F0010F33D0936803F024
:101F00000D03012B09D0036C43F010030364436CF1
:101F100043F0010343640120EAE7936843F00203BE
:101F20009360036803221A60FFF7BEFF054623682B
:101F30009B6813F0010F13D0FFF7B6FF401B022878
:101F4000F5D923689B6813F0010FF0D0236C43F0A0
:101F500010032364636C43F0010363640120C7E74B
:101F60000020C5E70020C3E738B50446026893683F
:101F700003F00303012B0DD091681A4B19420FD0C7
:101F8000236C43F010032364636C43F00103636428
:101F9000012038BD136813F0010FEDD00020F8E7E1
:101FA000936843F001039360FFF77EFF05462368C3
:101FB0001B6813F0010F13D1FFF776FF431B022BB1
:101FC000F5D923681B6813F0010FF0D1236C43F09F
:101FD00010032364636C43F0010363640120D8E7BA
:101FE0000020D6E73F00008008B5406A036C43F04C
:101FF00040030364436C43F004034364FFF76FFF43
:1020000008BD08B5406AFFF769FF08BD08B5436A17
:102010001A6C12F0500F1AD11A6C42F400721A6442
:102020001A68D26812F4406F0DD15A7E5AB91A6CF0
:1020300022F480721A641A6C12F4805F03D11A6C55
:1020400042F001021A641846FFF73EFB08BD9B6B85
:102050001B6B9847FAE7000030B597B00023019357
:10206000002800F0F7800446036C13F0100F52D1E3
:10207000036CABB1002023689A6812F0805F03D034
:102080009B6813F0005F47D0236C23F0120343F0EA
:1020900010032364636C43F00103636401203BE09D
:1020A0004364C364836480F83C30FFF707FD236812
:1020B0009B6813F0805F01D00020DCE72046FFF72B
:1020C0000FFF236C13F0100FD5D10028D3D1236C50
:1020D00023F4885323F0020343F0020323642268AD
:1020E000936823F0405393602268936843F08053D1
:1020F0009360594B1B68594AA2FB03239B0C03EBCB
:1021000083035B00019302E0019B013B0193019B70
:10211000002BF9D1AFE70020236C13F0100F40F033
:102120009080002840F08D802368996811F00401A8
:1021300040F08780226C22F4817242F00202226415
:10214000B3F1A04F54D04FF0A04202929A6802F02F
:102150000302012A4FD0029B23B19A6802F00302C6
:10216000012A4DD03E4A936823F4403365682B43DF
:102170009360627E5303656B012D01D04FF4805153
:102180000B43E1680B43A1680B4394F8201001292D
:102190003BD0A26A012A02D0E16A0A4313432268B3
:1021A000916811F00C0F0CD1D16821F4804121F01D
:1021B0000201D160217E94F83020520042EA81323F
:1021C00013432168CD68274A2A401343CB60236913
:1021D000012B2DD02268136B23F00F031363002310
:1021E0006364236C23F0030343F0010323642FE0B3
:1021F0001D4A0292AAE71B6813F0010FB9D1AAE7A2
:102200001B6813F0010FB4D1ACE732B9626A013A2E
:1022100043EA424343F48033BBE7226C22F02202BC
:1022200042F020022264626C42F001026264B0E774
:1022300021680B6B23F00F03E269013A13430B6330
:10224000CDE7236C23F0120343F010032364012035
:1022500017B030BD0120FBE70000002083DE1B43E8
:102260000003005007C0F0FF0001005003689B68A6
:1022700013F0040F40F08E8010B5044690F83C3007
:10228000012B00F08980012380F83C30FFF76CFEC1
:1022900000287BD1236C23F4706323F0010343F403
:1022A000807323643D4B9B6813F01F0F17D0226887
:1022B000B2F1A04F13D0236C43F480132364384B46
:1022C0009A421BD14FF0A043DB6813F0007F15D07A
:1022D000236C23F4405343F4805323640EE0236CB7
:1022E00023F4801323642368DB6813F0007F05D098
:1022F000236C23F4405343F480532364236C13F47E
:10230000805F2FD0636C23F006036364002384F89E
:102310003C3023681C221A606369082B25D0226890
:10232000536843F00C035360636B012B28D01B4BA5
:102330009B6813F01F0F0FD0184B9B6803F01F030F
:10234000052B09D0154B9B6803F01F03092B03D005
:102350002368B3F1A04F1CD12268936843F00403B3
:10236000936016E000236364D0E72268536823F08B
:10237000040353602268536843F008035360D3E7B3
:102380002268536823F010035360D0E7002384F8D9
:102390003C3010BD022070470220FAE700030050D5
:1023A00000010050F8B504460068806810F0040F82
:1023B00040F083800E46154694F83C30012B7ED0C9
:1023C000012384F83C303F4B9B6813F01F0F05D06E
:1023D000002384F83C3001273846F8BD2046FFF73B
:1023E000C3FD0746002864D1236C23F4706323F0F7
:1023F000010343F480732364324B9B6813F01F0F77
:1024000017D02268B2F1A04F13D0236C43F480138D
:1024100023642D4B9A421BD14FF0A043DB6813F08D
:10242000007F15D0236C23F4405343F4805323647E
:102430000EE0236C23F4801323642368DB6813F01D
:10244000007F05D0236C23F4405343F4805323646E
:10245000236C13F4805F29D0636C23F0060363645C
:10246000002384F83C30A36B184A9A62A36B184A85
:10247000DA62A36B174A1A6323681C221A60226867
:10248000536843F0100353602268D36843F001039C
:10249000D36021682B4632464031A06B00F038FBF8
:1024A0002268936843F00403936095E70023636414
:1024B000D6E7002384F83C308EE702278CE702271A
:1024C0008AE700BF00030050000100500D20000803
:1024D00003200008E91F000830B496B000220192E2
:1024E00090F83C20012A00F0AF810346012280F8D9
:1024F0003C200068826812F0040F40F09A814A681C
:10250000042A37D8046B02EB420252004FF01F0C32
:102510000CFA02FC24EA0C0C0C6804FA02F24CEAF5
:10252000020202631868826812F00C0F72D10A6806
:10253000092A56D9846902EB42021E3A4FF0070C71
:102540000CFA02FC24EA0C048D6805FA02F222431C
:10255000826148691C68E268C2F3C102520000FA55
:1025600002F208690138032800F29380DFE800F0E6
:1025700048707B86092A10D8446B02EB4202520055
:102580001E3A4FF01F0C0CFA02FC24EA0C040D68F2
:1025900005FA02F222434263C4E70E2A10D8846B84
:1025A00002EB420252003C3A4FF01F0C0CFA02FCC4
:1025B00024EA0C040D6805FA02F222438263B1E7B3
:1025C000C46B02EB420252005A3A4FF01F0C0CFA55
:1025D00002FC24EA0C040D6805FA02F22243C263ED
:1025E000A0E7446902EB42024FF0070C0CFA02FC30
:1025F00024EA0C048D6805FA02F222434261A8E73E
:10260000256E924828400D6842EA8562104340F0EA
:10261000004020661868826802F00302012A68D030
:10262000CA68012A6BD0D0F8B02001240D68AC40F4
:1026300022EA0402C0F8B0200A68102A00F088805C
:10264000112A00F0A680122A00F0A9800020F5E0EF
:10265000656E7E4828400D6842EA8562104340F06E
:1026600000406066D6E7A56E784828400D6842EACB
:102670008562104340F00040A066CBE7E56E7348EA
:1026800028400D6842EA8562024342F00042E26659
:10269000C0E7226E02F0F8420868B2EB806F03D107
:1026A000226E22F0004222661A68506E00F0F84056
:1026B0000C68B0EB846F03D1506E20F00040506680
:1026C0001A68906E00F0F8400C68B0EB846F03D18C
:1026D000906E20F0004090661A68D06E00F0F840CE
:1026E0000C68B0EB846F95D1D06E20F00040D066BE
:1026F00090E7026812F0010F92D000209EE0D0F81F
:10270000B02001240D68AC402243C0F8B0200A6814
:10271000092A0ED91D68A86902EB42021B3A072458
:10272000944020EA04008C6804FA02F20243AA6191
:1027300082E71D686869013202EB42020724944077
:1027400020EA04008C6804FA02F202436A6173E72B
:102750003F49896811F4000F7FF472AF1868B0F137
:10276000A04F23D04FF0A0410291816801F00301F6
:1027700001291ED0029921B18C6804F00304012CB8
:1027800021D0102A24D0112A42D0122A4AD0002067
:1027900054E02F49896811F0807FDFD053E72C493E
:1027A000896811F4800FD9D0002047E029490291AF
:1027B000DBE7016811F0010FDCD01A6C42F0200257
:1027C0001A6401203AE0096811F0010FF5D1D8E749
:1027D000B0F1A04FD7D11E498A6842F400028A6046
:1027E0001D4A1268A1F14E61A1F58421A1F27D413B
:1027F000A1FB0212920C02EB82025200019202E053
:10280000019A013A0192019A002AF9D1002015E0BB
:10281000B0F1A04FB9D10E498A6842F080728A6047
:1028200000200BE00A498A6842F480028A60002096
:1028300004E01A6C42F020021A640120002283F89E
:102840003C2016B030BC70470220FAE700F0FF834E
:1028500000030050000100500000002030B494B08C
:1028600003460268B2F1A04F3DD04FF0A040009067
:102870000098002876D093F83CC0BCF1010F73D0CB
:102880004FF0010C83F83CC0926812F0040F5ED147
:10289000826812F0040F5AD10A68002A32D0334CF1
:1028A000A26822F4604293F830C04D6845EA4C3C7F
:1028B00042EA0C02A2601C68A26802F00302012A2C
:1028C00014D0826802F00302012A15D0274CA268B6
:1028D00022F4716222F00F020868896801430A43FA
:1028E000A260002038E022480090C1E7226812F080
:1028F000010FE6D000202FE0026812F0010FE5D0B2
:10290000002029E019498A6822F460428A60196827
:102910008A6802F00302012A0DD0826802F00302E5
:10292000012A0ED011498A6822F4716222F00F0246
:102930008A60002010E00A6812F0010FEDD000203C
:102940000AE0026812F0010FECD0002004E01A6CDB
:1029500042F020021A640120002283F83C2014B0C7
:1029600030BC70470120FAE70220F8E7000300506E
:1029700000010050074AD36823F4E0631B041B0CDA
:10298000000200F4E060034343F0BF6343F400330C
:10299000D360704700ED00E000B5194BDB68C3F36E
:1029A0000223C3F1070CBCF1040F28BF4FF0040C45
:1029B00003F1040EBEF1060F18D9033B4FF0FF3EA2
:1029C0000EFA0CFC21EA0C0199400EFA03F322EAFC
:1029D0000303194300280BDB0901C9B200F1604071
:1029E00000F5614080F800135DF804FB0023E5E783
:1029F00000F00F000901C9B2024B1954F4E700BFFF
:102A000000ED00E014ED00E0002807DB00F01F02FD
:102A1000400901239340024A42F82030704700BF2A
:102A200000E100E000280CDB00F01F024009012358
:102A300093402030034A42F82030BFF34F8FBFF35A
:102A40006F8F704700E100E00138B0F1807F0BD25A
:102A50004FF0E0235861054AF02182F8231000204E
:102A6000986107221A6170470120704700ED00E06D
:102A700030B40124056CAC40C56B6C6004686360C5
:102A80004368102B05D0036899600368DA6030BC96
:102A9000704703689A600368D960F8E70268054BDD
:102AA0001344054AA2FB03231B099B000364034B49
:102AB000C3637047F8FFFDBFCDCCCCCC0000024013
:102AC00020B310B50446022380F8213001680A685B
:102AD00022F47F5222F03002436880680343E068AA
:102AE00003432069034360690343A0690343E0692A
:102AF000034313430B602046FFF7D0FF0020A06381
:102B0000012384F8213084F8200010BD0120704793
:102B100038B5044690F82000012831D0012084F80F
:102B2000200094F82100012804D0002384F82030EC
:102B3000022038BD022084F821000020A06325680F
:102B4000286820F0010028602046FFF791FFE36A23
:102B50005BB12268136843F00E03136022681368A8
:102B600043F0010313600020E3E72268136843F099
:102B70000A0313602268136823F004031360EDE76F
:102B80000220D6E738B5C36B1A6804682568016C63
:102B900004238B40134213D015F0040F10D0236888
:102BA00013F0200F03D1236823F004032360016C8A
:102BB000C26B04238B405360C36A03B1984738BD8E
:102BC00002238B4013421AD015F0020F17D023684E
:102BD00013F0200F06D1236823F00A03236001239A
:102BE00080F82130016CC26B02238B4053600023BC
:102BF00080F82030836A002BE1D09847DFE7082374
:102C000003FA01F11142DAD015F0080FD7D023688A
:102C100023F00E032360026CC16B012303FA02F25E
:102C20004A60836380F82130002380F82030036BF2
:102C3000002BC4D09847C2E7F0B583B0002362E010
:102C400085685E000324B44025EA0405CC68B440DE
:102C50002C438460446824EA0C0C4C68C4F30014D0
:102C60009C4044EA0C0444605EE0DD08083550F8FE
:102C7000256003F007044FEA840C0F2404FA0CF4D7
:102C800026EA040E0C6904FA0CF444EA0E0440F837
:102C9000254060E0032400E0002404FA0EF42C43F5
:102CA0000CF1020C4F4D45F82C404F4C2568D44395
:102CB00025EA02064F6817F4803F01D042EA050674
:102CC000494D2E606D6804EA05064F6817F4003F11
:102CD00001D042EA0506444D6E60AD6804EA05067F
:102CE0004F6817F4801F01D042EA05063E4DAE60E2
:102CF000ED682C404E6816F4001F01D042EA05042E
:102D0000394AD46001330A6832FA03F468D04FF0CC
:102D1000010C0CFA03FC1CEA0202F3D04C6804F02C
:102D20000304013C012C8BD94C6804F00304032CF0
:102D30000CD0C4685D004FF0030C0CFA05FC24EACB
:102D40000C0C8C68AC4044EA0C04C4604C6804F081
:102D50000304022C89D004684FEA430E4FF0030CA1
:102D60000CFA0EFC24EA0C0C4C6804F0030404FA80
:102D70000EF444EA0C0404604C6814F4403FC1D0E3
:102D80001A4CA56945F00105A561A46904F0010488
:102D90000194019C4FEA930C0CF10205114C54F87C
:102DA000255003F003044FEA840E0F2404FA0EF4B6
:102DB00025EA0405B0F1904F3FF46EAF0C4CA042F1
:102DC0000AD004F58064A04208D004F58064A042D3
:102DD0003FF460AF052460E701245EE702245CE76E
:102DE00003B0F0BD000001400004014000100240AB
:102DF0000004004803689A6912F0020F01D0002213
:102E00009A6203689A6912F0010F03D19A6942F03D
:102E100001029A61704730B4029D046860684FEA0D
:102E2000555C0CF4806C4CF07F7C4CF4583C4CF4BA
:102E30007F7C4CF0030C20EA0C00C1F3090141EA4D
:102E40000241194329430143616030BC7047F8B522
:102E50000E460368996911F0100F46D005461746D3
:102E60005A6812F0007F03D15A6842F480425A60D7
:102E70002B689C6914F0200F17D1B6F1FF3FF7D0F3
:102E8000FFF712F8C01BB04201D8002EF0D16B6CD6
:102E900043F020036B64202385F84130002385F83C
:102EA000423085F84030012020E01022DA612B68A2
:102EB0002024DC612846FFF79DFF2A68536823F031
:102EC000FF7323F48B3323F4FF7323F00103536068
:102ED0006B6C43F004036B6485F84140002385F874
:102EE000423085F84030012000E00020F8BD70B588
:102EF00004460D46164623689B6913F0020F1DD148
:102F0000324629462046FFF7A2FFC8B9B5F1FF3F78
:102F1000F1D0FEF7C9FF801BA84201D8002DEAD1ED
:102F2000636C43F020036364202384F84130002362
:102F300084F8423084F84030012000E0002070BD69
:102F40000120FCE72DE9F0410646884617461D465C
:102F50003468A46938EA04030CBF4FF0010C4FF049
:102F6000000CBC4518D1B5F1FF3FF1D0FEF79CFF36
:102F7000069BC01AA84201D8002DE9D1736C43F01A
:102F800020037364202386F84130002386F8423002
:102F900086F84030012000E00020BDE8F08170B5E7
:102FA00005460C4616462B689B6913F0200F1AD174
:102FB000324621462846FFF74AFFB0B9FEF774FFB4
:102FC000801BA04201D8002CEDD16B6C43F0200394
:102FD0006B64202385F84130002385F8423085F862
:102FE0004030012070BD0020FCE70120FAE770B5F9
:102FF00004460D46164623689B6913F0040F3ED124
:10300000324629462046FFF722FF0146002838D1E4
:1030100023689A6912F0200F13D1FEF745FF801B39
:10302000A84201D8002DE6D1636C43F0200363640D
:10303000202384F84130002384F8403001210846E1
:1030400070BD9A6912F0040F02D0228D002AF6D1C9
:103050002022DA6121684B6823F0FF7323F48B335D
:1030600023F4FF7323F001034B600023636484F8AF
:10307000412084F8423084F840300121DFE700210C
:10308000DDE70121DBE7002859D010B5044690F8B0
:103090004130002B43D0242384F841302268136848
:1030A00023F0010313606368226823F070631361E7
:1030B0002268936823F400439360E368012B33D0C4
:1030C000A368226843F404439360E368022B31D081
:1030D0002268536843F0007343F40043536022684E
:1030E000D36823F40043D360236962691343A16961
:1030F000226843EA0123D360E369216A22680B4313
:1031000013602268136843F00103136000206064B9
:10311000202384F84130206384F8420010BD80F8F9
:103120004030FEF71BFDB6E7A368226843F4004376
:103130009360CAE723684FF400625A60C8E7012031
:10314000704700002DE9F04782B00F460A9E90F8C4
:103150004110C9B2202940F0A38004469046994608
:1031600090F84030012B00F09F804FF0010A80F86A
:1031700040A0FEF799FE05460090192352464FF4F1
:1031800000412046FFF7DEFE002840F08F8021231B
:1031900084F84130102384F8423000236364C4F87B
:1031A0002480A4F82A906363638D9BB2FF2B0AD915
:1031B000FF222285414B00934FF080733946204611
:1031C000FFF729FE18E0628D92B222853B4B0093F7
:1031D0004FF00073D2B239462046FFF71CFE0BE0D9
:1031E000628D92B22285002300934FF00073D2B219
:1031F00039462046FFF70FFE638D9BB2002B33D07C
:103200002A4631462046FFF772FE002850D1626AF6
:10321000236812789A62636A01336362638D9BB29A
:10322000013B9BB26385238D013B9BB22385628D5D
:1032300092B2002AE0D0002BDED100953346002266
:1032400080212046FFF77EFEA0BB638D9BB2FF2B43
:10325000C6D9FF222285002300934FF080733946A0
:103260002046FFF7D8FDC7E72A4631462046FFF73C
:1032700096FE08BB23682022DA6121684B6823F0A0
:10328000FF7323F48B3323F4FF7323F001034B60AC
:1032900084F84120002384F8423084F8403000E074
:1032A000022002B0BDE8F0870220FAE70120F8E72B
:1032B0000120F6E70120F4E70120F2E7002000807A
:1032C0002DE9F04782B00F460A9E90F84110C9B22E
:1032D000202940F0A28004469046994690F840305C
:1032E000012B00F09E804FF0010A80F840A0FEF70D
:1032F000DBFD05460090192352464FF4004120465D
:10330000FFF720FE002840F08E80222384F8413011
:10331000102384F8423000236364C4F82480A4F8A6
:103320002A906363638D9BB2FF2B0AD9FF2222850B
:10333000414B00934FF0807339462046FFF76BFDF9
:1033400018E0628D92B222853B4B00934FF00073E0
:10335000D2B239462046FFF75EFD0BE0628D92B295
:103360002285002300934FF00073D2B239462046E5
:10337000FFF751FD638D9BB2002B32D02A463146B8
:103380002046FFF734FE00284FD123685A6A636A4B
:103390001A70636A01336362228D013A92B2228508
:1033A000638D9BB2013B9BB26385638D9BB2002B07
:1033B000E0D0002ADED10095334680212046FFF779
:1033C000C1FDA0BB638D9BB2FF2BC7D9FF22228515
:1033D000002300934FF0807339462046FFF71BFD12
:1033E000C8E72A4631462046FFF7D9FD08BB2368C7
:1033F0002022DA6121684B6823F0FF7323F48B33BA
:1034000023F4FF7323F001034B6084F84120002371
:1034100084F8423084F8403000E0022002B0BDE879
:10342000F0870220FAE70120F8E70120F6E7012003
:10343000F4E70120F2E700BF0024008090F841305B
:10344000DBB2202B24D190F84030012B22D0012375
:1034500080F84030242380F841300268136823F05C
:10346000010313600268136823F480531360026839
:103470001368194311600268136843F00103136075
:10348000202380F84130002380F8403018467047F0
:10349000022070470220704790F84130DBB2202BA9
:1034A00022D190F84030012B20D0012380F8403009
:1034B000242380F841300268136823F0010313606D
:1034C0000268136823F4706343EA01211160026803
:1034D000136843F001031360202380F84130002378
:1034E00080F840301846704702207047022070472D
:1034F000002800F0018370B582B00446036813F021
:10350000010F3BD0B54B5B6803F00C03042B1ED0BE
:10351000B24B5B6803F00C03082B13D06368B3F560
:10352000803F68D0002B40F0928003F1804303F588
:1035300004331A6822F480321A601A6822F4802256
:103540001A605DE0A54B5B6813F4803FE6D04FF452
:10355000003393FAA3F3A14B19684FF4003393FAA5
:10356000A3F3B3FA83F303F01F03012202FA03F378
:103570000B4203D06368002B00F0C082236813F075
:10358000020F00F0C580954B5B6813F00C0F00F044
:103590009C80924B5B6803F00C03082B00F08F803B
:1035A0002369002B00F0F280012292FAA2F3B3FA11
:1035B00083F303F1845303F584139B001A60FEF731
:1035C00073FC0546022393FAA3F3844B1968022384
:1035D00093FAA3F3B3FA83F303F01F03012202FA71
:1035E00003F30B4240F0C380FEF75EFC401B022851
:1035F000E8D903208BE2794A136843F480331360DF
:10360000764AD36A23F00F03A1680B43D362636841
:10361000002B36D0FEF748FC05464FF4003393FAF2
:10362000A3F36E4B19684FF4003393FAA3F3B3FA84
:1036300083F303F01F03012202FA03F30B429DD12F
:10364000FEF732FC401B6428E7D903205FE2B3F5A4
:10365000A02F09D0614B1A6822F480321A601A68D0
:1036600022F480221A60CBE703F18043A3F53C33B8
:103670001A6842F480221A601A6842F480321A6092
:10368000BEE7FEF711FC05464FF4003393FAA3F3AF
:10369000524B19684FF4003393FAA3F3B3FA83F350
:1036A00003F01F03012202FA03F30B423FF466AF5B
:1036B000FEF7FAFB401B6428E6D9032027E2474BBC
:1036C0005B6813F4803F7FF46BAF022393FAA3F39C
:1036D000424B1968022393FAA3F3B3FA83F303F07E
:1036E0001F03012202FA03F30B4203D02369934222
:1036F00040F006823948036823F0F8036169F82234
:1037000092FAA2F2B2FA82F201FA02F213430360D1
:10371000236813F0080F00F08D80A369002B61D09F
:10372000012191FAA1F2B2FA82F22D4B13449B00CF
:103730001960FEF7B9FB0546022393FAA3F293FA48
:10374000A3F293FAA3F2254A516A93FAA3F3B3FAC8
:1037500083F303F01F03012202FA03F30B4269D142
:10376000FEF7A2FB401B0228E6D90320CFE11B484D
:10377000036823F0F8036169F82292FAA2F2B2FA20
:1037800082F201FA02F213430360C1E7012393FAC4
:10379000A3F3B3FA83F303F1845303F584139B007B
:1037A00000221A60FEF780FB0546022393FAA3F37A
:1037B0000A4B1968022393FAA3F3B3FA83F303F0D5
:1037C0001F03012202FA03F30B42A1D0FEF76CFBA8
:1037D000401B0228E9D9032099E100BF00100240F4
:1037E00020819010012292FAA2F2B2FA82F2B74B33
:1037F00013449B0000221A60FEF756FB0546022385
:1038000093FAA3F293FAA3F293FAA3F2B04A516A9D
:1038100093FAA3F3B3FA83F303F01F03012202FA2E
:1038200003F30B4206D0FEF73FFB401B0228E6D90C
:1038300003206CE1236813F0040F00F0A980A44B6F
:10384000DB6913F0805F20D1A14BDA6942F080522E
:10385000DA61DB6903F080530193019B01259D4BE5
:103860001B6813F4807F12D0E368012B23D073BB55
:1038700003F1804303F504331A6A22F001021A624D
:103880001A6A22F004021A621AE00025E7E7914A58
:10389000136843F480731360FEF706FB06468D4BF6
:1038A0001B6813F4807FDFD1FEF7FEFA801B6428CB
:1038B000F5D903202BE1864A136A43F00103136212
:1038C000E368002B3CD0FEF7EFFA06462BE0052B11
:1038D00009D07F4B1A6A22F001021A621A6A22F09A
:1038E00004021A62ECE77A4B1A6A42F004021A6286
:1038F0001A6A42F001021A62E2E7754B196A022362
:1039000093FAA3F3B3FA83F303F01F03012202FA3D
:1039100003F319423BD1FEF7C7FA801B41F288330B
:10392000984200F2EF80022393FAA3F293FAA3F3F2
:10393000002BE2D1022393FAA3F3654B596ADEE729
:10394000FEF7B2FA064615E0614B196A022393FAB4
:10395000A3F3B3FA83F303F01F03012202FA03F384
:10396000194214D0FEF7A0FA801B41F28833984226
:1039700000F2CA80022393FAA3F293FAA3F3002B76
:10398000E2D1022393FAA3F3514B596ADEE7B5BBA8
:10399000E369002B00F0BA804D4A526802F00C0235
:1039A000082A00F09980022B2FD04FF0807393FAF1
:1039B000A3F3B3FA83F303F1845303F584139B0059
:1039C00000221A60FEF770FA04464FF0007393FA73
:1039D000A3F33F4B19684FF0007393FAA3F3B3FAC4
:1039E00083F303F01F03012202FA03F319426BD0A1
:1039F000FEF75AFA001B0228E7D9032087E0344A71
:103A0000D36923F08053D361C2E74FF0807393FAF8
:103A1000A3F3B3FA83F303F1845303F584139B00F8
:103A200000221A60FEF740FA05464FF0007393FA41
:103A3000A3F3274B19684FF0007393FAA3F3B3FA7B
:103A400083F303F01F03012202FA03F3194206D0A5
:103A5000FEF72AFA401B0228E7D9032057E01C4949
:103A60004B6823F47413626A206A024313434B6069
:103A70004FF0807393FAA3F3B3FA83F303F1845303
:103A800003F584139B0001221A60FEF70DFA044629
:103A90004FF0007393FAA3F30D4B19684FF00073C6
:103AA00093FAA3F3B3FA83F303F01F03012202FA9C
:103AB00003F3194206D1FEF7F7F9001B0228E7D9F4
:103AC000032024E0002022E0002020E0208190104C
:103AD0000010024000700040012B1AD0104B5B68B0
:103AE00003F48031226A914215D103F47013626AA3
:103AF000934212D100200AE001207047012006E025
:103B0000012004E0032002E0032000E0002002B0D6
:103B100070BD0120FBE70120F9E70120F7E700BFB6
:103B200000100240164B5B6803F00C02082A01D01B
:103B30001448704703F470114FF4701292FAA2F215
:103B4000B2FA82F221FA02F20F49885C0C4AD26A78
:103B500002F00F020F2191FAA1F1B1FA81F1CA40EE
:103B60000A498A5C13F4803F05D0064BB3FBF2F39D
:103B700003FB00F07047064B03FB00F0704700BFEB
:103B80000010024000127A003CC000084CC000083F
:103B900000093D00002800F0BE8070B50D460446C7
:103BA000614B1B6803F007038B420BD25E4A13681C
:103BB00023F007030B431360136803F007038B42E2
:103BC00040F0AB80236813F0020F06D0574A5368C9
:103BD00023F0F003A1680B435360236813F0010F37
:103BE0005AD06368012B2DD0022B40D0022292FACA
:103BF000A2F24E4A1068022292FAA2F2B2FA82F2BD
:103C000002F01F02012101FA02F2104200F0878047
:103C100046494A6822F0030213434B60FEF744F919
:103C20000646424B5B6803F00C036268B3EB820FFD
:103C300032D0FEF739F9801B41F288339842F0D92F
:103C4000032067E04FF4003292FAA2F2374A10687C
:103C50004FF4003292FAA2F2B2FA82F202F01F029C
:103C6000012101FA02F20242D2D1012052E04FF0CA
:103C7000007292FAA2F22D4A10684FF0007292FA86
:103C8000A2F2B2FA82F202F01F02012101FA02F25C
:103C90001042BDD101203DE0234B1B6803F0070318
:103CA000AB420AD9204A136823F007032B43136061
:103CB000136803F00703AB4233D1236813F0040FFA
:103CC00006D01A4A536823F4E063E1680B4353605B
:103CD000236813F0080F07D0144A536823F4605385
:103CE000216943EAC1035360FFF71CFF0F4B5B6878
:103CF00003F0F003F02292FAA2F2B2FA82F2D34079
:103D00000B4AD35CD8400B4B18600B4B1868FEF77E
:103D100087F8002070BD012070470120FAE70120DC
:103D2000F8E70120F6E700BF002002400010024043
:103D300024C000080000002008000020014B186883
:103D4000704700BF0000002008B5FFF7F7FF074BE2
:103D50005B6803F4E0634FF4E06292FAA2F2B2FA15
:103D600082F2D340024AD35CD84008BD0010024022
:103D700034C0000808B5FFF7E1FF074B5B6803F4A8
:103D800060534FF4605292FAA2F2B2FA82F2D34038
:103D9000024AD35CD84008BD0010024034C000087D
:103DA000F0B583B00446036813F4803F44D05C4B05
:103DB000DB6913F0805F6DD1594BDA6942F08052B4
:103DC000DA61DB6903F080530193019B0125554BB8
:103DD0001B6813F4807F5FD0514B1B6A13F4407350
:103DE00021D0626802F440729A421CD04C48016AA9
:103DF00021F440764FF4803393FAA3F2B2FA82F2C0
:103E0000494F3A4492004FF0010CC2F800C093FAB7
:103E1000A3F3B3FA83F33B449B0000221A600662CB
:103E200011F0010F4CD13E4A136A23F440736168CC
:103E30000B431362002D69D1236813F0010F06D0E4
:103E4000374A136B23F00303A1680B431363236802
:103E500013F0200F06D0324A136B23F01003E168F1
:103E60000B431363236813F0800F06D02C4AD36AE8
:103E700023F4F87321690B43D362236813F4805F42
:103E80004BD0274A136B23F4807361690B43136390
:103E9000002043E000259AE7224A136843F4807328
:103EA0001360FEF701F806461E4B1B6813F4807F73
:103EB00092D1FDF7F9FF801B6428F5D903202DE08E
:103EC000FDF7F2FF064614E0154B196A022393FA38
:103ED000A3F3B3FA83F303F01F03012202FA03F3FF
:103EE0000B42A0D1FDF7E0FF801B41F288339842DE
:103EF00011D8022393FAA3F293FAA3F3002BE3D190
:103F0000022393FAA3F3064B596ADFE7D36923F040
:103F10008053D36190E7032000E0002003B0F0BDA0
:103F200000100240007000400081901030B4036A1D
:103F300023F001030362036A4568826922F4803238
:103F400022F073020C68224323F002038C6823439F
:103F5000194CA0420BD004F5A054A04207D004F5A0
:103F60008064A04203D004F58064A04205D123F010
:103F70000803CC68234323F004030F4CA0420BD06A
:103F800004F5A054A04207D004F58064A04203D0F9
:103F900004F58064A04207D125F4407C4C6944EAD2
:103FA0000C0C8D6945EA0C05456082614A684263E4
:103FB000036230BC704700BF002C014030B4036A7C
:103FC00023F480730362036A4468C26922F4803276
:103FD00022F073020D682A4323F400738D6843EACC
:103FE0000523144DA8421DD0124DA8420BD005F553
:103FF000A055A84207D005F58065A84203D005F575
:104000008065A84207D124F440544D6944EA051460
:104010008D6944EA05144460C2614A68C263036260
:1040200030BC704723F40063CD6843EA052323F4D2
:104030008063D9E7002C014030B4036A23F4805335
:104040000362026A4468C36923F0807323F4E64381
:104050000D6843EA052322F400528D6842EA0532D6
:104060000D4DA8420BD005F5A055A84207D005F587
:104070008065A84203D005F58065A84204D124F4E8
:1040800080444D6944EA85144460C3614B6803640D
:10409000026230BC704700BF002C014030B4036A9C
:1040A00023F480330362036A4468426D22F4803251
:1040B00022F070020D682A4323F400338D6843EA2E
:1040C00005430D4DA8420BD005F5A055A84207D0D9
:1040D00005F58065A84203D005F58065A84204D1A6
:1040E00024F480344D6944EA0524446042654A68FA
:1040F0008265036230BC7047002C014030B4036A13
:1041000023F480130362026A4468436D23F08073D2
:1041100023F4E0430D6843EA052322F400128D687E
:1041200042EA05520D4DA8420BD005F5A055A84214
:1041300007D005F58065A84203D005F58065A84243
:1041400004D124F480244D6944EA85244460436505
:104150004B68C365026230BC704700BF002C014051
:1041600010B4036A046A24F001040462846924F030
:10417000F00C4CEA021223F00A030B438261036243
:104180005DF8044B704710B4046A24F01004046214
:104190008469036A24F4704C4CEA023223F0A003D1
:1041A00043EA0113826103625DF8044B7047836840
:1041B00023F070030B4343F0070383607047000054
:1041C00090F83D30DBB2012B2AD1022380F83D303C
:1041D0000268D36843F00103D3600368134A934233
:1041E00010D0B3F1804F0DD0A2F59432934209D094
:1041F00002F59E32934205D01A6842F001021A601D
:104200000020704799680A4A0A40062A0AD0B2F587
:10421000803F09D01A6842F001021A6000207047FE
:10422000012070470020704700207047002C01409B
:10423000070001007047704770477047704770472C
:1042400010B5044603681A6912F0020F11D0DA683B
:1042500012F0020F0DD06FF002021A6101230377F2
:1042600003689B6913F0030F79D0FFF7E6FF002383
:10427000237723681A6912F0040F12D0DA6812F05B
:10428000040F0ED06FF004021A6102232377236813
:104290009B6913F4407F68D02046FFF7CEFF0023D0
:1042A000237723681A6912F0080F12D0DA6812F027
:1042B000080F0ED06FF008021A61042323772368D9
:1042C000DB6913F0030F57D02046FFF7B6FF00233A
:1042D000237723681A6912F0100F12D0DA6812F0EF
:1042E000100F0ED06FF010021A6108232377236895
:1042F000DB6913F4407F46D02046FFF79EFF002382
:10430000237723681A6912F0010F03D0DA6812F0DC
:10431000010F3FD123681A6912F0800F03D0DA68C9
:1043200012F0800F3DD123681A6912F4807F03D008
:10433000DA6812F0800F3BD123681A6912F0400F3F
:1043400003D0DA6812F0400F39D123681A6912F0ED
:10435000200F03D0DA6812F0200F37D110BDFFF71D
:104360006BFF2046FFF76AFF81E72046FFF764FFF7
:104370002046FFF763FF92E72046FFF75DFF2046E8
:10438000FFF75CFFA3E72046FFF756FF2046FFF745
:1043900055FFB4E76FF001021A612046FFF74BFFAB
:1043A000B8E76FF080021A61204600F07EFBBAE7A2
:1043B0006FF480721A61204600F078FBBCE76FF062
:1043C00040021A612046FFF73AFFBEE76FF0200275
:1043D0001A61204600F068FBC0E700000368224A2B
:1043E000904206D0B0F1804F03D0A2F594329042B3
:1043F00003D123F070034A6813431B4A904212D042
:10440000B0F1804F0FD0A2F5943290420BD002F55C
:104410009E32904207D002F58062904203D002F5AE
:104420008062904203D123F44073CA68134323F09F
:1044300080034A69134303608B68C3620B6883621D
:10444000094B98420BD003F5A053984207D003F5CF
:104450008063984203D003F58063984201D10B69D1
:104460000363012343617047002C014060B310B522
:10447000044690F83D3013B3022384F83D302146C2
:1044800051F8040BFFF7AAFF012384F8483084F8A1
:104490003E3084F83F3084F8403084F8413084F86E
:1044A000423084F8433084F8443084F8453084F84E
:1044B000463084F8473084F83D30002010BD80F845
:1044C0003C30FDF77FFBD7E70120704760B310B5A4
:1044D000044690F83D3013B3022384F83D30214662
:1044E00051F8040BFFF77AFF012384F8483084F871
:1044F0003E3084F83F3084F8403084F8413084F80E
:10450000423084F8433084F8443084F8453084F8ED
:10451000463084F8473084F83D30002010BD80F8E4
:104520003C30FFF787FED7E70120704730B4036ABD
:1045300023F010030362036A4468826922F08072E8
:1045400022F4E6420D6842EA052223F020038D683A
:1045500043EA0513144DA8421DD0134DA8420BD0B9
:1045600005F5A055A84207D005F58065A84203D0FF
:1045700005F58065A84207D124F440644D6944EAFA
:1045800085048D6944EA8504446082614A688263D7
:10459000036230BC704723F08003CD6843EA051303
:1045A00023F04003D9E700BF002C014038B590F854
:1045B0003C30012B00F0958004460D46012380F825
:1045C0003C30142A00F28880DFE802F00B868686F1
:1045D0001F86868634868686488686865D8686869B
:1045E00071000068FFF7A2FC2268936943F008039A
:1045F00093612268936923F00403936122689369AD
:1046000029690B439361002067E00068FFF78EFF84
:104610002268936943F4006393612268936923F4E9
:104620008063936122689369296943EA0123936156
:10463000002052E00068FFF7C1FC2268D36943F014
:104640000803D3612268D36923F00403D36122688D
:10465000D36929690B43D36100203EE00068FFF76E
:10466000EBFC2268D36943F40063D3612268D36909
:1046700023F48063D3612268D369296943EA012363
:10468000D361002029E00068FFF708FD2268536D20
:1046900043F0080353652268536D23F00403536508
:1046A0002268536D29690B435365002015E00068AB
:1046B000FFF724FD2268536D43F4006353652268BD
:1046C000536D23F4806353652268536D296943EA6F
:1046D00001235365002000E00120002384F83C30D2
:1046E00038BD0220FCE710B4846824F47F4C42EA11
:1046F00003220A4342EA0C0282605DF8044B7047D1
:1047000090F83C30012B76D010B50446012380F898
:104710003C30022380F83D3002689068374B0340FC
:1047200093600B68602B4CD029D8402B54D00CD907
:10473000502B22D1CA6849682068FFF711FD50212B
:104740002068FFF734FD002005E0202B0DD009D9AB
:10475000302B0AD00120012384F83D30002384F857
:104760003C3010BD0BB1102B05D119462068FFF766
:104770001EFD0020EFE70120EDE70120EBE7B3F598
:10478000805F34D0B3F5005F0CD1CB684A6889688C
:104790002068FFF7A8FF2268936843F48043936082
:1047A0000020D8E7702B24D1CB684A68896820683C
:1047B000FFF799FF2268936843F077039360002026
:1047C000C9E7CA6849682068FFF7DDFC60212068F6
:1047D000FFF7EDFC0020BEE7CA6849682068FFF7D4
:1047E000BFFC40212068FFF7E2FC0020B3E7002077
:1047F000B1E70120AFE70220704700BF8800FEFF4D
:1048000001F01F01012303FA01FC036A23EA0C03F0
:104810000362036A02FA01F10B430362704700006E
:1048200010B504460846C9B994F83E30DBB2013BE6
:1048300018BF0123002B40F0AB80002839D10223A0
:1048400084F83E300C2800F2A580DFE800F04EA38B
:10485000A3A381A3A3A387A3A3A38D0004290CD0A2
:10486000082911D00C2916D010291BD094F84330F8
:10487000DBB2013B18BF0123DCE794F83F30DBB229
:10488000013B18BF0123D5E794F84030DBB2013B70
:1048900018BF0123CEE794F84130DBB2013B18BFCB
:1048A0000123C7E794F84230DBB2013B18BF012374
:1048B000C0E7042809D008280BD00C280DD01028F8
:1048C0000FD0022384F84330BCE7022384F83F3042
:1048D000B8E7022384F84030B4E7022384F841307B
:1048E000B0E7022384F84230ACE72268D36843F093
:1048F0000203D360012201462068FFF781FF23688D
:10490000274A93420BD002F5A052934207D002F5FA
:104910008062934203D002F58062934203D15A6CC5
:1049200042F400425A6423681D4A934222D0B3F1F4
:10493000804F1FD0A2F5943293421BD002F59E32D5
:10494000934217D01A6842F001021A60002022E058
:104950002268D36843F00403D360CBE72268D368AE
:1049600043F00803D360C5E72268D36843F010031F
:10497000D360BFE799680B4A0A40062A0CD0B2F50B
:10498000803F0BD01A6842F001021A60002002E05A
:10499000012000E0012010BD0020FCE70020FAE724
:1049A000002C01400700010090F83C30012B33D06F
:1049B00030B4012380F83C30022380F83D30026897
:1049C00053689468154DAA4221D023F070030D68F6
:1049D0002B4353600368114A93420AD0B3F1804FCE
:1049E00007D0A2F59432934203D002F59E3293424F
:1049F00004D124F080048A6814439C60012380F869
:104A00003D30002380F83C30184630BC704723F41A
:104A100070034D682B43D8E702207047002C0140FB
:104A200090F83C30012B3BD010B4012380F83C308F
:104A3000CB6823F440738A68134323F480634A6885
:104A4000134323F400630A68134323F480530A6971
:104A5000134323F400534A69134323F480438A6ABF
:104A6000134323F470238A6943EA024302680D4C1E
:104A7000A24207D05364002380F83C3018465DF80A
:104A8000044B704723F470034C6A43EA045323F049
:104A90008073CC69234323F00073096A0B43E9E771
:104AA00002207047002C014070477047704700009B
:104AB00010B5044683680269134342691343C2690F
:104AC0001343016808684E4A024013430B60226892
:104AD000536823F44053E1680B435360A269236A8F
:104AE0001A4321688B6823F4306313438B60236877
:104AF000444A934214D0444A934227D002F580623C
:104B000093421FD01023E069B0F5004F20D0082B4E
:104B100070D8DFE803F04A60486F636F6F6F66001C
:104B20003A4B1B6B03F00303032B09D8DFE803F0B8
:104B30000204060C0023E6E70423E4E70823E2E787
:104B40001023E0E70023DEE70223DCE70023DAE7B7
:104B5000082B49D8DFE803F0051F254822484848BC
:104B60000900FFF7F1F8002840D06268530803EB12
:104B70004000B0FBF2F080B2A0F110024FF6EF73EC
:104B80009A4235D820F00F03C0F34200184323683F
:104B9000D86000201BE0FFF7EDF8E4E7FEF7C2FF66
:104BA000E1E71B48E1E71A4802E0FFF7CDF818B348
:104BB000636800EB5300B0FBF3F080B2A0F1100289
:104BC0004FF6EF739A4219D82368D860002000236B
:104BD0006366A36610BDFFF7CDF8E8E7FEF7A2FF16
:104BE000E5E74FF40040E3E70120F0E70020EEE7BF
:104BF0000120ECE70120EAE70020E8E70120E6E7F2
:104C0000F369FFEF0038014000440040001002400B
:104C100000127A00436A13F0010F06D0026853684D
:104C200023F40033816A0B435360436A13F0020F8D
:104C300006D00268536823F48033C16A0B43536083
:104C4000436A13F0040F06D00268536823F48023EC
:104C5000016B0B435360436A13F0080F06D00268E0
:104C6000536823F40043416B0B435360436A13F0D2
:104C7000100F06D00268936823F48053816B0B43B6
:104C80009360436A13F0200F06D00268936823F400
:104C90000053C16B0B439360436A13F0400F0AD07B
:104CA0000268536823F48013016C0B435360036C58
:104CB000B3F5801F0BD0436A13F0800F06D0026853
:104CC000536823F40023816C0B43536070470268E0
:104CD000536823F4C003416C0B435360EBE72DE9A9
:104CE000F84305460F4616469946DDF820802C68A5
:104CF000E46937EA04030CBF4FF0010C4FF0000CDD
:104D0000B44553D1B8F1FF3FF1D0FDF7CDF8A0EB9A
:104D1000090040452DD8B8F1000F2AD02B681A6839
:104D200012F0040FE3D0DA6912F4006FDFD04FF411
:104D300000621A622A6852E8003F23F4D07342E806
:104D400000310029F6D12A6802F1080353E8003F38
:104D500023F00103083242E800310029F3D1202377
:104D6000AB67EB67C5F88030002385F8743003200B
:104D70001DE02A6852E8003F23F4D07342E8003176
:104D80000029F6D12A6802F1080353E8003F23F016
:104D90000103083242E800310029F3D12023AB6738
:104DA000EB67002385F87430032000E00020BDE8A5
:104DB000F8832DE9F04182B01E46836F202B56D137
:104DC00004460D469046002955D0002A55D090F84B
:104DD0007430012B53D0012380F874300023C0F8C5
:104DE000803021238367FDF75FF80746A4F85080E1
:104DF000A4F85280A368B3F5805F05D04FF0000897
:104E0000002384F8743014E0236913B14FF00008D4
:104E1000F6E7A8460025F3E738F8023B2268C3F31B
:104E200008031385B4F8522092B2013A92B2A4F862
:104E30005220B4F852309BB273B100963B46002228
:104E400080212046FFF74BFFD8B9002DE4D023681E
:104E500015F8012B1A85E5E700963B460022402114
:104E60002046FFF73CFF70B92023A36700E0022033
:104E700002B0BDE8F0810120FAE70120F8E7022046
:104E8000F6E70320F4E70320F2E730B583B00446E9
:104E90000023C0F88030FDF707F805462268126845
:104EA00012F0080F0DD123681B6813F0040F16D100
:104EB0002023A367E3670020206684F8740003B012
:104EC00030BD6FF07E430093034600224FF4001183
:104ED0002046FFF704FF0028E5D00320EFE76FF03E
:104EE0007E4300932B4600224FF480012046FFF7BB
:104EF000F6FE0028DCD00320E1E768B310B50446D5
:104F0000836F03B32423A3672268136823F001038C
:104F100013602046FFF7CCFD012813D0636ABBB9AC
:104F20002268536823F4904353602268936823F007
:104F30002A0393602268136843F00103136020463C
:104F4000FFF7A3FF10BD80F87430FCF791FED9E79E
:104F50002046FFF75FFEE3E701207047DFF834D01B
:104F60000D480E490E4A002302E0D458C4500433C1
:104F7000C4188C42F9D30B4A0B4C002301E0136098
:104F80000432A242FBD3FCF741FF00F017F8FCF714
:104F900001FDFEE70030002000000020B8090020DD
:104FA000F8C60008B8090020F40B0020FEE7000056
:104FB000014B1868704700BF0C00002070B50D4E03
:104FC0000D4D761BB61006D0002455F8043B013475
:104FD0009847A642F9D1094E094D761B06F0FAFF13
:104FE000B61006D0002455F8043B01349847A64279
:104FF000F9D170BDECC60008ECC60008F4C6000884
:10500000ECC60008830730B548D0541E002A3FD0B4
:10501000CAB2034601E0013C3AD303F8012B9D07D5
:10502000F9D1032C2DD9CDB245EA05250F2C45EA3F
:10503000054536D9A4F1100222F00F0C03F1200E21
:10504000E6444FEA121C03F1100242E9045542E91A
:10505000025510327245F8D10CF1010214F00C0F18
:1050600003EB021204F00F0C13D0ACF1040323F095
:1050700003030433134442F8045B9342FBD10CF066
:1050800003042CB1CAB21C4403F8012B9C42FBD18F
:1050900030BD64461346002CF4D1F9E703461446AC
:1050A000BFE71A46A446E0E70CB410B51F4B002931
:1050B0001C689CB035DB4FF40273ADF814300290DD
:1050C00006901FAB18D001394FF6FF72049107917B
:1050D000ADF8162002A91E9A0193204600F028F888
:1050E000421C01DA8B232360029B00221A701CB041
:1050F000BDE8104002B070474FF6FF72049107916F
:10510000ADF8162002A91E9A0193204600F010F86F
:10511000431C01DA8B2323601CB0BDE8104002B0B1
:1051200070478B2323604FF0FF30F5E70C00002021
:105130002DE9F04F2DED0A8BCFB00C4691460AEECB
:10514000101A09930AEE900A02F000FF0368139305
:105150001846FBF735F9A38912901A0603D523697F
:10516000002B00F0A0874D469FEDA57B2B780024F7
:1051700025AACDE92344CDE91544CDE917448DEDA9
:10518000107B1AEE909A0E942292904614940594F5
:10519000002B00F0EC81AB4604E01BF8013F002B34
:1051A00000F01A81252BF8D1BBEB050640F01881E1
:1051B0009BF80030002B00F0DA8100234FF0FF3223
:1051C0009BF801708DF86B3006930BF1010B049284
:1051D0009A462B2420210BF1010BA7F120035A2B17
:1051E00000F23C81DFE813F0D5023A013A01D00227
:1051F0003A013A013A016A003A013A016502FE02B7
:105200003A017002E4023A01DF025B005B005B00DE
:105210005B005B005B005B005B005B003A013A01F6
:105220003A013A013A013A013A01D2013A01360211
:105230008500D201D201D2013A013A013A013A0184
:10524000CB023A013A01C6003A013A013A01400262
:105250003A0175023A013A014F073A013A013A011F
:105260003A013A013A013A013A01D2013A013602D1
:105270008700D201D201D201BE02870080003A012C
:10528000B1023A019902C800870280003A01400247
:105290007D002A073A013A012E073A017D00A7F165
:1052A000300300221BF8017B02EB820203EB420277
:1052B000A7F13003092BF5D906928EE7484602F094
:1052C00045FE436817931846FBF77AF81890064690
:1052D000484602F03BFE836815932021002E40F0E3
:1052E000C2859BF8007076E79BF800704AF0200AB0
:1052F00071E74AF0100A1AF0200F099B00F09A811A
:10530000073323F007031A465B6852F8084B0992EB
:105310001E46002BC0F26B85049B013301F03A80DE
:105320002AF08003039354EA060300F0E7840A2C72
:1053300076F1000380F0908730340123DDF80CA073
:105340008DF8374107930DF23715049907989DF8AA
:105350006B3081424FF00002B8BF014608920391C2
:105360000C920F920D92002B00F08980039A01326B
:10537000039284E04AF0100A1AF0200600F04B81F4
:10538000099B073323F007035E6853F8084B099322
:105390002AF480630393002300228DF86B20049A83
:1053A000551C00F02682039921F0800A54EA060178
:1053B00040F01D82002A41F02980002B40F0A48497
:1053C000039B13F00103079300F0428530238DF80F
:1053D00037310DF23715B8E7BBEB050600F0C78093
:1053E000249B33442493239B0133072BC8E90056A5
:1053F000239309DC08F10808059B33440593D7E69D
:1054000000000000000000001AEE101A22AA484610
:1054100003F0B2FC90B90DF19408EDE71AEE101A02
:1054200022AA484603F0A8FC002800F09180089BBF
:1054300023B108991AEE900A02F082FC1AEE103A93
:105440009B8913F0400F059B18BF4FF0FF33059366
:1054500005984FB0BDEC0A8BBDE8F08F002F00F02F
:10546000868000238DF8D4708DF86B300122CDE951
:105470000723039204930C930F930D9335AD1AF009
:1054800002020A9202D0039A023203921AF08402B4
:105490000B9205D1069A0399561A002E00F30D833C
:1054A000249C8BB1239B0DF16B0201330134C8F8AE
:1054B0000020072B4FF0010224942393C8F8042006
:1054C00000F3338308F108080A9B83B1239B1BAACE
:1054D00001330234C8F80020072B4FF00202249455
:1054E0002393C8F8042000F32D8308F108080B9BD0
:1054F000802B00F00F82049B079A9E1A002E00F367
:1055000050821AF4807F40F0AB81079BC8F80430CA
:105510001C44239BC8F800500133072B2494239389
:1055200000F3BE8208F108081AF0040F05D0069BAC
:10553000039A9D1A002D00F31283DDE905320399C9
:105540008A42ACBF9B185B180593002C7FF466AFB2
:1055500000232393089B1BB10899484602F0F0FBF7
:105560000DF194085D462B78002B7FF414AE249B3C
:10557000002B3FF463AF1AEE104A1AEE101A1AEE1F
:10558000900A22AA03F0F8FBA3895AE7099B073384
:1055900023F00703B3EC027B8DED107BDDE91012E5
:1055A000099322F000430BEE101A0BEE903A4FF0E5
:1055B000FF32B0EE4B9AF0EE6B9AA54B51EC190B03
:1055C000FBF7C2FB002840F06784A14B51EC190B9C
:1055D0004FF0FF32FBF79AFB002840F05D84DDE9D5
:1055E000100100220023FBF787FB002840F0A5876D
:1055F0009DF86B30974D984A2AF0800A0321472F77
:10560000C8BF1546002208920391079104920C929C
:105610000F920D92A7E61AF0100340F033841AF0AF
:10562000400200F05B87099A52F8044B09921E462B
:10563000A4B2ADE653F8044B09931AF0100F40F0F2
:105640000E841AF0400F00F0068444F3C03633464F
:1056500024B25EE6099A002352F8041B8DF86B30E1
:105660008DF8D410099201E7099C54F8045B0026D8
:105670008DF86B60002D00F0D986049B5A1C00F059
:1056800046851A4631462846FAF79AFD08900028C2
:1056900001F07A80089B0496591B079121EAE17179
:1056A0009DF86B300994039108960C960F960D9611
:1056B00059E6099B53F8042B0692002A80F2C38313
:1056C000069A0993524206929BF800704AF0040A27
:1056D00081E54AF010030393039B13F0200600F0CA
:1056E0007383099B073323F007035E6853F8084B65
:1056F0000993012350E6099B53F8044B0993302387
:105700004AF0020278278DF86C30544B14930392C0
:105710008DF86D70002602233EE61AF0200F40F04F
:1057200082841AF0100F40F078861AF0400F40F093
:105730004C871AF4007F00F07086099B059953F896
:10574000042B099311705D460DE79BF800706C2FD8
:1057500003BF9BF801704AF0200A0BF1010B4AF0DD
:10576000100A38E59BF80070682F03BF9BF80170A2
:105770004AF4007A0BF1010B4AF0400A2BE59BF842
:1057800000704AF0080A26E59BF800704AF0010A0A
:1057900021E59DF86B30002B7FF4A3AD9BF80070E2
:1057A0008DF86B1017E59BF800704AF0800A12E53F
:1057B0005A4612F8017B2A2F01F0F381A7F130033A
:1057C000092B934698BF002200F2F4871BF8017B57
:1057D00002EB820203EB4202A7F13003092BF5D959
:1057E0000492FAE49BF800708DF86B40F3E4CDF876
:1057F0000CA0012B3FF49BAD022B4EAD12D1149A9D
:1058000004F00F032409D35C05F8013D44EA067453
:10581000360954EA0603F3D14EAB5B1BDDF80CA04E
:10582000079392E504F00703E40844EA4674F60897
:10583000303354EA06012A4605F8013DF2D10399B6
:10584000C80700F14C824EAB5B1B8A4607937CE590
:10585000FFFFEF7F60C0000864C0000870C0000850
:10586000652F40F3D780DDE9100100220023FBF70C
:1058700039FA002800F0B481239BBC4AC8F8002004
:10588000013301340122072B24942393C8F8042008
:1058900000F3848508F108081C9B0E9A934280F25D
:1058A000CD82129B139A1C44C8E90023239B2494A5
:1058B0000133072B239300F3E98308F108080E9BBB
:1058C0005D1E002D7FF730AE102D239B41F34781E5
:1058D000A74F0A97224610261AEE104A05E008F153
:1058E0000808103D102D40F3678501331032072B57
:1058F000C8E90076CDE92332F1DD22AA21464846E7
:1059000003F03AFA00287FF492ADDDE923320DF17D
:105910009408E6E7069B039A9E1A002E7FF7EBADEC
:10592000102E239B41F34F8091490B9522461AEE8E
:10593000105A0A910C4604E0103E102E08F1080897
:1059400019DD013310321021072BCDE92332C8F8BD
:105950000040C8F80410EFDD22AA294648460DF1A0
:10596000940803F009FA00287FF461AD103E102E70
:10597000DDE92332E5DC0B9D144601330A9AC8F8B1
:1059800000203444072BCDE92334C8F8046000F329
:105990002F85049B079A9E1A002E08F108087FF7AE
:1059A000B0AD102E239B40F3C48571480A90214668
:1059B000424604461AEE108A04E0103E102E02F110
:1059C000080216DD013310311020072BCDE92331F9
:1059D00014605060F1DD22AA4146484603F0CCF93C
:1059E00000287FF424AD103E102EDDE9233125AAD6
:1059F000E8DC0C46904601330A9AC8F8002034448B
:105A0000072BCDE92334C8F8046000F3CF8108F1F7
:105A1000080876E50E9B012B40F37C81239EC8F895
:105A20000050013601340123072E24942396C8F830
:105A3000043000F3E78108F10808129B139A01363D
:105A40001C44072EC8E90023CDE9236400F3E88154
:105A500008F10808DDE9100100220023FBF742F9F4
:105A6000002840F076810E9B0136013B01351C4435
:105A7000072EC8F800502396C8F80430249400F389
:105A80005A8108F10808169BC8F8043001361C44F6
:105A9000072E1EABCDE92364C8F800307FF742AD76
:105AA0001AEE101A22AA484603F066F900287FF47D
:105AB000BEAC249C0DF1940836E5102EDDE92332AE
:105AC00022DD199510241AEE105A04E0103E102E13
:105AD00008F1080817DD013326491032072BC8E901
:105AE0000014CDE92332F1DD22AA294648460DF102
:105AF000940803F041F900287FF499AC103E102E71
:105B0000DDE92332E7DC199DC8F804600133B418DD
