:020000040800F2
:10000000003000205D3E0008691C00086B1C0008E1
:100010006D1C00086F1C0008711C00080000000027
:10002000000000000000000000000000731C000839
:10003000751C000800000000771C0008791C0008EF
:10004000AD3E0008AD3E0008AD3E0008AD3E0008E4
:10005000AD3E0008AD3E0008811C0008AD3E000822
:10006000AD3E0008AD3E0008AD3E0008AD3E0008C4
:10007000AD3E0008AD3E0008AD3E0008AD3E0008B4
:10008000AD3E0008AD3E0008AD3E0008AD3E0008A4
:10009000AD3E0008AD3E0008AD3E0008AD3E000894
:1000A000AD3E0008B91C0008AD3E0008AD3E00089A
:1000B000AD3E0008AD3E000800000000AD3E000867
:1000C000AD3E00080000000000000000AD3E00084A
:1000D00000000000AD3E0008AD3E0008AD3E000847
:1000E000AD3E0008AD3E000800000000000000002A
:1000F0000000000000000000000000000000000000
:1001000000000000000000000000000000000000EF
:100110000000000000000000AD3E0008AD3E0008F9
:1001200000000000000000000000000000000000CF
:1001300000000000000000000000000000000000BF
:10014000AD3E0008AD3E00080000000000000000C9
:10015000000000000000000000000000000000009F
:10016000000000000000000000000000000000008F
:10017000000000000000000000000000000000007F
:0801800000000000AD3E000884
:1001900001F0FF01102A2BDB10F0070F08D010F838
:1001A000013B013A8B422DD010F0070F42B3F6D13C
:1001B000F0B441EA012141EA014122F007047FF055
:1001C00000070023F0E80256083C85EA010586EAAC
:1001D000010685FA47F5A3FA87F586FA47F6A5FAE8
:1001E00087F68EB9EED1F0BC01F0FF0102F00702F4
:1001F00032B110F8013B013A83EA010313B1F8D19F
:100200000020704701387047002D06BF354603387F
:10021000073815F0010F07D1013015F4807F02BFB8
:10022000013015F4C03F0130F0BC0138704700BF09
:1002300081F0004102E000BF83F0004330B54FEA97
:1002400041044FEA430594EA050F08BF90EA020F04
:100250001FBF54EA000C55EA020C7FEA645C7FEA97
:10026000655C00F0E2804FEA5454D4EB5555B8BFBA
:100270006D420CDD2C4480EA020281EA030382EA2B
:10028000000083EA010180EA020281EA0303362DBD
:1002900088BF30BD11F0004F4FEA01314FF4801C90
:1002A0004CEA113102D0404261EB410113F0004FA2
:1002B0004FEA03334CEA133302D0524263EB430359
:1002C00094EA050F00F0A780A4F10104D5F1200EF7
:1002D0000DDB02FA0EFC22FA05F2801841F1000152
:1002E00003FA0EF2801843FA05F359410EE0A5F126
:1002F00020050EF1200E012A03FA0EFC28BF4CF057
:10030000020C43FA05F3C01851EBE37101F000450C
:1003100007D54FF0000EDCF1000C7EEB00006EEB19
:100320000101B1F5801F1BD3B1F5001F0CD34908A3
:100330005FEA30004FEA3C0C04F101044FEA4452FA
:1003400012F5800F80F09A80BCF1004F08BF5FEA81
:10035000500C50F1000041EB045141EA050130BD61
:100360005FEA4C0C404141EB0101013C28BFB1F573
:10037000801FE9D291F0000F04BF01460020B1FABE
:1003800081F308BF2033A3F10B03B3F120020CDA91
:100390000C3208DD02F1140CC2F10C0201FA0CF06F
:1003A00021FA02F10CE002F11402D8BFC2F1200CD4
:1003B00001FA02F120FA0CFCDCBF41EA0C0190408A
:1003C000E41AA2BF01EB0451294330BD6FEA0404D3
:1003D0001F3C1CDA0C340EDC04F11404C4F12002BE
:1003E00020FA04F001FA02F340EA030021FA04F3D0
:1003F00045EA030130BDC4F10C04C4F1200220FA27
:1004000002F001FA04F340EA0300294630BD21FA64
:1004100004F0294630BD94F0000F83F4801306BF2A
:1004200081F480110134013D4EE77FEA645C18BF1E
:100430007FEA655C29D094EA050F08BF90EA020FB5
:1004400005D054EA000C04BF1946104630BD91EAAD
:10045000030F1EBF0021002030BD5FEA545C05D1B0
:100460004000494128BF41F0004130BD14F58004EF
:100470003CBF01F5801130BD01F0004545F0FE4163
:1004800041F470014FF0000030BD7FEA645C1ABF98
:10049000194610467FEA655C1CBF0B46024650EACF
:1004A000013406BF52EA033591EA030F41F40021FB
:1004B00030BD00BF90F0000F04BF0021704730B581
:1004C0004FF4806404F132044FF000054FF0000156
:1004D00050E700BF90F0000F04BF0021704730B517
:1004E0004FF4806404F1320410F0004548BF4042EC
:1004F0004FF000013EE700BF42004FEAE2014FEA41
:1005000031014FEA02701FBF12F07F4393F07F4F1B
:1005100081F06051704732F07F4208BF704793F01E
:100520007F4F04BF41F40021704730B54FF4607431
:1005300001F0004521F000411CE700BF50EA010234
:1005400008BF704730B54FF000050AE050EA0102DD
:1005500008BF704730B511F0004502D5404261EB4D
:1005600041014FF4806404F132045FEA915C3FF48E
:10057000D8AE4FF003025FEADC0C18BF03325FEA2B
:10058000DC0C18BF033202EBDC02C2F1200300FADC
:1005900003FC20FA02F001FA03FE40EA0E0021FA01
:1005A00002F11444BDE600BF70B54FF0FF0C4CF4EF
:1005B000E06C1CEA11541DBF1CEA135594EA0C0FA1
:1005C00095EA0C0F00F0DEF82C4481EA030621EADC
:1005D0004C5123EA4C5350EA013518BF52EA033517
:1005E00041F4801143F4801338D0A0FB02CE4FF0C9
:1005F0000005E1FB02E506F00042E0FB03E54FF0F9
:100600000006E1FB03569CF0000F18BF4EF0010EF0
:10061000A4F1FF04B6F5007F64F5407404D25FEAEC
:100620004E0E6D4146EB060642EAC62141EA55519F
:100630004FEAC52040EA5E504FEACE2EB4F1FD0CE1
:1006400088BFBCF5E06F1ED8BEF1004F08BF5FEA5F
:10065000500E50F1000041EB045170BD06F0004611
:1006600046EA010140EA020081EA0301B4EB5C04BE
:10067000C2BFD4EB0C0541EA045170BD41F48011B6
:100680004FF0000E013C00F3AB8014F1360FDEBFDB
:10069000002001F0004170BDC4F10004203C35DAB7
:1006A0000C341BDC04F11404C4F1200500FA05F33A
:1006B00020FA04F001FA05F240EA020001F00042DB
:1006C00021F0004110EBD37021FA04F642EB060151
:1006D0005EEA430E08BF20EAD37070BDC4F10C047B
:1006E000C4F1200500FA04F320FA05F001FA04F23F
:1006F00040EA020001F0004110EBD37041F100012B
:100700005EEA430E08BF20EAD37070BDC4F1200535
:1007100000FA05F24EEA020E20FA04F301FA05F29D
:1007200043EA020321FA04F001F0004121FA04F245
:1007300020EA020000EBD3705EEA430E08BF20EA15
:10074000D37070BD94F0000F0FD101F0004640004F
:1007500041EB010111F4801F08BF013CF7D041EAD1
:10076000060195F0000F18BF704703F000465200D5
:1007700043EB030313F4801F08BF013DF7D043EAA6
:100780000603704794EA0C0F0CEA135518BF95EA5C
:100790000C0F0CD050EA410618BF52EA4306D1D1E3
:1007A00081EA030101F000414FF0000070BD50EA02
:1007B000410606BF1046194652EA430619D094EA8C
:1007C0000C0F02D150EA013613D195EA0C0F05D176
:1007D00052EA03361CBF104619460AD181EA0301CA
:1007E00001F0004141F0FE4141F470014FF0000082
:1007F00070BD41F0FE4141F4780170BD70B54FF01D
:10080000FF0C4CF4E06C1CEA11541DBF1CEA13559C
:1008100094EA0C0F95EA0C0F00F0A7F8A4EB05047E
:1008200081EA030E52EA03354FEA013100F0888075
:100830004FEA03334FF0805545EA131343EA12633E
:100840004FEA022245EA111545EA10654FEA0026F3
:100850000EF000419D4208BF964244F1FD0404F5AC
:10086000407402D25B084FEA3202B61A65EB030508
:100870005B084FEA32024FF480104FF4002CB6EBC5
:10088000020E75EB030E22BFB61A754640EA0C0045
:100890005B084FEA3202B6EB020E75EB030E22BF85
:1008A000B61A754640EA5C005B084FEA3202B6EBC6
:1008B000020E75EB030E22BFB61A754640EA9C0085
:1008C0005B084FEA3202B6EB020E75EB030E22BF55
:1008D000B61A754640EADC0055EA060E18D04FEA13
:1008E000051545EA16754FEA06164FEAC30343EAB3
:1008F00052734FEAC2025FEA1C1CC0D111F4801F80
:100900000BD141EA00014FF000004FF0004CB6E778
:1009100011F4801F04BF01430020B4F1FD0C88BF17
:10092000BCF5E06F3FF6AFAEB5EB030C04BFB6EB22
:10093000020C5FEA500C50F1000041EB045170BD15
:100940000EF0004E4EEA113114EB5C04C2BFD4EB42
:100950000C0541EA045170BD41F480114FF0000EC6
:10096000013C90E645EA060E8DE60CEA135594EA42
:100970000C0F08BF95EA0C0F3FF43BAF94EA0C0F45
:100980000AD150EA01347FF434AF95EA0C0F7FF4BA
:1009900025AF104619462CE795EA0C0F06D152EA0E
:1009A00003353FF4FDAE1046194622E750EA4106F2
:1009B00018BF52EA43067FF4C5AE50EA41047FF403
:1009C0000DAF52EA43057FF4EBAE12E74FF0FF3C68
:1009D00006E000BF4FF0010C02E000BF4FF0010C39
:1009E0004DF804CD4FEA410C7FEA6C5C4FEA430CB2
:1009F00018BF7FEA6C5C1BD001B050EA410C0CBF01
:100A000052EA430C91EA030F02BF90EA020F002062
:100A1000704710F1000F91EA030F58BF994208BFC9
:100A200090422CBFD8176FEAE37040F00100704786
:100A30004FEA410C7FEA6C5C02D150EA013C07D1DD
:100A40004FEA430C7FEA6C5CD6D152EA033CD3D028
:100A50005DF8040B704700BF8446104662468C4622
:100A60001946634600E000BF01B5FFF7B7FF002855
:100A700048BF10F1000F01BD4DF808EDFFF7F4FF7E
:100A80000CBF012000205DF808FB00BF4DF808ED09
:100A9000FFF7EAFF34BF012000205DF808FB00BF2C
:100AA0004DF808EDFFF7E0FF94BF012000205DF84E
:100AB00008FB00BF4DF808EDFFF7CEFF94BF012003
:100AC00000205DF808FB00BF4DF808EDFFF7C4FFFC
:100AD00034BF012000205DF808FB00BF4A0011D29E
:100AE00012F5001211D20DD56FF47873B3EB625288
:100AF0000ED44FEAC12343F0004343EA505323FA94
:100B000002F070474FF00000704750EA013002D108
:100B10004FF0FF3070474FF00000704710B5054CA4
:100B2000237833B9044B13B10448AFF30080012399
:100B3000237010BD7000002000000000E047000896
:100B400008B5034B1BB103490348AFF3008008BD50
:100B50000000000074000020E047000838B513468C
:100B6000054A14682CB1E5680A460146607AA84730
:100B700038BD6FF07E00FBE78C00002070B582B0BE
:100B8000044600238DF80730124B1868E0B1056960
:100B900001230DF107020721407AA8470546B0B9A5
:100BA0008DF807400B4B1868C66801230DF107024A
:100BB0000721407AB04755FA80F358B210B9054B77
:100BC0001B681C7102B070BD6FF07E00FAE74FF039
:100BD000FF30F7E78C00002030B583B004461D4B92
:100BE00093E803000090ADF804101B4B1B6853B34F
:100BF0001B7913BB184B1B681B793BBB164B186842
:100C0000056906236A461A21407AA8479DF9012002
:100C10009DF8003043EA022323809DF903209DF8CC
:100C2000023043EA022363809DF905209DF80430D9
:100C300043EA0223A38003B030BD0020FFF79EFFEC
:100C40000028DBD0D6E76FF07E00F4E74FF0FF30EE
:100C5000F1E700BFF84700088C00002030B583B0F2
:100C600000238DF80730134B1B68E3B104461B7952
:100C70009BB9104B1B681B79C3B90E4B18680569EB
:100C800001230DF107023B21407AA8479DF8073068
:100C9000C3F38003237003B030BD0020FFF76EFF65
:100CA0000028EAD0E5E76FF07E00F4E74FF0FF3070
:100CB000F1E700BF8C00002030B583B000238DF831
:100CC0000730134B1B68E3B104461B799BB9104BEB
:100CD0001B681B79C3B90E4B1868056901230DF118
:100CE00007023D21407AA8479DF8073003F00F0323
:100CF000237003B030BD0020FFF740FF0028EAD08A
:100D0000E5E76FF07E00F4E74FF0FF30F1E700BF5A
:100D10008C00002070B582B000238DF807308DF86C
:100D20000630424B1B68002B7AD005460DF10600B9
:100D3000FFF7C2FF002876D19DF806303BBB3B4B46
:100D40001868046901230DF107023D21407AA0478C
:100D50000446C8B99DF8070020F00F0305F00F0006
:100D600018438DF80700314D2868C66801230DF13E
:100D700007023D21407AB04754FA80F044B22B6814
:100D80005B694FF416709847204602B070BD274B40
:100D90001868046901230DF107023D21407AA0473C
:100DA000044640B3002DEFD0204B1868046901239E
:100DB0000DF107023D21407AA04704460028E3D107
:100DC0009DF8073023F00F0305F00F0003438DF863
:100DD0000730164D2868C66801230DF107023D2132
:100DE000407AB04754FA80F044B22B685B694FF404
:100DF00016709847C8E79DF8073003F0F0038DF8A8
:100E0000073001220DF107013D20FFF7A7FE54FA3C
:100E100080F044B2054B1B685B6914209847C1E71A
:100E20006FF07E04B0E74FF0FF34ADE78C00002098
:100E300030B583B000238DF807308DF80630254B90
:100E40001B68002B43D005460DF10600FFF734FF69
:100E5000044658BB9DF8063013BB7CBB1D4B18687D
:100E6000046901230DF107023B21407AA0470446A3
:100E7000F0B99DF80730A80000F0040023F0040347
:100E800003438DF80730134B1868C56801230DF133
:100E900007023B21407AA84754FA80F044B207E0A9
:100EA000FFF738FF54FA80F464B2D6E74FF0FF340E
:100EB0009DF8060028B9204603B030BD4FF0FF343E
:100EC000F6E7FFF727FF54FA80F044B2F3E76FF03C
:100ED0007E04F0E78C00002030B585B00546002385
:100EE000ADF80830ADF80A30ADF80C308DF80730A9
:100EF0000DF10700FFF7B2FE04469DF8073043BB33
:100F000074BB02A8FFF768FE54FA80F464B254BBC5
:100F1000BDF90800FFF7DEFA0022144BFFF744FB8F
:100F2000C5E90001BDF90C00FFF7D4FA00220F4B10
:100F3000FFF73AFBC5E90401BDF90A00FFF7CAFA59
:100F400000220A4BFFF730FBC5E90201204605B03D
:100F500030BD0020FFF76CFF54FA80F464B2CFE795
:100F60004FF0FF34F2E74FF0FF34EFE70000B03FFF
:100F7000F0B589B000240394049405940694079472
:100F80001C4B5A6942F400325A615A6902F4003229
:100F90000192019A5A6942F480225A615B6903F412
:100FA00080230293029B022503950323049303A944
:100FB0004FF0904000F0C2FF182303934FF48816BF
:100FC00004960127059703A94FF0904000F0B6FF63
:100FD00003970496059503A9074800F0AFFF224642
:100FE0002146062000F074FF062000F081FF09B0C2
:100FF000F0BD00BF001002400004004872B6FEE7DA
:1010000010B59AB000241694179418941994139458
:10101000149415940C940D940E940F9410941194B0
:1010200012942C22214601A802F06CFF3E483F4B4F
:1010300003600123436084604FF6FF73C360046163
:101040004461846102F080F900285BD14FF4805341
:10105000169316A9344802F0BFFA002854D132483A
:1010600002F0A2F9002851D1002313931493159391
:1010700013A92D4802F01AFC002849D160230C93D3
:1010800045F255530D9300220E920F921092119239
:1010900012920CA9244802F0F5F900283AD1002355
:1010A0000D9304220CA9204802F0ECF9002833D15A
:1010B00008220CA91C4802F0E5F900282ED145F2BF
:1010C00055530D930C220CA9174802F0DBF938BBDD
:1010D0000023019302930393049305934FF400526A
:1010E0000692079308934FF0007209920A930B93AC
:1010F00001A90D4802F016FCA0B90B4800F036FD1E
:101100001AB010BDFFF77AFFFFF778FFFFF776FF01
:10111000FFF774FFFFF772FFFFF770FFFFF76EFF37
:10112000FFF76CFFFFF76AFFC8010020002C0140A9
:1011300008B51148114B0360114B436000238360D5
:101140000122C260036143618361C361036200F0F5
:10115000E3FF50B90021084801F03CF838B90021FC
:10116000054801F065F820B908BDFFF747FFFFF714
:1011700045FFFFF743FF00BF780200200054004006
:101180000E09002008B50D480D4B03604FF41653AF
:10119000436000238360C36003610C22426183616A
:1011A000C3610362102343624FF48053836302F0F0
:1011B00024FE00B908BDFFF721FF00BFF8000020A2
:1011C0000044004008B51048104B03604FF4827390
:1011D00043604FF4806383604FF44073C360002327
:1011E000036143614FF400728261C3610362436231
:1011F00083620722C26203630823436301F060FD38
:1012000000B908BDFFF7FAFE1402002000300140CB
:1012100000B589B0002304930593069307930193C7
:101220000293039313484FF0804202602B224260E6
:1012300083604FF0FF32C2600361836102F084F883
:1012400090B94FF48053049304A90A4802F0C4F9FA
:1012500060B900230193039301A9064802F026FB1D
:1012600030B909B05DF804FBFFF7C8FEFFF7C6FE12
:10127000FFF7C4FE7C01002000B597B028220021B2
:101280000CA802F03FFE00230793089309930A93EA
:101290000B93019302930393049305930693022304
:1012A0000C93012210921022119213934FF41013F9
:1012B00015930CA800F0E8FFD8B90F230793022379
:1012C0000893002309934FF480630A930B93012141
:1012D00007A801F029FB70B94FF481530193002353
:1012E0000493069301A801F025FC30B917B05DF80E
:1012F00004FBFFF783FEFFF781FEFFF77FFE000090
:101300002DE9F0432DED048BE3B000F065FDFFF710
:10131000B3FFFFF72DFEFFF773FEFFF709FFFFF79F
:1013200031FFFFF74FFFFFF773FF934801F080FE97
:10133000DDE95E23CDE90423DDE95C23CDE9022369
:101340009FED778B4FF00009CDF804904FF0010826
:10135000CDF800809FED742BB0EE481AF0EE681ABD
:101360009FED730B04AB854A5EA922A800F0E4FA56
:10137000414622A800F0F0F90A2122A800F020FB43
:101380009FED6D9B9FED6E1BB0EE490AF0EE690A72
:1013900022A800F0F0F9CDF80490CDF800809FED80
:1013A0006A2BB0EE481AF0EE681A9FED690B02AB9B
:1013B000734A5CA906A800F0BFFA414606A800F0EF
:1013C000CBF90A2106A800F0FBFA9FED631BB0EEF3
:1013D000490AF0EE690A06A800F0CDF9694B60A150
:1013E000D1E90001C3E900019FED5F9BCDF80490B6
:1013F000CDF80080B0EE482AF0EE682AB0EE481A28
:10140000F0EE681AB0EE490AF0EE690A5E4A5F49EA
:101410003EA800F091FA41463EA800F09DF90A214D
:101420003EA800F0CDFAB0EE491AF0EE691AB0EE1F
:10143000480AF0EE680A3EA800F09DF9DFF85C81EA
:10144000404601F02BFE4946404602F055F9042182
:10145000404602F051F90821404602F04DF900F0F3
:10146000D9FC804600F0D6FCA0EB080040F6B7336C
:101470009842F7D9444B3AA1D1E90001C3E90001F0
:1014800000F0C8FC804600F0C5FCA0EB0800B0F5F9
:10149000FA7FF8D35AA8FFF71FFD0028FAD1DDE93B
:1014A0005E2323F00045164605F10047CDE95E674F
:1014B000DFF8EC90D9F80000FEF7FCFF02460B467F
:1014C00000203349FFF79AF929A3D3E90023FFF756
:1014D00095F92E4BC3E90001192000F017FD22A851
:1014E00000F08AF806A800F087F83EA800F084F81B
:1014F000DFF8B080D9F800202649404602F00AFD06
:101500004FF47A733C224146234802F0D2FB8DF817
:101510008701192000F0ECFCBCE700BFAFF30080AE
:1015200000000000000000000000000000804B40B0
:101530000000000000805B40000000004055C5C076
:10154000000000004078C54000000000000054404A
:101550000000000000006440000000004055C5404D
:10156000333333333333D33F000000000000F03F08
:10157000000000000070A7407C010020D80000207F
:10158000D0000020F0000020E0000020E800002053
:101590000000F03F1C480008F8000020C8010020AF
:1015A00090000020940000202DE9D0430446436CB5
:1015B000D3E90067C0E91467036CD3E90023C0E9ED
:1015C0001623D0E91A8942464B4630463946FFF782
:1015D0007BFA18B1C4E91489BDE8D083D4E918892D
:1015E00042464B4630463946FFF750FA0028F3D0C2
:1015F000C4E91489F0E700002DE9F04F2DED04ABAC
:1016000085B00446407820B905B0BDEC04ABBDE818
:10161000F08F00F0FFFB05466368C31AA2689A4288
:1016200000F29480236CD3E90089A36CD3E90023F2
:1016300040464946FEF700FE06460F46CDE90267E2
:10164000D4E9162340464946FEF7F6FDCDE90001F0
:10165000D4E914AB32463B46D4E90C01FEF7A4FFB3
:1016600002460B4650465946FEF7E8FD06460F4631
:10167000C4E9146794F800A0BAF1000F0DD1DDE9B8
:101680000023D4E90A01FEF78FFF02460B463046DD
:101690003946FEF7D1FDC4E9140194ED14ABD4E949
:1016A0001A6732463B4651EC1A0BFFF70DFA002839
:1016B0003AD0C4E91467BAF1000F42D0DDE9022341
:1016C000D4E90A01FEF770FFCDE90201D4E914ABB9
:1016D000DDE90023D4E90E01FEF766FF02460B4662
:1016E00050465946FEF7AAFDDDE90223FEF7A6FDA6
:1016F00082468B4602460B4630463946FFF7C6F90E
:1017000050B9D4E9186752465B4630463946FFF770
:10171000DBF908B956465F46636CC3E90067C4E964
:101720001689656001206FE794ED18BB53EC1B2B05
:1017300051EC1A0BFFF7AAF90028BCD084ED14BBBA
:10174000B9E79FED037B8DED027BBFE700205BE7F0
:10175000000000000000000038B5044601290CBF5D
:101760000125002501D0657038BD4378002BFAD1E2
:10177000FFF71AFFF7E72DE9F84F044659EC108BF5
:1017800057EC116B32463B4640464946FFF792F90B
:10179000F0B9C4E91889C4E91A676378C3B1656C04
:1017A000D5E900AB32463B4650465946FFF78CF927
:1017B00080B1C5E90067D4E91467D4E91A894246C3
:1017C0004B4630463946FFF77FF970B1C4E91489BA
:1017D000BDE8F88F42464B4650465946FFF756F94A
:1017E0000028E8D0C5E90089E5E7D4E91889424630
:1017F0004B4630463946FFF749F90028E8D0C4E99E
:101800001489E5E72DE9D04F2DED048B04465BEC00
:1018100010AB57EC116BB0EE428AF0EE628A88464C
:101820000022002350465946FFF730F9002842D1E4
:101830000022002330463946FFF728F900283AD124
:101840000022002351EC180BFFF720F9002832D1B9
:1018500084F80280B8F1010F14BF4FF000084FF078
:10186000010884F80080C4E904ABC4E9066784ED8C
:10187000088BA068FEF71EFE00221D4BFEF7BEFF80
:1018800080468946C4E90AAB02460B4630463946D3
:10189000FEF78AFE41EC190BC4E90C0142464B46A7
:1018A00051EC180BFEF7AAFF06460F46C4E90E6777
:1018B000E378012B03D0BDEC048BBDE8D08F5246FA
:1018C0005B4600200021FEF7B7FCC4E90A0153EC97
:1018D000192B00200021FEF7AFFCC4E90C013246B1
:1018E0003B4600200021FEF7A7FCC4E90E01E2E719
:1018F00000408F4038B504460D464378D3B1C378D5
:101900008B4217D0D0E90A2300200021FEF794FC77
:10191000C4E90A01D4E90C2300200021FEF78CFC65
:10192000C4E90C01D4E90E2300200021FEF784FC59
:10193000C4E90E01E57038BD10B52DED068B0446E7
:10194000B0EE408AF0EE608AB0EE419AF0EE619A15
:10195000B0EE42AAF0EE62AA4264016483640023FE
:1019600043709FED131B9FED140BFFF704FF6423DF
:10197000A3609DF824102046FFF7BCFF9DF82010BF
:10198000B0EE4A2AF0EE6A2AB0EE491AF0EE691A71
:10199000B0EE480AF0EE680A2046FFF733FF00F089
:1019A00039FAA368C01A6060BDEC068B10BD00BF99
:1019B0000000000000E06F40000000000000000098
:1019C000F8B50D1E21DD04462846FEF783FD0646C8
:1019D0000F46A068FEF76EFD02460B4630463946BC
:1019E000FEF70CFF06460F4602460B46D4E90C01F3
:1019F000FEF7DAFDC4E90C0132463B46D4E90E019C
:101A0000FEF7FCFEC4E90E01A560F8BD82B00A4BEA
:101A10009A6942F001029A619A6902F00102009209
:101A2000009ADA6942F08052DA61DB6903F0805390
:101A30000193019B02B070470010024010B588B0BE
:101A40000023039304930593069307930268124BB4
:101A50009A4201D008B010BD104C636943F4802352
:101A60006361636903F480230193019BC0230393A3
:101A700012230493032306930423079303A908481E
:101A800000F05CFAE36943F40013E361E36903F4F3
:101A900000130293029BDDE7005400400010024057
:101AA0000004004800B589B0002303930493059314
:101AB000069307930268144B9A4202D009B05DF86E
:101AC00004FB03F560439A6942F480529A619A6973
:101AD00002F480520192019A5A6942F400325A612A
:101AE0005B6903F400330293029B60230393022398
:101AF0000493032306930523079303A94FF0904013
:101B000000F01CFADAE700BF0030014000B583B0F6
:101B10000368144A934205D0B3F1804F15D003B047
:101B20005DF804FB104B9A6942F400629A619B696C
:101B300003F400630093009B00220A21192000F0A7
:101B4000C7F9192000F0D4F9E9E703F50433DA699D
:101B500042F00102DA61DB6903F001030193019BAA
:101B6000DDE700BF002C01400010024010B586B038
:101B70000023019302930393049305930268154B8A
:101B80009A4201D006B010BD03F564435A6942F48D
:101B900000325A615B6903F400330093009B4FF4F9
:101BA000E0630193022402940623059301A94FF0F8
:101BB000904000F0C3F94FF40063019302940023B6
:101BC000039304930B23059301A94FF0904000F079
:101BD000B5F9D7E7002C014070B588B00023039316
:101BE000049305930693079302681D4B9A4201D014
:101BF00008B070BD03F5E633DA6942F40032DA6109
:101C0000DA6902F400320092009A5A6942F4003212
:101C10005A615A6902F400320192019A5A6942F4F7
:101C200080225A615B6903F480230293029B0423A0
:101C3000039302260496032506950724079403A917
:101C40004FF0904000F07AF910230393049600239C
:101C500005930695079403A9024800F06FF9C7E7BA
:101C60000044004000040048FEE7FEE7FEE7FEE710
:101C7000FEE770477047704708B500F0BFF808BD31
:101C800010B5062000F042F94FF08043596A094A26
:101C9000116000245C62012000F030FA234601E06C
:101CA00000BF0133B3F5806FFADB062000F020F9A6
:101CB00010BD00BF9000002010B515A3D3E900238C
:101CC0001549D1E90001FEF76FFC11A3D3E9002308
:101CD000FEF7B4FAFEF702FF104CE063104BD3E9B5
:101CE000002300200F49FEF7A7FAFEF7F7FE606316
:101CF00000220C4B0C49D1E90001FEF79FFAFEF7D8
:101D0000EDFEA063094801F009FA10BDAFF30080B1
:101D1000000000004055D540E0000020002C0140AC
:101D2000D80000200000E040D0000020C8010020C2
:101D300010B503460C4A0D490D48006840B10C48E7
:101D400000680344521A934206D8094A136010BD32
:101D50000748084C0460F2E702F0AAF80C2303607D
:101D60004FF0FF30F3E700BF003000200004000018
:101D7000C4020020E0020020034AD2F8883043F475
:101D80007003C2F88830704700ED00E010B50446DB
:101D90000E4B1A784FF47A73B3FBF2F30C4A1068C7
:101DA000B0FBF3F000F0B6F868B90F2C01D90120B0
:101DB0000AE0002221464FF0FF3000F089F8054B81
:101DC0001C60002000E0012010BD00BF04000020C6
:101DD000000000200800002008B5074A136843F0FF
:101DE00010031360032000F061F80F20FFF7CEFF0F
:101DF000FFF70CFE002008BD00200240034A1168D6
:101E0000034B1B780B441360704700BFC8020020CF
:101E100004000020014B1868704700BFC802002072
:101E200000280CDB00F01F02400901239340203002
:101E3000034A42F82030BFF34F8FBFF36F8F7047D4
:101E400000E100E0002808DB0901C9B200F16040B0
:101E500000F5614080F80013704700F00F000901A1
:101E6000C9B2014B1954704714ED00E000B500F001
:101E70000700C0F1070CBCF1040F28BF4FF0040CA1
:101E8000031D062B0FD9C31E4FF0FF3E0EFA0CF0B8
:101E900021EA000199400EFA03FE22EA0E0241EA0D
:101EA00002005DF804FB0023EEE70000074AD36858
:101EB00023F4E0631B041B0C000200F4E060034306
:101EC00043F0BF6343F40033D360704700ED00E09C
:101ED00010B50446054BD868C0F30220FFF7C6FFD3
:101EE00001462046FFF7AEFF10BD00BF00ED00E049
:101EF000002807DB00F01F02400901239340024A3B
:101F000042F82030704700BF00E100E008B5FFF75D
:101F100087FF08BD0138B0F1807F0BD24FF0E0237E
:101F20005861054AF02182F82310002098610722A9
:101F30001A6170470120704700ED00E0F0B583B0F2
:101F4000002362E085685E000324B44025EA0405AE
:101F5000CC68B4402C438460456825EA0C054C6885
:101F6000C4F300149C402C4344605FE0DD08083556
:101F700050F8254003F0070C4FEA8C0C4FF00F0E81
:101F80000EFA0CFE24EA0E0E0C6904FA0CF444EA74
:101F90000E0440F8254060E0032400E0002404FA29
:101FA0000EF42C430CF1020C4F4D45F82C404F4CD5
:101FB0002568D44325EA02064F6817F4803F01D014
:101FC00042EA0506494D2E606D6804EA05064F6831
:101FD00017F4003F01D042EA0506444D6E60AD683B
:101FE00004EA05064F6817F4801F01D042EA05068F
:101FF0003E4DAE60ED682C404E6816F4001F01D0D7
:1020000042EA0504394AD46001330A6832FA03F41B
:1020100068D04FF0010C0CFA03FC1CEA0202F3D06A
:102020004C6804F00304013C012C8BD94C6804F08B
:102030000304032C0CD0C4685D004FF0030C0CFAB1
:1020400005FC24EA0C0C8C68AC4044EA0C04C46027
:102050004C6804F00304022C88D004684FEA430E55
:102060004FF0030C0CFA0EFC24EA0C0C4C6804F044
:10207000030404FA0EF444EA0C0404604C6814F4FB
:10208000403FC1D01A4CA56945F00105A561A4697E
:1020900004F001040194019C4FEA930C0CF1020539
:1020A000114C54F8255003F0030E4FEA8E0E0F2406
:1020B00004FA0EF425EA0405B0F1904F3FF46EAF38
:1020C0000C4CA0420AD004F58064A04208D004F56C
:1020D0008064A0423FF460AF052460E701245EE71E
:1020E00002245CE703B0F0BD0000014000040140A1
:1020F00000100240000400487047000008B5054B7E
:102100005B69034200D108BD024B5861FFF7F4FF41
:10211000F9E700BF00040140002859D010B504467B
:1021200090F84130002B43D0242384F841302268BA
:10213000136823F0010313606368226823F070635F
:1021400013612268936823F400439360E368012BD2
:1021500033D0A368226843F404439360E368022BFE
:1021600031D02268536843F0007343F40043536056
:102170002268D36823F40043D36023696269134360
:10218000A169226843EA0123D360E369216A2268D6
:102190000B4313602268136843F0010313600020AF
:1021A0006064202384F84130206384F8420010BD2D
:1021B00080F84030FFF742FCB6E7A368226843F49A
:1021C00000439360CAE723684FF400625A60C8E78F
:1021D00001207047034690F84120D2B2202A23D133
:1021E00090F84020012A21D0012280F840202422AA
:1021F00080F841200068026822F00102026018683D
:10220000026822F48052026018680268114301607B
:1022100019680A6842F001020A60202283F841200E
:10222000002083F84000704702207047022070476A
:10223000034690F84120D2B2202A21D190F84020C4
:10224000012A1FD0012280F84020242280F841205A
:102250000068026822F0010202601868026822F435
:10226000706242EA0122026019680A6842F00102C3
:102270000A60202283F84120002083F84000704744
:102280000220704702207047002800F0FF8270B5DE
:1022900082B00446036813F0010F3BD0B44B5B6877
:1022A00003F00C03042B1ED0B14B5B6803F00C034E
:1022B000082B13D06368B3F5803F68D0002B40F043
:1022C000928003F1804303F504331A6822F48032CC
:1022D0001A601A6822F480221A605DE0A44B5B68E1
:1022E00013F4803FE6D04FF4003393FAA3F3A04BEE
:1022F00019684FF4003393FAA3F3B3FA83F303F0AE
:102300001F03012202FA03F30B4203D06368002B80
:1023100000F0BE82236813F0020F00F0C480944BDB
:102320005B6813F00C0F00F09C80914B5B6803F02E
:102330000C03082B00F08F802369002B00F0F08045
:10234000012292FAA2F3B3FA83F303F1845303F563
:1023500084139B001A60FFF75DFD0546022393FA84
:10236000A3F3834B1968022393FAA3F3B3FA83F31D
:1023700003F01F03012202FA03F30B4240F0C28074
:10238000FFF748FD401B0228E8D9032089E2784A7C
:10239000136843F480331360754AD36A23F00F0344
:1023A000A1680B43D3626368002B36D0FFF732FD80
:1023B00005464FF4003393FAA3F36D4B19684FF4BD
:1023C000003393FAA3F3B3FA83F303F01F0301225C
:1023D00002FA03F30B429DD1FFF71CFD401B64285A
:1023E000E7D903205DE2B3F5A02F09D0604B1A684E
:1023F00022F480321A601A6822F480221A60CBE735
:1024000003F18043A3F53C331A6842F480221A603A
:102410001A6842F480321A60BEE7FFF7FBFC0546FB
:102420004FF4003393FAA3F3514B19684FF4003380
:1024300093FAA3F3B3FA83F303F01F03012202FA22
:1024400003F30B423FF466AFFFF7E4FC401B642844
:10245000E6D9032025E2464B5B6813F4803F7FF406
:102460006BAF022393FAA3F3414B1968022393FA4B
:10247000A3F3B3FA83F303F01F03012202FA03F379
:102480000B4203D02369934240F00482384803682A
:1024900023F0F8036169F82292FAA2F2B2FA82F20A
:1024A00091400B430360236813F0080F00F08C8009
:1024B000A369002B60D0012191FAA1F2B2FA82F255
:1024C0002C4B13449B001960FFF7A4FC0546022324
:1024D00093FAA3F293FAA3F293FAA3F2244A516A6D
:1024E00093FAA3F3B3FA83F303F01F03012202FA72
:1024F00003F30B4268D1FFF78DFC401B0228E6D99D
:102500000320CEE11A48036823F0F8036169F8223A
:1025100092FAA2F2B2FA82F291400B430360C2E750
:10252000012393FAA3F3B3FA83F303F1845303F57E
:1025300084139B0000221A60FFF76CFC05460223FF
:1025400093FAA3F30A4B1968022393FAA3F3B3FA9D
:1025500083F303F01F03012202FA03F30B42A2D01C
:10256000FFF758FC401B0228E9D9032099E100BF7E
:102570000010024020819010012292FAA2F2B2FAD9
:1025800082F2B74B13449B0000221A60FFF742FC13
:102590000546022393FAA3F293FAA3F293FAA3F265
:1025A000B04A516A93FAA3F3B3FA83F303F01F031B
:1025B000012202FA03F30B4206D0FFF72BFC401B6B
:1025C0000228E6D903206CE1236813F0040F00F021
:1025D000A980A44BDB6913F0805F20D1A14BDA699D
:1025E00042F08052DA61DB6903F080530193019B72
:1025F00001259D4B1B6813F4807F12D0E368012BEB
:1026000023D073BB03F1804303F504331A6A22F02D
:1026100001021A621A6A22F004021A621AE0002504
:10262000E7E7914A136843F480731360FFF7F2FB06
:1026300006468D4B1B6813F4807FDFD1FFF7EAFB62
:10264000801B6428F5D903202BE1864A136A43F0E6
:1026500001031362E368002B3CD0FFF7DBFB064667
:102660002EE0052B09D07F4B1A6A22F001021A6274
:102670001A6A22F004021A62ECE77A4B1A6A42F0F4
:1026800004021A621A6A42F001021A62E2E70223A5
:1026900093FAA3F3734B596A022393FAA3F3B3FAA1
:1026A00083F303F01F03012202FA03F3194238D126
:1026B000FFF7B0FB801B41F28833984200F2EC80B8
:1026C000022393FAA3F293FAA3F3002BDFD0654B16
:1026D000196AE1E7FFF79EFB064618E0022393FA2A
:1026E000A3F3604B596A022393FAA3F3B3FA83F37B
:1026F00003F01F03012202FA03F3194211D0FFF77E
:1027000089FB801B41F28833984200F2C780022384
:1027100093FAA3F293FAA3F3002BDFD0514B196A7B
:10272000E1E7B5BBE369002B00F0BA804D4A52687F
:1027300002F00C02082A00F09980022B2FD04FF0F3
:10274000807393FAA3F3B3FA83F303F1845303F58D
:1027500084139B0000221A60FFF75CFB04464FF0D5
:10276000007393FAA3F33F4B19684FF0007393FA89
:10277000A3F3B3FA83F303F01F03012202FA03F376
:1027800019426BD0FFF746FB001B0228E7D9032054
:1027900087E0344AD36923F08053D361C2E74FF016
:1027A000807393FAA3F3B3FA83F303F1845303F52D
:1027B00084139B0000221A60FFF72CFB05464FF0A4
:1027C000007393FAA3F3274B19684FF0007393FA41
:1027D000A3F3B3FA83F303F01F03012202FA03F316
:1027E000194206D0FFF716FB401B0228E7D9032049
:1027F00057E01C494B6823F47413626A206A024351
:1028000013434B604FF0807393FAA3F3B3FA83F34F
:1028100003F1845303F584139B0001221A60FFF730
:10282000F9FA04464FF0007393FAA3F30D4B1968BD
:102830004FF0007393FAA3F3B3FA83F303F01F038B
:10284000012202FA03F3194206D1FFF7E3FA001B53
:102850000228E7D9032024E0002022E0002020E025
:10286000208190100010024000700040012B1AD00F
:10287000104B5B6803F48031226A914215D103F456
:102880007013626A934212D100200AE0012070475F
:10289000012006E0012004E0032002E0032000E024
:1028A000002002B070BD0120FBE70120F9E7012004
:1028B000F7E700BF00100240164B5B6803F00C0204
:1028C000082A01D01448704703F470114FF47012B5
:1028D00092FAA2F2B2FA82F221FA02F20F49885C6D
:1028E0000C4AD26A02F00F020F2191FAA1F1B1FA5B
:1028F00081F1CA400A498A5C13F4803F05D0064B37
:10290000B3FBF2F303FB00F07047064B03FB00F050
:10291000704700BF0010024000127A004C480008C7
:102920003C48000800093D00002800F0BE8070B55A
:102930000D460446614B1B6803F007038B420BD224
:102940005E4A136823F007030B431360136803F018
:1029500007038B4240F0AB80236813F0020F06D0D0
:10296000574A536823F0F003A1680B435360236870
:1029700013F0010F5AD06368012B2DD0022B40D0E9
:10298000022292FAA2F24E4A1068022292FAA2F2AF
:10299000B2FA82F202F01F02012101FA02F21042A1
:1029A00000F0878046494A6822F0030213434B60D7
:1029B000FFF730FA0646424B5B6803F00C0362688F
:1029C000B3EB820F32D0FFF725FA801B41F2883338
:1029D0009842F0D9032067E04FF4003292FAA2F255
:1029E000374A10684FF4003292FAA2F2B2FA82F239
:1029F00002F01F02012101FA02F20242D2D10120AB
:102A000052E04FF0007292FAA2F22D4A10684FF095
:102A1000007292FAA2F2B2FA82F202F01F020121CF
:102A200001FA02F21042BDD101203DE0234B1B68A8
:102A300003F00703AB420AD9204A136823F00703C7
:102A40002B431360136803F00703AB4233D12368B1
:102A500013F0040F06D01A4A536823F4E063E168C8
:102A60000B435360236813F0080F07D0144A5368D0
:102A700023F46053216943EAC1035360FFF71CFF4D
:102A80000F4B5B6803F0F003F02292FAA2F2B2FA65
:102A900082F2D3400B4AD35CD8400B4B18600B4BEF
:102AA0001868FFF773F9002070BD012070470120FE
:102AB000FAE70120F8E70120F6E700BF0020024016
:102AC000001002402C4800080000002008000020F0
:102AD000014B1868704700BF0000002008B5FFF7E1
:102AE000F7FF074B5B6803F4E0634FF4E06292FA90
:102AF000A2F2B2FA82F2D340024AD35CD84008BDB7
:102B0000001002402448000808B5FFF7E1FF074B1A
:102B10005B6803F460534FF4605292FAA2F2B2FA87
:102B200082F2D340024AD35CD84008BD0010024074
:102B300024480008F0B583B00446036813F4803FCE
:102B400044D05C4BDB6913F0805F6DD1594BDA697F
:102B500042F08052DA61DB6903F080530193019BFC
:102B60000125554B1B6813F4807F5FD0514B1B6AC6
:102B700013F4407321D0626802F440729A421CD070
:102B80004C48016A21F440764FF4803393FAA3F263
:102B9000B2FA82F2494F3A4492004FF0010CC2F867
:102BA00000C093FAA3F3B3FA83F33B449B000022E3
:102BB0001A60066211F0010F4CD13E4A136A23F4E9
:102BC000407361680B431362002D69D1236813F0D1
:102BD000010F06D0374A136B23F00303A1680B43A0
:102BE0001363236813F0200F06D0324A136B23F0CF
:102BF0001003E1680B431363236813F0800F06D0C2
:102C00002C4AD36A23F4F87321690B43D3622368F7
:102C100013F4805F4BD0274A136B23F480736169F0
:102C20000B431363002043E000259AE7224A136810
:102C300043F480731360FFF7EDF806461E4B1B68E4
:102C400013F4807F92D1FFF7E5F8801B6428F5D953
:102C500003202DE0FFF7DEF8064617E0022393FA83
:102C6000A3F3144B596A022393FAA3F3B3FA83F341
:102C700003F01F03012202FA03F30B429DD1FFF779
:102C8000C9F8801B41F2883398420ED8022393FA88
:102C9000A3F293FAA3F3002BE0D0064B196AE2E704
:102CA000D36923F08053D36190E7032000E0002034
:102CB00003B0F0BD00100240007000400081901091
:102CC00000286AD010B50446436A33B94368B3F5A7
:102CD000827F05D00023C36102E0002303614361CA
:102CE0000023A36294F85D30002B4DD0022384F8BA
:102CF0005D302268136823F040031360E368B3F586
:102D0000E06F47D90022B3F5706F04D0B3F5E06FE0
:102D100001D00023A362636803F48273A16801F405
:102D200004410B43216901F002010B43616901F089
:102D300001010B43A16901F400710B43E16901F04A
:102D400038010B43216A01F080010B43A16A01F4B1
:102D5000005120680B430360638B03F00403616A36
:102D600001F010010B43616B01F008010B43E168B6
:102D700001F470610B4321681A434A600020206609
:102D8000012384F85D3010BD84F85C302046FEF7E6
:102D900089FEABE74FF48052B5E701207047000091
:102DA00030B4036A23F001030362026A4468836952
:102DB00023F4803323F073030D681D4322F00202D5
:102DC0008B681343184A90420BD002F5A0529042F0
:102DD00007D002F58062904203D002F580629042F3
:102DE00005D123F00803CA681A4322F004030E4AEF
:102DF00090420BD002F5A052904207D002F58062BB
:102E0000904203D002F58062904205D124F44074D0
:102E10004A6922438C691443446085614A6842636D
:102E2000036230BC704700BF002C014030B4036A1D
:102E300023F480730362036A4268C46924F4803C0B
:102E40002CF0730C0C6844EA0C0523F400738C68B6
:102E500043EA0423124CA0420BD0124CA0420FD0E4
:102E600004F58064A0420BD004F58064A0420FD129
:102E700006E023F40063CC6843EA042323F4806370
:102E800022F440524C6942EA04128C6942EA04126C
:102E90004260C5614A68C263036230BC704700BFCC
:102EA000002C01400040014030B4036A23F48053F9
:102EB0000362026A4468C36923F0807323F4E64323
:102EC0000D6843EA052322F400528D6842EA053278
:102ED0000D4DA8420BD005F5A055A84207D005F529
:102EE0008065A84203D005F58065A84204D124F48A
:102EF00080444D6944EA85144460C3614B680364AF
:102F0000026230BC704700BF002C014030B4036A3D
:102F100023F480330362036A4468426D22F48032F2
:102F200022F070020D682A4323F400338D6843EACF
:102F300005430D4DA8420BD005F5A055A84207D07A
:102F400005F58065A84203D005F58065A84204D147
:102F500024F480344D6944EA0524446042654A689B
:102F60008265036230BC7047002C014030B4036AB4
:102F700023F480130362026A4468436D23F0807374
:102F800023F4E0430D6843EA052322F400128D6820
:102F900042EA05520D4DA8420BD005F5A055A842B6
:102FA00007D005F58065A84203D005F58065A842E5
:102FB00004D124F480244D6944EA852444604365A7
:102FC0004B68C365026230BC704700BF002C0140F3
:102FD00010B4036A046A24F001040462846924F0D2
:102FE000F00C4CEA021223F00A030B4382610362E5
:102FF0005DF8044B704710B4036A23F010030362BA
:103000008469036A24F4704C4CEA023223F0A00372
:1030100043EA0113826103625DF8044B70478368E1
:1030200023F070030B4343F00703836070470000F5
:1030300090F83D30DBB2012B25D1022380F83D30E2
:103040000368144A934210D0B3F1804F0DD0A2F51B
:103050009432934209D002F59E32934205D01A6809
:1030600042F001021A600020704799680A4A0A403B
:10307000062A0AD0B2F5803F09D01A6842F0010250
:103080001A60002070470120704700207047002020
:10309000704700BF002C01400700010090F83D3050
:1030A000DBB2012B2AD1022380F83D300268D368BD
:1030B00043F00103D3600368134A934210D0B3F185
:1030C000804F0DD0A2F59432934209D002F59E3282
:1030D000934205D01A6842F001021A60002070473E
:1030E00099680A4A0A40062A0AD0B2F5803F09D0F8
:1030F0001A6842F001021A600020704701207047F0
:103100000020704700207047002C0140070001009C
:1031100070477047704770477047704710B5044656
:1031200003681A6912F0020F11D0DA6812F0020F68
:103130000DD06FF002021A610123037703689B69C7
:1031400013F0030F79D0FFF7E6FF002323772368FE
:103150001A6912F0040F12D0DA6812F0040F0ED0C0
:103160006FF004021A610223237723689B6913F42A
:10317000407F68D02046FFF7CEFF002323772368E7
:103180001A6912F0080F12D0DA6812F0080F0ED088
:103190006FF008021A61042323772368DB6913F0B8
:1031A000030F57D02046FFF7B6FF0023237723688D
:1031B0001A6912F0100F12D0DA6812F0100F0ED048
:1031C0006FF010021A61082323772368DB6913F478
:1031D000407F46D02046FFF79EFF002323772368D9
:1031E0001A6912F0010F03D0DA6812F0010F3FD113
:1031F00023681A6912F0800F03D0DA6812F0800F8A
:103200003DD123681A6912F4807F03D0DA6812F086
:10321000800F3BD123681A6912F0400F03D0DA689F
:1032200012F0400F39D123681A6912F0200F03D031
:10323000DA6812F0200F37D110BDFFF76BFF204680
:10324000FFF76AFF81E72046FFF764FF2046FFF79C
:1032500063FF92E72046FFF75DFF2046FFF75CFF24
:10326000A3E72046FFF756FF2046FFF755FFB4E7D8
:103270006FF001021A612046FFF74BFFB8E76FF0CD
:1032800080021A61204600F092FBBAE76FF4807268
:103290001A61204600F08CFBBCE76FF040021A6117
:1032A0002046FFF73AFFBEE76FF020021A61204682
:1032B00000F07CFBC0E700000368224A904206D081
:1032C000B0F1804F03D0A2F59432904203D123F0A5
:1032D00070034A6813431B4A904212D0B0F1804FEA
:1032E0000FD0A2F5943290420BD002F59E3290425C
:1032F00007D002F58062904203D002F580629042CE
:1033000003D123F44073CA68134323F080034A694E
:10331000134303608B68C3620B688362094B984256
:103320000BD003F5A053984207D003F58063984271
:1033300003D003F58063984201D10B690363012335
:1033400043617047002C014060B310B5044690F80B
:103350003D3013B3022384F83D30214651F8040B6D
:10336000FFF7AAFF012384F8483084F83E3084F840
:103370003F3084F8403084F8413084F8423084F89B
:10338000433084F8443084F8453084F8463084F87B
:10339000473084F83D30002010BD80F83C30FEF707
:1033A000B5FBD7E70120704760B310B5044690F82D
:1033B0003D3013B3022384F83D30214651F8040B0D
:1033C000FFF77AFF012384F8483084F83E3084F810
:1033D0003F3084F8403084F8413084F8423084F83B
:1033E000433084F8443084F8453084F8463084F81B
:1033F000473084F83D30002010BD80F83C30FFF7A6
:1034000087FED7E70120704730B4036A23F010032A
:103410000362036A4268846924F0807C2CF4E64CE1
:103420000C684CEA042423F020038D6843EA05135A
:10343000124DA8420BD0124DA8420FD005F5806561
:10344000A8420BD005F58065A8420FD106E023F015
:103450008003CD6843EA051323F0400322F4406261
:103460004D6942EA85028D6942EA850242608461C3
:103470004A688263036230BC704700BF002C014081
:103480000040014038B590F83C30012B00F09580A9
:1034900004460D46012380F83C30142A00F288804F
:1034A000DFE802F00B8686861F868686348686864F
:1034B000488686865D86868671000068FFF770FC08
:1034C0002268936943F0080393612268936923F0AB
:1034D000040393612268936929690B439361002077
:1034E00067E00068FFF790FF2268936943F4006388
:1034F00093612268936923F48063936122689369DE
:10350000296943EA01239361002052E00068FFF734
:103510008DFC2268D36943F00803D3612268D36924
:1035200023F00403D3612268D36929690B43D36173
:1035300000203EE00068FFF7B7FC2268D36943F43F
:103540000063D3612268D36923F48063D361226866
:10355000D369296943EA0123D361002029E0006887
:10356000FFF7D4FC2268536D43F0080353652268CB
:10357000536D23F0040353652268536D29690B438F
:103580005365002015E00068FFF7F0FC2268536DDA
:1035900043F4006353652268536D23F480635365DD
:1035A0002268536D296943EA01235365002000E036
:1035B0000120002384F83C3038BD0220FCE710B421
:1035C000846824F47F4C42EA03220A4342EA0C0254
:1035D00082605DF8044B704790F83C30012B76D048
:1035E00010B50446012380F83C30022380F83D30BA
:1035F00002689068374B034093600B68602B4CD097
:1036000029D8402B54D00CD9502B22D1CA684968F4
:103610002068FFF7DDFC50212068FFF700FD002047
:1036200005E0202B0DD009D9302B0AD00120012331
:1036300084F83D30002384F83C3010BD0BB1102BD2
:1036400005D119462068FFF7EAFC0020EFE70120CA
:10365000EDE70120EBE7B3F5805F34D0B3F5005F11
:103660000CD1CB684A6889682068FFF7A8FF2268F8
:10367000936843F4804393600020D8E7702B24D1F3
:10368000CB684A6889682068FFF799FF22689368C9
:1036900043F0770393600020C9E7CA68496820684F
:1036A000FFF7A9FC60212068FFF7B9FC0020BEE706
:1036B000CA6849682068FFF78BFC40212068FFF743
:1036C000AEFC0020B3E70020B1E70120AFE7022005
:1036D000704700BF8800FEFF01F01F014FF0010C92
:1036E0000CFA01FC036A23EA0C030362036A8A40B2
:1036F000134303627047000010B5044610293DD8FB
:10370000DFE801F0093C3C3C203C3C3C273C3C3C95
:103710002E3C3C3C350090F83E30DBB2013B18BFFC
:103720000123002B40F0B680102900F28380DFE8EF
:1037300001F02C818181618181816A818181738124
:1037400081817C0090F83F30DBB2013B18BF012340
:10375000E7E790F84030DBB2013B18BF0123E0E718
:1037600090F84130DBB2013B18BF0123D9E790F854
:103770004230DBB2013B18BF0123D2E790F843305F
:10378000DBB2013B18BF0123CBE7022384F83E30B4
:103790002268D36843F00203D36001222068FFF758
:1037A0009BFF23683F4A93420BD002F5A0529342FD
:1037B00007D002F58062934203D002F58062934203
:1037C00003D15A6C42F400425A642368354A93424A
:1037D00052D0B3F1804F4FD0A2F5943293424BD0E8
:1037E00002F59E32934247D01A6842F001021A60F5
:1037F000002050E0022384F83F302268D36843F071
:103800000403D360C9E7022384F840302268D368F8
:1038100043F00803D360C0E7022384F841302268F4
:10382000D36843F01003D360B7E7022384F8423033
:10383000012030E0022384F843300C292CD801A366
:1038400053F821F09137000899380008993800089A
:1038500099380008FB3700089938000899380008A3
:10386000993800080D380008993800089938000880
:10387000993800081F38000899680B4A0A40062A40
:103880000CD0B2F5803F0BD01A6842F001021A60EA
:10389000002000E0012010BD0120FCE70020FAE735
:1038A0000020F8E7002C01400700010090F83C20C0
:1038B000012A33D030B40346012280F83C20022292
:1038C00080F83D20006842688468154DA84220D0E9
:1038D00022F070020D682A4342601A681048824242
:1038E0000AD0B2F1804F07D0A0F59430824203D0C5
:1038F00000F59E30824204D124F08004896821437F
:103900009160012283F83D20002083F83C0030BC08
:10391000704722F470024D682A43D9E702207047AD
:10392000002C014090F83C30012B3BD010B40246F3
:10393000012380F83C30CB6823F44073886803434C
:1039400023F480634868034323F400630868034357
:1039500023F480530869034323F400534869034365
:1039600023F48043886A034323F47023886943EA7D
:10397000004310680C4CA04206D04364002082F83B
:103980003C005DF8044B704723F470034C6A43EA33
:10399000045323F08073CC69234323F00073096A36
:1039A0000B43EAE702207047002C01407047704744
:1039B0007047000010B504468368026913434269EA
:1039C0001343C2691343016808684E4A02401A4310
:1039D0000A602268536823F44053E1680B43536044
:1039E000A269236A1A4321688B6823F43063134366
:1039F0008B602368444A934214D0444A934227D0B0
:103A000002F5806293421FD01023E069B0F5004FA9
:103A100020D0082B70D8DFE803F04A60486F636F4E
:103A20006F6F66003A4B1B6B03F00303032B09D83F
:103A3000DFE803F00204060C0023E6E70423E4E7D2
:103A40000823E2E71023E0E70023DEE70223DCE7B8
:103A50000023DAE7082B49D8DFE803F0051F2548E3
:103A6000224848480900FFF739F8002840D062682A
:103A7000530803EB4003B3FBF2F39BB2A3F1100135
:103A80004FF6EF72914235D823F00F02C3F3420391
:103A900013432268D36000201BE0FFF735F8E4E70A
:103AA000FEF70AFFE1E71B48E1E71A4802E0FFF7EB
:103AB00015F818B3636800EB5300B0FBF3F080B265
:103AC000A0F110024FF6EF739A4219D82368D8601C
:103AD000002000236366A36610BDFFF715F8E8E732
:103AE000FEF7EAFEE5E74FF40040E3E70120F0E7E8
:103AF0000020EEE70120ECE70120EAE70020E8E7FC
:103B00000120E6E7F369FFEF003801400044004080
:103B10000010024000127A00436A13F0010F06D031
:103B20000268536823F40033816A0B435360436A8D
:103B300013F0020F06D00268536823F48033C16A81
:103B40000B435360436A13F0040F06D002685368B6
:103B500023F48023016B0B435360436A13F0080F77
:103B600006D00268536823F40043416B0B43536053
:103B7000436A13F0100F06D00268936823F4805351
:103B8000816B0B439360436A13F0200F06D00268E9
:103B9000936823F40053C16B0B439360436A13F0A3
:103BA000400F0AD00268536823F48013016C0B4362
:103BB0005360036CB3F5801F0BD0436A13F0800F82
:103BC00006D00268536823F40023816C0B435360D2
:103BD00070470268536823F4C003416C0B43536081
:103BE000EBE72DE9F84305460F4616469946DDF802
:103BF00020802B68DC6937EA04040CBF0124002410
:103C0000B44253D1B8F1FF3FF3D0FEF703F9A0EB74
:103C1000090040452DD8B8F1000F2AD02B681A684A
:103C200012F0040FE5D0DA6912F4006FE1D04FF41E
:103C300000621A622A6852E8003F23F4D07342E817
:103C400000310029F6D12A6802F1080353E8003F49
:103C500023F00103083242E800310029F3D1202388
:103C6000AB67EB67C5F88030002385F8743003201C
:103C70001DE02A6852E8003F23F4D07342E8003187
:103C80000029F6D12A6802F1080353E8003F23F027
:103C90000103083242E800310029F3D12023AB6749
:103CA000EB67002385F87430032000E00020BDE8B6
:103CB000F8832DE9F04182B01E46836F202B56D148
:103CC00004460D469046002955D0002A55D090F85C
:103CD0007430012B53D0012380F874300023C0F8D6
:103CE000803021238367FEF795F80746A4F85080BB
:103CF000A4F85280A368B3F5805F05D04FF00008A8
:103D0000002384F8743014E0236913B14FF00008E5
:103D1000F6E7A8460025F3E738F8023B2268C3F32C
:103D200008031385B4F8522092B2013A92B2A4F873
:103D30005220B4F852309BB273B100963B46002239
:103D400080212046FFF74DFFD8B9002DE4D015F8AB
:103D5000012B23681A85E5E700963B4600224021A7
:103D60002046FFF73EFF70B92023A36700E0022042
:103D700002B0BDE8F0810120FAE70120F8E7022057
:103D8000F6E70320F4E70320F2E730B583B00446FA
:103D90000023C0F88030FEF73DF80546226812681F
:103DA00012F0080F0DD123681B6813F0040F16D111
:103DB0002023A367E3670020206684F8740003B023
:103DC00030BD6FF07E430093034600224FF4001194
:103DD0002046FFF706FF0028E5D00320EFE76FF04D
:103DE0007E4300932B4600224FF480012046FFF7CC
:103DF000F8FE0028DCD00320E1E768B310B50446E4
:103E0000836F03B32423A3672268136823F001039D
:103E100013602046FFF7CEFD012813D0636ABBB9BB
:103E20002268536823F4904353602268936823F018
:103E30002A0393602268136843F00103136020464D
:103E4000FFF7A3FF10BD80F87430FDF7C5FED9E77A
:103E50002046FFF761FEE3E701207047DFF834D02A
:103E60000D480E490E4A002302E0D458C4500433D2
:103E7000C4188C42F9D30B4A0B4C002301E01360A9
:103E80000432A242FBD3FDF777FF00F017F8FDF7ED
:103E900037FAFEE70030002000000020700000200C
:103EA0009848000870000020DC020020FEE70000B7
:103EB000014B1868704700BF0C00002070B50D4D15
:103EC0000D4C641BA4100026A64209D10B4D0C4CCE
:103ED00000F086FC641BA4100026A64205D170BD2C
:103EE00055F8043B98470136EEE755F8043B9847F0
:103EF0000136F2E790480008904800089048000812
:103F00009448000802440346934200D1704703F8E6
:103F1000011BF9E70EB400B59CB01DAB02900690F2
:103F20006FF00041094807910491094953F8042BA7
:103F300005910068019302A900F068F8029B002235
:103F40001A701CB05DF804EB03B070470C00002041
:103F50000802FFFF704770472DE9F0478E681F4643
:103F6000BE420B6882460C4690462CD88A8912F4D1
:103F7000906F26D06569096905EB4505A3EB01093A
:103F800005EBD5757B1C4B446D109D4238BF1D461B
:103F9000530527D5294600F05BFB064660B321692F
:103FA0004A4600F0C1FAA38923F4906343F08003EA
:103FB000A381266165614E44A5EB09052660A560D5
:103FC0003E46BE4200D93E4620683246414600F099
:103FD000B9FAA3689B1BA3602368334423600020C5
:103FE000BDE8F0872A4600F0A7FB06460028E0D18E
:103FF0002169504600F0C0FA0C23CAF80030A389AA
:1040000043F04003A3814FF0FF30E9E72DE9F04F83
:1040100098468B891B069DB007460D4614460ED563
:104020000B6963B9402100F013FB2860286120B9B7
:104030000C233B604FF0FF30D0E040236B61002346
:10404000099320238DF82930CDF80C803023DFF838
:10405000A4818DF82A304FF0010923469A4613F8BF
:10406000012B0AB1252AF9D1BAEB040B0BD05B4620
:10407000224629463846FFF76FFF013000F0A9803D
:10408000099A5A4409929AF80030002B00F0A18056
:1040900000234FF0FF32CDE905230AF1010A049312
:1040A00007938DF853301A935446052214F8011BD8
:1040B0005048FCF76DF8049AD8B9D00644BF2023C5
:1040C0008DF85330110744BF2B238DF853309AF8E5
:1040D00000302A2B15D0079A544600204FF00A0CC6
:1040E000214611F8013B303B092B4DD9B0B1079265
:1040F00014E0A0EB080309FA03F313430493A24668
:10410000D2E7039B191D1B680391002BBBBF5B42C9
:1041100042F0020207930793B8BF049223782E2B34
:104120000CD163782A2B34D1039B1A1D1B68039290
:10413000002BB8BF4FF0FF3302340593DFF8C4A063
:10414000217803225046FCF723F838B1049BA0EBFA
:104150000A004022824013430134049314F8011BE7
:1041600025488DF828100622FCF712F8002838D0D0
:10417000224B1BBB039B073323F007030833039336
:10418000099B3344099368E70CFB02320C4601207B
:10419000A6E700230134059319464FF00A0C204688
:1041A00010F8012B303A092A03D9002BC6D005910B
:1041B000C4E70CFB012104460123F0E703AB0093A5
:1041C0002A460F4B04A93846AFF30080421C06462E
:1041D000D6D1AB895B063FF52DAF09981DB0BDE880
:1041E000F08F03AB00932A46054B04A9384600F034
:1041F00079F8EBE75C48000866480008000000001A
:10420000593F0008624800082DE9F04716469946D4
:104210008A680B69DDF820809342B8BF134633608B
:1042200091F8432007460C460AB1013333602368F6
:10423000990642BF336802333360256815F00605DE
:1042400006D104F1190AE36832689B1AAB4226DCF6
:1042500094F84320131E226818BF012392062BD422
:1042600004F1430249463846C04701301ED0236856
:10427000226903F00603042B02BFE5683368ED1AD8
:10428000A3680CBF25EAE57500259342C4BF9B1ABD
:10429000ED1800261A34B5421AD1002008E0012397
:1042A000524649463846C047013003D14FF0FF30EF
:1042B000BDE8F0870135C6E7E1185A1C302081F8C7
:1042C0004300224494F8451082F843100233C7E7B4
:1042D0000123224649463846C0470130E6D0013620
:1042E000D9E700002DE9FF470F7E0C9D782F9146FE
:1042F00080460C469A4601F1430207D8622F0AD83D
:10430000002F00F0D480582F00F0C08004F1420547
:1043100084F842703AE0A7F16303152BF6D801A1A7
:1043200051F823F07D430008914300080D43000835
:104330000D4300080D4300080D4300089143000899
:104340000D4300080D4300080D4300080D4300080D
:1043500095440008BD4300084F4400080D43000881
:104360000D430008B74400080D430008BD43000892
:104370000D4300080D430008574400082B681A1D20
:104380001B682A6004F1420584F8423001239FE053
:1043900020682B68070603F10401296001D51E6817
:1043A00003E04606FBD5B3F90060002E03DA2D23A7
:1043B000764284F843305A480A2312E02B6820687A
:1043C000191D2960050601D51E6802E04106FBD5CE
:1043D0001E8853486F2F0CBF08230A23002184F83E
:1043E00043106568A560002DA2BF216821F004017B
:1043F00021600EB9002D4BD01546B6FBF3F103FB3F
:104400001167C75D05F8017D3746BB420E46F4D9FA
:10441000082B0BD12368DE0708D523696168994210
:10442000DEBF302305F8013C05F1FF35521B226148
:10443000CDF800A04B4603AA21464046FFF7E4FE14
:1044400001304AD14FF0FF3004B0BDE8F087236857
:1044500043F0200323603348782784F845702368AD
:1044600029681F0651F8046B02D45F0648BFB6B234
:10447000DF0748BF43F02003296048BF23601EB90F
:10448000236823F0200323601023A7E72448E4E7F0
:104490001546BDE72B6826686169181D286035063A
:1044A0001B6801D5196002E07006FBD51980002356
:1044B00023611546BCE72B681A1D2A601D686268D7
:1044C00000212846FBF764FE08B1401B606063686A
:1044D0002361002384F84330AAE723692A4649462A
:1044E0004046D0470130ADD023689B0713D4E06825
:1044F000039B9842B8BF1846A6E7012332464946B7
:104500004046D04701309DD00135E36803995B1ADE
:10451000AB42F2DCEBE7002504F11906F5E700BF3A
:104520006D4800087E4800080A44914200F1FF33BC
:1045300000D1704710B511F8014B03F8014F9142BB
:10454000F9D110BD884210B501EB020402D98442B2
:10455000234607D8431EA14208D011F8012B03F8C7
:10456000012FF8E7024401468A4200D110BD13F83A
:10457000014D02F8014DF7E737B5002944D051F855
:10458000043C0190002BA1F10404B8BFE41800F032
:1045900013F91E4A0198136833B96360146003B0BD
:1045A000BDE8304000F00EB9A34208D92568611972
:1045B0008B4201BF19685B6849192160EDE71A4613
:1045C0005B680BB1A342FAD911685518A5420BD10B
:1045D000246821445418A3421160E0D11C685B6830
:1045E00053600C441460DAE702D90C230360D6E769
:1045F000256861198B4204BF19685B68636004BF5A
:10460000491921605460CAE703B030BDD0020020D0
:1046100070B50E4E0C463168054611B900F0BCF875
:1046200030602146284600F0B7F8431C0AD0C41C6D
:1046300024F00304A04207D0211A284600F0ACF869
:10464000013001D14FF0FF34204670BDD40200206C
:104650002DE9F041CD1C25F0030508350C2D38BFA0
:104660000C25002D074601DBA94205D90C233B6030
:1046700000263046BDE8F0812E4E00F09DF83368EC
:104680001C4634BB29463846FFF7C2FF431C04468C
:104690004DD134682646002E40D123683146384635
:1046A00004EB030800F078F880453AD1236803351D
:1046B000ED1A25F0030508350C2D38BF0C252946C9
:1046C0003846FFF7A5FF01302BD023682B44236029
:1046D0000EE02268521B1ED40B2A16D96119A34280
:1046E000256018BF5960636808BF316062514B6034
:1046F000384604F10B0600F065F826F00706231D86
:10470000F21AB6D09B1BA350B3E76268A3420CBF5A
:1047100032605A60ECE723466468B2E73446766854
:10472000B9E70C233B60384600F04CF8A1E7256060
:10473000DEE700BFD00200202DE9F041804614469C
:104740000E4621B9BDE8F0411146FFF781BF2AB9F5
:10475000FFF712FF25462846BDE8F08100F038F843
:104760008442074602D8B4EB500F12D82146404687
:10477000FFF76EFF05460028EDD0BC4222463146C9
:1047800028BF3A46FFF7D0FE31464046FFF7F4FE19
:10479000E1E73546DFE7000038B5064D0023044663
:1047A00008462B60FDF7C4FA431C02D12B6803B105
:1047B000236038BDD80200200148FFF7CBBB00BF03
:1047C000CC0200200148FFF7C6BB00BFCC0200208E
:1047D00051F8043C181F002BBCBF0B58C018704781
:1047E000F8B500BFF8BC08BC9E467047F8B500BFDE
:0847F000F8BC08BC9E467047AE
:1047F80000000000000000000000000000000000B1
:1048080000000000000000000000000000000000A0
:1048180000000000256C640D0A0000000000000084
:10482800010203040000000000000000010203046C
:10483800060708090102030405060708090A0B0C04
:104848000D0E0F1002030405060708090A0B0C0DCC
:104858000E0F1010232D302B2000686C4C0065665D
:1048680067454647003031323334353637383941B9
:1048780042434445460030313233343536373839CF
:084888006162636465660000D3
:04489000410B0008D0
:044894001D0B0008F0
:1048980000127A0001000000100000001000002043
:1048A8000000000000000000000000000000000000
:1048B80000000000000000000000000000000000F0
:1048C80000000000000000000000000000000000E0
:1048D80000000000000000000000000000000000D0
:1048E80000000000000000000000000000000000C0
:1048F80000000000000000000000000000000000B0
:0400000508003E5D54
:00000001FF
