:020000040800F2
:100000000030002079440008191E00081B1E00085B
:100010001D1E00081F1E0008211E00080000000011
:10002000000000000000000000000000231E000887
:10003000251E000800000000271E0008291E0008D9
:10004000C9440008C9440008C9440008C94400085C
:10005000C9440008C9440008311E0008C94400080A
:10006000C9440008C9440008C9440008C94400083C
:10007000C9440008C9440008C9440008C94400082C
:10008000C9440008C9440008C9440008C94400081C
:10009000C9440008C9440008C9440008C94400080C
:1000A000C9440008691E0008C9440008C944000882
:1000B000C9440008C944000800000000C944000801
:1000C000C94400080000000000000000C944000806
:1000D00000000000C9440008C9440008C9440008E1
:1000E000C9440008C94400080000000000000000E6
:1000F0000000000000000000000000000000000000
:1001000000000000000000000000000000000000EF
:100110000000000000000000C9440008C9440008B5
:1001200000000000000000000000000000000000CF
:1001300000000000000000000000000000000000BF
:10014000C9440008C9440008000000000000000085
:10015000000000000000000000000000000000009F
:10016000000000000000000000000000000000008F
:10017000000000000000000000000000000000007F
:0801800000000000C944000862
:1001880081F0004102E000BF83F0004330B54FEA40
:1001980041044FEA430594EA050F08BF90EA020FAD
:1001A8001FBF54EA000C55EA020C7FEA645C7FEA40
:1001B800655C00F0E2804FEA5454D4EB5555B8BF63
:1001C8006D420CDD2C4480EA020281EA030382EAD4
:1001D800000083EA010180EA020281EA0303362D66
:1001E80088BF30BD11F0004F4FEA01314FF4801C39
:1001F8004CEA113102D0404261EB410113F0004F4B
:100208004FEA03334CEA133302D0524263EB430301
:1002180094EA050F00F0A780A4F10104D5F1200E9F
:100228000DDB02FA0EFC22FA05F2801841F10001FA
:1002380003FA0EF2801843FA05F359410EE0A5F1CE
:1002480020050EF1200E012A03FA0EFC28BF4CF0FF
:10025800020C43FA05F3C01851EBE37101F00045B5
:1002680007D54FF0000EDCF1000C7EEB00006EEBC2
:100278000101B1F5801F1BD3B1F5001F0CD349084C
:100288005FEA30004FEA3C0C04F101044FEA4452A3
:1002980012F5800F80F09A80BCF1004F08BF5FEA2A
:1002A800500C50F1000041EB045141EA050130BD0A
:1002B8005FEA4C0C404141EB0101013C28BFB1F51C
:1002C800801FE9D291F0000F04BF01460020B1FA67
:1002D80081F308BF2033A3F10B03B3F120020CDA3A
:1002E8000C3208DD02F1140CC2F10C0201FA0CF018
:1002F80021FA02F10CE002F11402D8BFC2F1200C7D
:1003080001FA02F120FA0CFCDCBF41EA0C01904032
:10031800E41AA2BF01EB0451294330BD6FEA04047B
:100328001F3C1CDA0C340EDC04F11404C4F1200266
:1003380020FA04F001FA02F340EA030021FA04F378
:1003480045EA030130BDC4F10C04C4F1200220FACF
:1003580002F001FA04F340EA0300294630BD21FA0D
:1003680004F0294630BD94F0000F83F4801306BFD3
:1003780081F480110134013D4EE77FEA645C18BFC7
:100388007FEA655C29D094EA050F08BF90EA020F5E
:1003980005D054EA000C04BF1946104630BD91EA56
:1003A800030F1EBF0021002030BD5FEA545C05D159
:1003B8004000494128BF41F0004130BD14F5800498
:1003C8003CBF01F5801130BD01F0004545F0FE410C
:1003D80041F470014FF0000030BD7FEA645C1ABF41
:1003E800194610467FEA655C1CBF0B46024650EA78
:1003F800013406BF52EA033591EA030F41F40021A4
:1004080030BD00BF90F0000F04BF0021704730B529
:100418004FF4806404F132044FF000054FF00001FE
:1004280050E700BF90F0000F04BF0021704730B5BF
:100438004FF4806404F1320410F0004548BF404294
:100448004FF000013EE700BF42004FEAE2014FEAE9
:1004580031014FEA02701FBF12F07F4393F07F4FC4
:1004680081F06051704732F07F4208BF704793F0C7
:100478007F4F04BF41F40021704730B54FF46074DA
:1004880001F0004521F000411CE700BF50EA0102DD
:1004980008BF704730B54FF000050AE050EA010286
:1004A80008BF704730B511F0004502D5404261EBF6
:1004B80041014FF4806404F132045FEA915C3FF437
:1004C800D8AE4FF003025FEADC0C18BF03325FEAD4
:1004D800DC0C18BF033202EBDC02C2F1200300FA85
:1004E80003FC20FA02F001FA03FE40EA0E0021FAAA
:1004F80002F11444BDE600BF70B54FF0FF0C4CF498
:10050800E06C1CEA11541DBF1CEA135594EA0C0F49
:1005180095EA0C0F00F0DEF82C4481EA030621EA84
:100528004C5123EA4C5350EA013518BF52EA0335BF
:1005380041F4801143F4801338D0A0FB02CE4FF071
:100548000005E1FB02E506F00042E0FB03E54FF0A1
:100558000006E1FB03569CF0000F18BF4EF0010E99
:10056800A4F1FF04B6F5007F64F5407404D25FEA95
:100578004E0E6D4146EB060642EAC62141EA555148
:100588004FEAC52040EA5E504FEACE2EB4F1FD0C8A
:1005980088BFBCF5E06F1ED8BEF1004F08BF5FEA08
:1005A800500E50F1000041EB045170BD06F00046BA
:1005B80046EA010140EA020081EA0301B4EB5C0467
:1005C800C2BFD4EB0C0541EA045170BD41F480115F
:1005D8004FF0000E013C00F3AB8014F1360FDEBF84
:1005E800002001F0004170BDC4F10004203C35DA60
:1005F8000C341BDC04F11404C4F1200500FA05F3E3
:1006080020FA04F001FA05F240EA020001F0004283
:1006180021F0004110EBD37021FA04F642EB0601F9
:100628005EEA430E08BF20EAD37070BDC4F10C0423
:10063800C4F1200500FA04F320FA05F001FA04F2E7
:1006480040EA020001F0004110EBD37041F10001D3
:100658005EEA430E08BF20EAD37070BDC4F12005DE
:1006680000FA05F24EEA020E20FA04F301FA05F246
:1006780043EA020321FA04F001F0004121FA04F2EE
:1006880020EA020000EBD3705EEA430E08BF20EABE
:10069800D37070BD94F0000F0FD101F000464000F8
:1006A80041EB010111F4801F08BF013CF7D041EA7A
:1006B800060195F0000F18BF704703F0004652007E
:1006C80043EB030313F4801F08BF013DF7D043EA4F
:1006D8000603704794EA0C0F0CEA135518BF95EA05
:1006E8000C0F0CD050EA410618BF52EA4306D1D18C
:1006F80081EA030101F000414FF0000070BD50EAAB
:10070800410606BF1046194652EA430619D094EA34
:100718000C0F02D150EA013613D195EA0C0F05D11E
:1007280052EA03361CBF104619460AD181EA030172
:1007380001F0004141F0FE4141F470014FF000002A
:1007480070BD41F0FE4141F4780170BD70B54FF0C5
:10075800FF0C4CF4E06C1CEA11541DBF1CEA135545
:1007680094EA0C0F95EA0C0F00F0A7F8A4EB050427
:1007780081EA030E52EA03354FEA013100F088801E
:100788004FEA03334FF0805545EA131343EA1263E7
:100798004FEA022245EA111545EA10654FEA00269C
:1007A8000EF000419D4208BF964244F1FD0404F555
:1007B800407402D25B084FEA3202B61A65EB0305B1
:1007C8005B084FEA32024FF480104FF4002CB6EB6E
:1007D800020E75EB030E22BFB61A754640EA0C00EE
:1007E8005B084FEA3202B6EB020E75EB030E22BF2E
:1007F800B61A754640EA5C005B084FEA3202B6EB6F
:10080800020E75EB030E22BFB61A754640EA9C002D
:100818005B084FEA3202B6EB020E75EB030E22BFFD
:10082800B61A754640EADC0055EA060E18D04FEABB
:10083800051545EA16754FEA06164FEAC30343EA5B
:1008480052734FEAC2025FEA1C1CC0D111F4801F28
:100858000BD141EA00014FF000004FF0004CB6E721
:1008680011F4801F04BF01430020B4F1FD0C88BFC0
:10087800BCF5E06F3FF6AFAEB5EB030C04BFB6EBCB
:10088800020C5FEA500C50F1000041EB045170BDBE
:100898000EF0004E4EEA113114EB5C04C2BFD4EBEB
:1008A8000C0541EA045170BD41F480114FF0000E6F
:1008B800013C90E645EA060E8DE60CEA135594EAEB
:1008C8000C0F08BF95EA0C0F3FF43BAF94EA0C0FEE
:1008D8000AD150EA01347FF434AF95EA0C0F7FF463
:1008E80025AF104619462CE795EA0C0F06D152EAB7
:1008F80003353FF4FDAE1046194622E750EA41069B
:1009080018BF52EA43067FF4C5AE50EA41047FF4AB
:100918000DAF52EA43057FF4EBAE12E74FF0FF3C10
:1009280006E000BF4FF0010C02E000BF4FF0010CE1
:100938004DF804CD4FEA410C7FEA6C5C4FEA430C5A
:1009480018BF7FEA6C5C1BD001B050EA410C0CBFA9
:1009580052EA430C91EA030F02BF90EA020F00200B
:10096800704710F1000F91EA030F58BF994208BF72
:1009780090422CBFD8176FEAE37040F0010070472F
:100988004FEA410C7FEA6C5C02D150EA013C07D186
:100998004FEA430C7FEA6C5CD6D152EA033CD3D0D1
:1009A8005DF8040B704700BF8446104662468C46CB
:1009B8001946634600E000BF01B5FFF7B7FF0028FE
:1009C80048BF10F1000F01BD4DF808EDFFF7F4FF27
:1009D8000CBF012000205DF808FB00BF4DF808EDB2
:1009E800FFF7EAFF34BF012000205DF808FB00BFD5
:1009F8004DF808EDFFF7E0FF94BF012000205DF8F7
:100A080008FB00BF4DF808EDFFF7CEFF94BF0120AB
:100A180000205DF808FB00BF4DF808EDFFF7C4FFA4
:100A280034BF012000205DF808FB00BF4A0011D246
:100A380012F5001211D20DD56FF47873B3EB625230
:100A48000ED44FEAC12343F0004343EA505323FA3C
:100A580002F070474FF00000704750EA013002D1B1
:100A68004FF0FF3070474FF00000704710B5054C4D
:100A7800237833B9044B13B10448AFF30080012342
:100A8800237010BD18000020000000002445000855
:100A980008B5034B1BB103490348AFF3008008BDF9
:100AA800000000001C00002024450008F0B583B0B9
:100AB80000258DF807508DF80650ADF80450394CD4
:100AC8002060C66801230DF106020721407AB0476D
:100AD80006462068076901230DF107022946407A76
:100AE800B84756FA80F0C5B220689DF80730037001
:100AF800066901230DF107021946407AB04755FAF5
:100B080080F5EDB220689DF807304371066901232E
:100B18000DF107020221407AB04755FA80F5EDB28F
:100B280020689DF807308371066901230DF10702DB
:100B38000321407AB04755FA80F5EDB220689DF858
:100B48000730C371066901230DF107020621407AB7
:100B5800B04755FA80F5EDB220689DF8073003726A
:100B68000669022301AA0421407AB04755FA80F5A4
:100B7800EDB29DF804309DF80520206843EA022371
:100B88004380066901230DF107020721407AB04727
:100B980055FA80F023689DF807201A7140B203B017
:100BA800F0BD00BF3400002038B51346054A14686C
:100BB8002CB1E5680A460146607AA84738BD6FF04F
:100BC8007E00FBE73400002070B582B004460023A5
:100BD8008DF80730124B1868E0B1056901230DF153
:100BE80007020721407AA8470546B0B98DF80740A3
:100BF8000B4B1868C66801230DF107020721407ADC
:100C0800B04755FA80F358B210B9054B1B681C71F0
:100C180002B070BD6FF07E00FAE74FF0FF30F7E7E3
:100C28003400002030B583B004461D4B93E8030020
:100C38000090ADF804101B4B1B6853B31B7913BB12
:100C4800184B1B681B793BBB164B186805690623B4
:100C58006A461A21407AA8479DF901209DF800307C
:100C680043EA022323809DF903209DF8023043EADA
:100C7800022363809DF905209DF8043043EA02238E
:100C8800A38003B030BD0020FFF79EFF0028DBD013
:100C9800D6E76FF07E00F4E74FF0FF30F1E700BFD2
:100CA8003C4500083400002030B583B000238DF89F
:100CB8000730134B1B68E3B104461B799BB9104BF3
:100CC8001B681B79C3B90E4B1868056901230DF120
:100CD80007023B21407AA8479DF80730C3F38003F9
:100CE800237003B030BD0020FFF76EFF0028EAD064
:100CF800E5E76FF07E00F4E74FF0FF30F1E700BF63
:100D08003400002030B583B000238DF80730134B32
:100D18001B68E3B104461B799BB9104B1B681B7910
:100D2800C3B90E4B1868056901230DF107023D216F
:100D3800407AA8479DF8073003F00F03237003B0EB
:100D480030BD0020FFF740FF0028EAD0E5E76FF04C
:100D58007E00F4E74FF0FF30F1E700BF34000020D9
:100D680070B582B000238DF807308DF80630424BFD
:100D78001B68002B7AD005460DF10600FFF7C2FF6D
:100D8800002876D19DF806303BBB3B4B18680469B8
:100D980001230DF107023D21407AA0470446C8B956
:100DA8009DF8070020F00F0305F00F0018438DF899
:100DB8000700314D2868C66801230DF107023D215F
:100DC800407AB04754FA80F044B22B685B694FF41C
:100DD80016709847204602B070BD274B1868046902
:100DE80001230DF107023D21407AA047044640B394
:100DF800002DEFD0204B1868046901230DF107027C
:100E08003D21407AA04704460028E3D19DF80730E9
:100E180023F00F0305F00F0003438DF80730164D3C
:100E28002868C66801230DF107023D21407AB047C2
:100E380054FA80F044B22B685B694FF416709847F7
:100E4800C8E79DF8073003F0F0038DF8073001225A
:100E58000DF107013D20FFF7A7FE54FA80F044B2D8
:100E6800054B1B685B6914209847C1E76FF07E0447
:100E7800B0E74FF0FF34ADE73400002030B583B061
:100E880000238DF807308DF80630254B1B68002BA2
:100E980043D005460DF10600FFF734FF044658BB62
:100EA8009DF8063013BB7CBB1D4B186804690123F1
:100EB8000DF107023B21407AA0470446F0B99DF89E
:100EC8000730A80000F0040023F0040303438DF862
:100ED8000730134B1868C56801230DF107023B2141
:100EE800407AA84754FA80F044B207E0FFF738FF89
:100EF80054FA80F464B2D6E74FF0FF349DF8060048
:100F080028B9204603B030BD4FF0FF34F6E7FFF7AD
:100F180027FF54FA80F044B2F3E76FF07E04F0E75D
:100F28003400002030B585B005460023ADF8083000
:100F3800ADF80A30ADF80C308DF807300DF1070028
:100F4800FFF7B2FE04469DF8073043BB74BB02A806
:100F5800FFF768FE54FA80F464B254BBBDF9080088
:100F6800FFF760FA0022144BFFF7C6FAC5E9000143
:100F7800BDF90C00FFF756FA00220F4BFFF7BCFA39
:100F8800C5E90401BDF90A00FFF74CFA00220A4B33
:100F9800FFF7B2FAC5E90201204605B030BD0020CE
:100FA800FFF76CFF54FA80F464B2CFE74FF0FF34D8
:100FB800F2E74FF0FF34EFE70000B03F30B583B001
:100FC80000238DF807308DF80630254B1B68002B61
:100FD80042D005460DF10600FFF794FE044650BBCB
:100FE8009DF806300BBB74BB1D4B186804690123C0
:100FF8000DF107023E21407AA0470446E8B99DF862
:10100800073023F0030305F0030003438DF807308E
:10101800134B1868C56801230DF107023E21407A79
:10102800A84754FA80F044B207E0FFF799FE54FA53
:1010380080F464B2D7E74FF0FF349DF8060028B972
:10104800204603B030BD4FF0FF34F6E7FFF788FEC7
:1010580054FA80F044B2F3E76FF07E04F0E700BF83
:101068003400002000B585B08DF80810002109E093
:1010780001F1010C12F801E01131694401F808ECA2
:101088005FFA8CF19942F3D30A220092013302AA43
:101098004100064801F098FA0346002801DD4FF0A8
:1010A800FF3358B205B05DF804FB00BFF80100201B
:1010B8002DE9F04184B015461C46002302930393A2
:1010C8008DF808104FEA4008134E64270097012353
:1010D80002AA4146304601F077FA0097234602AA51
:1010E80048F00101304601F02DFB0346002801DDE0
:1010F8004FF0FF33002109E001F110020DEB020C63
:101108001CF808CC05F801C00131C9B2A142F3D3DB
:1011180058B204B0BDE8F081F801002008B500F02D
:101128001DFF08BD70B588B000240394049405948D
:10113800069407941D4B5A6942F400325A615A6961
:1011480002F400320192019A5A6942F480225A61EB
:101158005B6903F480230293029B02250395032312
:10116800049303A94FF0904000F09AFF18230393CB
:101178004FF4881304930126059603A94FF0904075
:1011880000F08EFF03964FF444130493059503A9CA
:10119800074800F085FF22462146062000F04AFF56
:1011A800062000F057FF08B070BD00BF00100240D5
:1011B8000004004872B6FEE710B59AB000241694F1
:1011C8001794189419941394149415940C940D94DA
:1011D8000E940F941094119412942C22214601A875
:1011E80003F094F93E483F4B036001234360846059
:1011F8004FF6FF73C36004614461846102F01AFC16
:1012080000285BD14FF48053169316A9344802F096
:1012180059FD002854D1324802F03CFC002851D135
:10122800002313931493159313A92D4802F0B4FEC9
:10123800002849D160230C9345F255530D930022A1
:101248000E920F921092119212920CA9244802F059
:101258008FFC00283AD100230D9304220CA92048C2
:1012680002F086FC002833D108220CA91C4802F0A1
:101278007FFC00282ED145F255530D930C220CA962
:10128800174802F075FC38BB0023019302930393BF
:10129800049305934FF400520692079308934FF076
:1012A800007209920A930B9301A90D4802F0B0FE4F
:1012B800A0B90B4800F02EFD1AB010BDFFF77AFF59
:1012C800FFF778FFFFF776FFFFF774FFFFF772FF6E
:1012D800FFF770FFFFF76EFFFFF76CFFFFF76AFF7E
:1012E80048010020002C014008B51148114B03604B
:1012F800114B4360002383600122C2600361436194
:101308008361C361036201F000F950B90021084804
:1013180001F0D6FA38B90021054801F0FFFA20B9E2
:1013280008BDFFF747FFFFF745FFFFF743FF00BF83
:10133800F8010020005400400E09002008B50D48AF
:101348000D4B03604FF41653436000238360C36062
:1013580003610C2242618361C3610362102343620B
:101368004FF48053836303F052F800B908BDFFF7C8
:1013780021FF00BF780000200044004008B5104855
:10138800104B03604FF4827343604FF480638360B3
:101398004FF44073C3600023036143614FF400724C
:1013A8008261C3610362436283620722C26203638C
:1013B8000823436301F0FAFF00B908BDFFF7FAFEFE
:1013C800940100200030014000B589B00023049347
:1013D80005930693079301930293039313484FF0E1
:1013E800804202602B22426083604FF0FF32C2606D
:1013F8000361836102F01EFB90B94FF4805304939C
:1014080004A90A4802F05EFC60B900230193039323
:1014180001A9064802F0C0FD30B909B05DF804FB27
:10142800FFF7C8FEFFF7C6FEFFF7C4FEFC0000206A
:1014380000B597B0282200210CA803F067F8002314
:101448000793089309930A930B93019302930393C9
:1014580004930593069302230C9301221092102201
:10146800119213934FF4101315930CA801F082FAFC
:10147800D8B90F23079302230893002309934FF445
:1014880080630A930B93012107A801F0C3FD70B98B
:101498004FF48153019300230493069301A801F0AC
:1014A800BFFE30B917B05DF804FBFFF783FEFFF706
:1014B80081FEFFF77FFE0000F0B52DED048BD3B061
:1014C80000F028FDFFF7B4FFFFF72CFEFFF774FECE
:1014D800FFF70AFFFFF732FFFFF750FFFFF774FF30
:1014E8008D4802F01BF98D488D4B03618D4BC3600D
:1014F8008D4B436128234372FFF7D8FA0020FFF78A
:101508005DFD0C20FFF72CFC4CA8FFF70BFD002815
:10151800FAD1DDE95023104623F00041CDE912014C
:10152800DDE94E23CDE910239FED618B002701975C
:10153800012600969FED602BB0EE481AF0EE681A6F
:101548009FED5F0B12AB794A50A930A800F0C8FA9A
:10155800314630A800F0D4F90A2130A800F004FB85
:101568009FED599B9FED5A1BB0EE490AF0EE690AB0
:1015780030A800F0D4F9019700969FED572BB0EEF4
:10158800481AF0EE681A9FED560B10AB684A4EA940
:1015980014A800F0A5FA314614A800F0B1F90A2100
:1015A80014A800F0E1FA9FED501BB0EE490AF0EEE6
:1015B800690A14A800F0B3F95E4E304602F0E4F868
:1015C8003946304602F00EFC0421304602F00AFC8F
:1015D8000821304602F006FC45A3D3E90023CDE9F3
:1015E8000223554B0493554B059343A3D3E900239A
:1015F800CDE906238DED088B41A3D3E90023CDE97E
:101608000A2341A3D3E90023CDE90C2300F0A0FC71
:101618000E904B4B00204B49C3E9000100F098FCA9
:101628000646494B45F25552DA6300F091FC801B9F
:1016380040F6B7339842F8D9444B00221A7034A3C5
:10164800D3E900233E49D1E90001FEF755FF30A355
:10165800D3E90023FEF79AFDFFF7E8F93A4BD86380
:1016680000F076FC064600F073FC801BB0F5FA7FAC
:10167800F9D3062000F0FCFC4CA8FFF753FC002827
:10168800FAD1DDE95023144623F00045CDE9504551
:10169800192000F0EDFC30A800F082F814A800F042
:1016A8007FF8192000F0D6FCE6E700BFAFF3008012
:1016B80000000000000000000000000000804B4017
:1016C8000000000000805B40000000004055C5C0DD
:1016D800000000004078C5400000000000004440C1
:1016E8000000000000F07040000000004055C540B8
:1016F800000000E0E2362A3F9A9999999999D93FD2
:10170800333333333333D33F666666666666E63F04
:10171800000000004055D540FC000020600000207B
:10172800B91000086D1000082511000848000020B5
:1017380040000020480100205800002050000020F0
:10174800000000200000E03F002C01403C00002089
:101758002DE9D0430446436CD3E90067C0E9146718
:10176800036CD3E90023C0E91623D0E91A8942465D
:101778004B4630463946FFF74FF918B1C4E914898A
:10178800BDE8D083D4E9188942464B4630463946ED
:10179800FFF724F90028F3D0C4E91489F0E7000022
:1017A8002DE9F04F2DED04AB85B00446407820B903
:1017B80005B0BDEC04ABBDE8F08F00F0C9FB0546F1
:1017C8006368C31AA2689A4200F29480236CD3E932
:1017D8000089A36CD3E9002340464946FEF7D4FCB0
:1017E80006460F46CDE90267D4E916234046494626
:1017F800FEF7CAFCCDE90001D4E914AB32463B46FA
:10180800D4E90C01FEF778FE02460B4650465946CD
:10181800FEF7BCFC06460F46C4E9146794F800A01E
:10182800BAF1000F0DD1DDE90023D4E90A01FEF772
:1018380063FE02460B4630463946FEF7A5FCC4E96E
:10184800140194ED14ABD4E91A6732463B4651ECC7
:101858001A0BFFF7E1F800283AD0C4E91467BAF187
:10186800000F42D0DDE90223D4E90A01FEF744FE65
:10187800CDE90201D4E914ABDDE90023D4E90E0176
:10188800FEF73AFE02460B4650465946FEF77EFCE6
:10189800DDE90223FEF77AFC82468B4602460B46B8
:1018A80030463946FFF79AF850B9D4E918675246D6
:1018B8005B4630463946FFF7AFF808B956465F46EB
:1018C800636CC3E90067C4E91689656001206FE7A6
:1018D80094ED18BB53EC1B2B51EC1A0BFFF77EF859
:1018E8000028BCD084ED14BBB9E79FED037B8DEDD8
:1018F800027BBFE700205BE700000000000000005B
:1019080038B5044601290CBF0125002501D06570B2
:1019180038BD4378002BFAD1FFF71AFFF7E72DE916
:10192800F84F044659EC108B57EC116B32463B4686
:1019380040464946FFF766F8F0B9C4E91889C4E992
:101948001A676378C3B1656CD5E900AB32463B468C
:1019580050465946FFF760F880B1C5E90067D4E9F9
:101968001467D4E91A8942464B4630463946FFF790
:1019780053F870B1C4E91489BDE8F88F42464B4664
:1019880050465946FFF72AF80028E8D0C5E90089EB
:10199800E5E7D4E9188942464B4630463946FFF711
:1019A8001DF80028E8D0C4E91489E5E72DE9D04FEF
:1019B8002DED048B04465BEC10AB57EC116BB0EECD
:1019C800428AF0EE628A8846002200235046594631
:1019D800FFF704F8002842D1002200233046394698
:1019E800FEF7FCFF00283AD10022002351EC180B27
:1019F800FEF7F4FF002832D184F80280B8F1010F15
:101A080014BF4FF000084FF0010884F80080C4E9C3
:101A180004ABC4E9066784ED088BA068FEF7F2FC06
:101A280000221D4BFEF792FE80468946C4E90AABA8
:101A380002460B4630463946FEF75EFD41EC190B6F
:101A4800C4E90C0142464B4651EC180BFEF77EFEEA
:101A580006460F46C4E90E67E378012B03D0BDECB8
:101A6800048BBDE8D08F52465B4600200021FEF76C
:101A78008BFBC4E90A0153EC192B00200021FEF767
:101A880083FBC4E90C0132463B4600200021FEF7E7
:101A98007BFBC4E90E01E2E700408F4038B50446FD
:101AA8000D464378D3B1C3788B4217D0D0E90A23C7
:101AB80000200021FEF768FBC4E90A01D4E90C23E1
:101AC80000200021FEF760FBC4E90C01D4E90E23D5
:101AD80000200021FEF758FBC4E90E01E57038BD6F
:101AE80010B52DED068B0446B0EE408AF0EE608A04
:101AF800B0EE419AF0EE619AB0EE42AAF0EE62AA18
:101B0800426401648364002343709FED131B9FEDBF
:101B1800140BFFF704FF6423A3609DF824102046EC
:101B2800FFF7BCFF9DF82010B0EE4A2AF0EE6A2AB3
:101B3800B0EE491AF0EE691AB0EE480AF0EE680AFB
:101B48002046FFF733FF00F003FAA368C01A60606D
:101B5800BDEC068B10BD00BF0000000000E06F4028
:101B68000000000000000000F8B50D1E21DD04464D
:101B78002846FEF757FC06460F46A068FEF742FCCB
:101B880002460B4630463946FEF7E0FD06460F464C
:101B980002460B46D4E90C01FEF7AEFCC4E90C0181
:101BA80032463B46D4E90E01FEF7D0FDC4E90E01EA
:101BB800A560F8BD82B00A4B9A6942F001029A61A9
:101BC8009A6902F001020092009ADA6942F08052A2
:101BD800DA61DB6903F080530193019B02B070471F
:101BE8000010024010B588B00023039304930593B6
:101BF800069307930268124B9A4201D008B010BDB1
:101C0800104C636943F480236361636903F48023A0
:101C18000193019BC0230393122304930323069388
:101C28000423079303A9084800F03AFAE36943F448
:101C38000013E361E36903F400130293029BDDE7F9
:101C480000540040001002400004004800B589B06C
:101C58000023039304930593069307930268144B98
:101C68009A4202D009B05DF804FB03F560439A6913
:101C780042F480529A619A6902F480520192019A60
:101C88005A6942F400325A615B6903F400330293E3
:101C9800029B6023039302230493032306930523E3
:101CA800079303A94FF0904000F0FAF9DAE700BF74
:101CB8000030014000B583B00368144A934205D050
:101CC800B3F1804F15D003B05DF804FB104B9A694F
:101CD80042F400629A619B6903F400630093009BDD
:101CE80000220A21192000F0A5F9192000F0B2F904
:101CF800E9E703F50433DA6942F00102DA61DB69E6
:101D080003F001030193019BDDE700BF002C0140B4
:101D18000010024010B586B000230193029303938C
:101D2800049305930268154B9A4201D006B010BD82
:101D380003F564435A6942F400325A615B6903F45B
:101D480000330093009B4FF4E06301930224029454
:101D58000623059301A94FF0904000F0A1F94FF434
:101D68000063019302940023039304930B230593C8
:101D780001A94FF0904000F093F9D7E7002C0140FB
:101D880070B588B0002303930493059306930793D3
:101D980002681D4B9A4201D008B070BD03F5E633C6
:101DA800DA6942F40032DA61DA6902F40032009248
:101DB800009A5A6942F400325A615A6902F40032B0
:101DC8000192019A5A6942F480225A615B6903F4CC
:101DD80080230293029B042303930226049603257F
:101DE80006950724079403A94FF0904000F058F98E
:101DF800102303930496002305930695079403A9DB
:101E0800024800F04DF9C7E70044004000040048CC
:101E1800FEE7FEE7FEE7FEE7FEE77047704770471C
:101E280008B500F089F808BD10B5062000F020F9C3
:101E38004FF08043596A094A116000245C6201200E
:101E480000F00EFA234601E000BF0133B3F5806FBE
:101E5800FADB062000F0FEF810BD00BF38000020B5
:101E680010B50F4BD3E9002300200E49FEF78CF97B
:101E7800FEF7DCFD0C4C60630C4BD3E9002306A194
:101E8800D1E90001FEF780F9FEF7D0FDA06308480C
:101E980001F0BAFC10BD00BF000000000077E1406F
:101EA800480000200000E040002C014040000020D5
:101EB80048010020034AD2F8883043F47003C2F87E
:101EC8008830704700ED00E010B504460E4B1A78D4
:101ED8004FF47A73B3FBF2F30C4A1068B0FBF3F0DB
:101EE80000F0CAF868B90F2C01D901200AE00022D5
:101EF80021464FF0FF3000F09DF8054B1C60002094
:101F080000E0012010BD00BF0C00002008000020E8
:101F18001000002008B5074A136843F01003136047
:101F2800032000F075F80F20FFF7CEFFFFF742FE01
:101F3800002008BD00200240034A1168034B1B78AB
:101F48000B441360704700BF440200200C000020BF
:101F5800014B1868704700BF4402002038B504469A
:101F6800FFF7F6FF0546B4F1FF3F02D0044B1B789C
:101F78001C44FFF7EDFF401BA042FAD338BD00BF59
:101F88000C00002000280CDB00F01F024009012390
:101F980093402030034A42F82030BFF34F8FBFF3FD
:101FA8006F8F704700E100E0002808DB0901C9B223
:101FB80000F1604000F5614080F80013704700F0C0
:101FC8000F000901C9B2014B1954704714ED00E024
:101FD80000B500F00700C0F1070CBCF1040F28BFE2
:101FE8004FF0040C031D062B0FD9C31E4FF0FF3E04
:101FF8000EFA0CF021EA000199400EFA03FE22EADB
:102008000E0241EA02005DF804FB0023EEE700003F
:10201800074AD36823F4E0631B041B0C000200F496
:10202800E060034343F0BF6343F40033D360704779
:1020380000ED00E010B50446054BD868C0F3022057
:10204800FFF7C6FF01462046FFF7AEFF10BD00BFF1
:1020580000ED00E0002807DB00F01F024009012323
:102068009340024A42F82030704700BF00E100E088
:1020780008B5FFF787FF08BD0138B0F1807F0BD2A4
:102088004FF0E0235861054AF02182F82310002020
:10209800986107221A6170470120704700ED00E03F
:1020A800F0B583B0002362E085685E000324B44085
:1020B80025EA0405CC68B4402C438460456825EAC9
:1020C8000C054C68C4F300149C402C4344605FE04A
:1020D800DD08083550F8254003F0070C4FEA8C0C52
:1020E8004FF00F0E0EFA0CFE24EA0E0E0C6904FADD
:1020F8000CF444EA0E0440F8254060E0032400E0B4
:10210800002404FA0EF42C430CF1020C4F4D45F850
:102118002C404F4C2568D44325EA02064F6817F433
:10212800803F01D042EA0506494D2E606D6804EAF9
:1021380005064F6817F4003F01D042EA0506444DF2
:102148006E60AD6804EA05064F6817F4801F01D079
:1021580042EA05063E4DAE60ED682C404E6816F426
:10216800001F01D042EA0504394AD46001330A68E5
:1021780032FA03F468D04FF0010C0CFA03FC1CEAA5
:102188000202F3D04C6804F00304013C012C8BD903
:102198004C6804F00304032C0CD0C4685D004FF0B5
:1021A800030C0CFA05FC24EA0C0C8C68AC4044EADD
:1021B8000C04C4604C6804F00304022C88D0046842
:1021C8004FEA430E4FF0030C0CFA0EFC24EA0C0CF9
:1021D8004C6804F0030404FA0EF444EA0C040460A6
:1021E8004C6814F4403FC1D01A4CA56945F001056C
:1021F800A561A46904F001040194019C4FEA930CC1
:102208000CF10205114C54F8255003F0030E4FEA67
:102218008E0E0F2404FA0EF425EA0405B0F1904F4F
:102228003FF46EAF0C4CA0420AD004F58064A04283
:1022380008D004F58064A0423FF460AF052460E74D
:1022480001245EE702245CE703B0F0BD0000014012
:1022580000040140001002400004004870470000DC
:1022680008B5054B5B69034200D108BD024B5861B4
:10227800FFF7F4FFF9E700BF0004014003689A691B
:1022880012F0020F01D000229A6203689A6912F0D4
:10229800010F03D19A6942F001029A61704730B484
:1022A800029D046860684FEA555C0CF4806C4CF041
:1022B8007F7C4CF4583C4CF47F7C4CF0030C20EAB7
:1022C8000C00C1F3090141EA0241194329430843BB
:1022D800606030BC7047F8B50E460368996911F024
:1022E800100F46D0054617465A6812F0007F03D1F2
:1022F8005A6842F480425A602B689C6914F0200F97
:1023080017D1B6F1FF3FF7D0FFF722FEC01BB0424E
:1023180001D8002EF0D16B6C43F020036B642023AE
:1023280085F84130002385F8423085F84030012097
:1023380020E01022DA612B682024DC612846FFF7B0
:102348009DFF2A68536823F0FF7323F48B3323F42B
:10235800FF7323F0010353606B6C43F004036B6459
:1023680085F84140002385F8423085F84030012047
:1023780000E00020F8BD70B504460D4616462368F7
:102388009B6913F0020F1DD1324629462046FFF7FC
:10239800A2FFC8B9B5F1FF3FF1D0FFF7D9FD801B07
:1023A800A84201D8002DEAD1636C43F0200363648E
:1023B800202384F84130002384F8423084F84030E8
:1023C800012000E0002070BD0120FCE72DE9F0416C
:1023D8000646884617461D463468A46938EA040448
:1023E8000CBF01240024BC4218D1B5F1FF3FF3D043
:1023F800FFF7AEFD069BC01AA84201D8002DEBD10D
:10240800736C43F020037364202386F84130002363
:1024180086F8423086F84030012000E00020BDE810
:10242800F08170B505460C4616462B689B6913F07B
:10243800200F1AD1324621462846FFF74CFFB0B983
:10244800FFF786FD801BA04201D8002CEDD16B6CF4
:1024580043F020036B64202385F84130002385F87E
:10246800423085F84030012070BD0020FCE7012093
:10247800FAE770B504460D46164623689B6913F0C3
:10248800040F3ED1324629462046FFF724FF014675
:10249800002838D123689A6912F0200F13D1FFF76A
:1024A80057FD801BA84201D8002DE6D1636C43F08C
:1024B80020036364202384F84130002384F84030EB
:1024C8000121084670BD9A6912F0040F02D0228DCE
:1024D800002AF6D12022DA6121684B6823F0FF73C5
:1024E80023F48B3323F4FF7323F001034B600023A1
:1024F800636484F8412084F8423084F84030012134
:10250800DFE70021DDE70121DBE7002859D010B51E
:10251800044690F84130002B43D0242384F84130FE
:102528002268136823F0010313606368226823F0AC
:10253800706313612268936823F400439360E3682F
:10254800012B33D0A368226843F404439360E36803
:10255800022B31D02268536843F0007343F40043E0
:1025680053602268D36823F40043D3602369626907
:102578001343A169226843EA0123D360E369216A0E
:1025880022680B4313602268136843F00103136049
:1025980000206064202384F84130206384F84200DE
:1025A80010BD80F84030FFF71DFBB6E7A36822682E
:1025B80043F400439360CAE723684FF400625A600B
:1025C800C8E70120704700002DE9F04782B00F46A8
:1025D8000A9E90F84110C9B2202940F0A380044611
:1025E8009046994690F84030012B00F09F804FF0BC
:1025F800010A80F840A0FFF7ABFC054600901923BC
:1026080052464FF400412046FFF7E0FE002840F014
:102618008F80212384F84130102384F8423000232E
:102628006364C4F82480A4F82A906363638D9BB222
:10263800FF2B0AD9FF222285414B00934FF080736C
:1026480039462046FFF72BFE18E0628D92B22285AC
:102658003B4B00934FF00073D2B239462046FFF748
:102668001EFE0BE0628D92B22285002300934FF08C
:102678000073D2B239462046FFF711FE638D9BB234
:10268800002B33D02A4631462046FFF774FE002837
:1026980050D1626A236812789A62636A013363626E
:1026A800638D9BB2013B9BB26385238D013B9BB23B
:1026B8002385628D92B2002AE0D0002BDED10095EE
:1026C8003346002280212046FFF780FEA0BB638DA1
:1026D8009BB2FF2BC6D9FF222285002300934FF01F
:1026E800807339462046FFF7DAFDC7E72A463146A8
:1026F8002046FFF796FE08BB23682022DA6121688E
:102708004B6823F0FF7323F48B3323F4FF7323F018
:1027180001034B6084F84120002384F8423084F898
:10272800403000E0022002B0BDE8F0870220FAE75E
:102738000120F8E70120F6E70120F4E70120F2E79D
:10274800002000802DE9F04782B00F460A9E90F8DD
:102758004110C9B2202940F0A2800446904699460B
:1027680090F84030012B00F09E804FF0010A80F86D
:1027780040A0FFF7EDFB05460090192352464FF4A1
:1027880000412046FFF722FE002840F08E802223D9
:1027980084F84130102384F8423000236364C4F87D
:1027A8002480A4F82A906363638D9BB2FF2B0AD917
:1027B800FF222285414B00934FF080733946204613
:1027C800FFF76DFD18E0628D92B222853B4B0093B6
:1027D8004FF00073D2B239462046FFF760FD0BE098
:1027E800628D92B22285002300934FF00073D2B21B
:1027F80039462046FFF753FD638D9BB2002B32D03C
:102808002A4631462046FFF734FE00284FD1236878
:102818005A6A636A1A70636A01336362228D013AE5
:1028280092B22285638D9BB2013B9BB26385638D17
:102838009BB2002BE0D0002ADED1009533468021E0
:102848002046FFF7C3FDA0BB638D9BB2FF2BC7D902
:10285800FF222285002300934FF0807339462046DB
:10286800FFF71DFDC8E72A4631462046FFF7D9FD88
:1028780008BB23682022DA6121684B6823F0FF73C4
:1028880023F48B3323F4FF7323F001034B6084F8A4
:102898004120002384F8423084F8403000E00220D0
:1028A80002B0BDE8F0870220FAE70120F8E701202E
:1028B800F6E70120F4E70120F2E700BF00240080DA
:1028C800034690F84120D2B2202A23D190F8402024
:1028D800012A21D0012280F84020242280F84120BA
:1028E8000068026822F0010202601868026822F497
:1028F80080520260186802681143016019680A680A
:1029080042F001020A60202283F84120002083F867
:10291800400070470220704702207047034690F835
:102928004120D2B2202A21D190F84020012A1FD07C
:10293800012280F84020242280F8412000680268A3
:1029480022F0010202601868026822F4706242EA0A
:102958000122026019680A6842F001020A60202216
:1029680083F84120002083F8400070470220704718
:1029780002207047002800F0FF8270B582B004463C
:10298800036813F0010F3BD0B44B5B6803F00C03F2
:10299800042B1ED0B14B5B6803F00C03082B13D03B
:1029A8006368B3F5803F68D0002B40F0928003F154
:1029B800804303F504331A6822F480321A601A68D7
:1029C80022F480221A605DE0A44B5B6813F4803F18
:1029D800E6D04FF4003393FAA3F3A04B19684FF4F1
:1029E800003393FAA3F3B3FA83F303F01F0301222E
:1029F80002FA03F30B4203D06368002B00F0BE8297
:102A0800236813F0020F00F0C480944B5B6813F046
:102A18000C0F00F09C80914B5B6803F00C03082BB3
:102A280000F08F802369002B00F0F080012292FAD9
:102A3800A2F3B3FA83F303F1845303F584139B00E1
:102A48001A60FFF785FA0546022393FAA3F3834B2E
:102A58001968022393FAA3F3B3FA83F303F01F036D
:102A6800012202FA03F30B4240F0C280FFF770FA2A
:102A7800401B0228E8D9032089E2784A136843F406
:102A880080331360754AD36A23F00F03A1680B43A0
:102A9800D3626368002B36D0FFF75AFA05464FF425
:102AA800003393FAA3F36D4B19684FF4003393FA8C
:102AB800A3F3B3FA83F303F01F03012202FA03F32B
:102AC8000B429DD1FFF744FA401B6428E7D9032045
:102AD8005DE2B3F5A02F09D0604B1A6822F480326A
:102AE8001A601A6822F480221A60CBE703F1804347
:102AF800A3F53C331A6842F480221A601A6842F43B
:102B080080321A60BEE7FFF723FA05464FF4003318
:102B180093FAA3F3514B19684FF4003393FAA3F3D4
:102B2800B3FA83F303F01F03012202FA03F30B4203
:102B38003FF466AFFFF70CFA401B6428E6D9032080
:102B480025E2464B5B6813F4803F7FF46BAF0223AA
:102B580093FAA3F3414B1968022393FAA3F3B3FA48
:102B680083F303F01F03012202FA03F30B4203D09D
:102B78002369934240F004823848036823F0F8033D
:102B88006169F82292FAA2F2B2FA82F291400B43FA
:102B98000360236813F0080F00F08C80A369002BF2
:102BA80060D0012191FAA1F2B2FA82F22C4B1344BF
:102BB8009B001960FFF7CCF90546022393FAA3F2AC
:102BC80093FAA3F293FAA3F2244A516A93FAA3F36D
:102BD800B3FA83F303F01F03012202FA03F30B4253
:102BE80068D1FFF7B5F9401B0228E6D90320CEE1EA
:102BF8001A48036823F0F8036169F82292FAA2F2EE
:102C0800B2FA82F291400B430360C2E7012393FAC0
:102C1800A3F3B3FA83F303F1845303F584139B00FE
:102C280000221A60FFF794F90546022393FAA3F3EA
:102C38000A4B1968022393FAA3F3B3FA83F303F058
:102C48001F03012202FA03F30B42A2D0FFF780F917
:102C5800401B0228E9D9032099E100BF0010024077
:102C680020819010012292FAA2F2B2FA82F2B74BB6
:102C780013449B0000221A60FFF76AF905460223F5
:102C880093FAA3F293FAA3F293FAA3F2B04A516A21
:102C980093FAA3F3B3FA83F303F01F03012202FAB2
:102CA80003F30B4206D0FFF753F9401B0228E6D97D
:102CB80003206CE1236813F0040F00F0A980A44BF3
:102CC800DB6913F0805F20D1A14BDA6942F08052B2
:102CD800DA61DB6903F080530193019B01259D4B69
:102CE8001B6813F4807F12D0E368012B23D073BBD9
:102CF80003F1804303F504331A6A22F001021A62D1
:102D08001A6A22F004021A621AE00025E7E7914ADB
:102D1800136843F480731360FFF71AF906468D4B66
:102D28001B6813F4807FDFD1FFF712F9801B64283A
:102D3800F5D903202BE1864A136A43F00103136295
:102D4800E368002B3CD0FFF703F906462EE0052B7D
:102D580009D07F4B1A6A22F001021A621A6A22F01D
:102D680004021A62ECE77A4B1A6A42F004021A6209
:102D78001A6A42F001021A62E2E7022393FAA3F305
:102D8800734B596A022393FAA3F3B3FA83F303F05C
:102D98001F03012202FA03F3194238D1FFF7D8F8CA
:102DA800801B41F28833984200F2EC80022393FAA8
:102DB800A3F293FAA3F3002BDFD0654B196AE1E77E
:102DC800FFF7C6F8064618E0022393FAA3F3604B10
:102DD800596A022393FAA3F3B3FA83F303F01F03A8
:102DE800012202FA03F3194211D0FFF7B1F8801B50
:102DF80041F28833984200F2C780022393FAA3F283
:102E080093FAA3F3002BDFD0514B196AE1E7B5BB66
:102E1800E369002B00F0BA804D4A526802F00C02B8
:102E2800082A00F09980022B2FD04FF0807393FA74
:102E3800A3F3B3FA83F303F1845303F584139B00DC
:102E480000221A60FFF784F804464FF0007393FAE3
:102E5800A3F33F4B19684FF0007393FAA3F3B3FA47
:102E680083F303F01F03012202FA03F319426BD024
:102E7800FFF76EF8001B0228E7D9032087E0344AE1
:102E8800D36923F08053D361C2E74FF0807393FA7C
:102E9800A3F3B3FA83F303F1845303F584139B007C
:102EA80000221A60FFF754F805464FF0007393FAB2
:102EB800A3F3274B19684FF0007393FAA3F3B3FAFF
:102EC80083F303F01F03012202FA03F3194206D029
:102ED800FFF73EF8401B0228E7D9032057E01C49BA
:102EE8004B6823F47413626A206A024313434B60ED
:102EF8004FF0807393FAA3F3B3FA83F303F1845387
:102F080003F584139B0001221A60FFF721F8044699
:102F18004FF0007393FAA3F30D4B19684FF0007349
:102F280093FAA3F3B3FA83F303F01F03012202FA1F
:102F380003F3194206D1FFF70BF8001B0228E7D963
:102F4800032024E0002022E0002020E020819010CF
:102F58000010024000700040012B1AD0104B5B6833
:102F680003F48031226A914215D103F47013626A26
:102F7800934212D100200AE001207047012006E0A8
:102F8800012004E0032002E0032000E0002002B05A
:102F980070BD0120FBE70120F9E70120F7E700BF3A
:102FA80000100240164B5B6803F00C02082A01D09F
:102FB8001448704703F470114FF4701292FAA2F299
:102FC800B2FA82F221FA02F20F49885C0C4AD26AFC
:102FD80002F00F020F2191FAA1F1B1FA81F1CA4072
:102FE8000A498A5C13F4803F05D0064BB3FBF2F321
:102FF80003FB00F07047064B03FB00F0704700BF6F
:103008000010024000127A00884500087845000840
:1030180000093D00002800F0BE8070B50D4604464A
:10302800614B1B6803F007038B420BD25E4A13689F
:1030380023F007030B431360136803F007038B4265
:1030480040F0AB80236813F0020F06D0574A53684C
:1030580023F0F003A1680B435360236813F0010FBA
:103068005AD06368012B2DD0022B40D0022292FA4D
:10307800A2F24E4A1068022292FAA2F2B2FA82F240
:1030880002F01F02012101FA02F2104200F08780CB
:1030980046494A6822F0030213434B60FEF758FF83
:1030A8000646424B5B6803F00C036268B3EB820F81
:1030B80032D0FEF74DFF801B41F288339842F0D999
:1030C800032067E04FF4003292FAA2F2374A106800
:1030D8004FF4003292FAA2F2B2FA82F202F01F0220
:1030E800012101FA02F20242D2D1012052E04FF04E
:1030F800007292FAA2F22D4A10684FF0007292FA0A
:10310800A2F2B2FA82F202F01F02012101FA02F2DF
:103118001042BDD101203DE0234B1B6803F007039B
:10312800AB420AD9204A136823F007032B431360E4
:10313800136803F00703AB4233D1236813F0040F7D
:1031480006D01A4A536823F4E063E1680B435360DE
:10315800236813F0080F07D0144A536823F4605308
:10316800216943EAC1035360FFF71CFF0F4B5B68FB
:1031780003F0F003F02292FAA2F2B2FA82F2D340FC
:103188000B4AD35CD8400B4B18600B4B1868FEF702
:103198009BFE002070BD012070470120FAE7012046
:1031A800F8E70120F6E700BF0020024000100240C7
:1031B800684500080800002010000020014B18682E
:1031C800704700BF0800002008B5FFF7F7FF074B5E
:1031D8005B6803F4E0634FF4E06292FAA2F2B2FA99
:1031E80082F2D340024AD35CD84008BD00100240A6
:1031F8006045000808B5FFF7E1FF074B5B6803F47B
:1032080060534FF4605292FAA2F2B2FA82F2D340BB
:10321800024AD35CD84008BD00100240604500084F
:10322800F0B583B00446036813F4803F44D05C4B88
:10323800DB6913F0805F6DD1594BDA6942F0805237
:10324800DA61DB6903F080530193019B0125554B3B
:103258001B6813F4807F5FD0514B1B6A13F44073D3
:1032680021D0626802F440729A421CD04C48016A2C
:1032780021F440764FF4803393FAA3F2B2FA82F243
:10328800494F3A4492004FF0010CC2F800C093FA3B
:10329800A3F3B3FA83F33B449B0000221A6006624F
:1032A80011F0010F4CD13E4A136A23F44073616850
:1032B8000B431362002D69D1236813F0010F06D068
:1032C800374A136B23F00303A1680B431363236886
:1032D80013F0200F06D0324A136B23F01003E16875
:1032E8000B431363236813F0800F06D02C4AD36A6C
:1032F80023F4F87321690B43D362236813F4805FC6
:103308004BD0274A136B23F4807361690B43136313
:10331800002043E000259AE7224A136843F48073AB
:103328001360FEF715FE06461E4B1B6813F4807FDC
:1033380092D1FEF70DFE801B6428F5D903202DE0FD
:10334800FEF706FE064617E0022393FAA3F3144B92
:10335800596A022393FAA3F3B3FA83F303F01F0322
:10336800012202FA03F30B429DD1FEF7F1FD801B07
:1033780041F2883398420ED8022393FAA3F293FAC3
:10338800A3F3002BE0D0064B196AE2E7D36923F0D8
:103398008053D36190E7032000E0002003B0F0BD24
:1033A80000100240007000400081901000286AD090
:1033B80010B50446436A33B94368B3F5827F05D034
:1033C8000023C36102E00023036143610023A36279
:1033D80094F85D30002B4DD0022384F85D302268CC
:1033E800136823F040031360E368B3F5E06F47D92F
:1033F8000022B3F5706F04D0B3F5E06F01D000235D
:10340800A362636803F48273A16801F404410B4367
:10341800216901F002010B43616901F001010B43CD
:10342800A16901F400710B43E16901F038010B4314
:10343800216A01F080010B43A16A01F40051206860
:103448000B430360638B03F00403616A01F010010E
:103458000B43616B01F008010B43E16801F47061F3
:103468000B4321681A434A6000202066012384F830
:103478005D3010BD84F85C302046FEF7E7FBABE713
:103488004FF48052B5E701207047000030B4036A5A
:1034980023F001030362026A4468836923F48033DA
:1034A80023F073030D681D4322F002028B68134357
:1034B800184A90420BD002F5A052904207D002F56C
:1034C8008062904203D002F58062904205D123F0D9
:1034D8000803CA681A4322F004030E4A90420BD02C
:1034E80002F5A052904207D002F58062904203D0C4
:1034F80002F58062904205D124F440744A6922435F
:103508008C691443446085614A684263036230BC35
:10351800704700BF002C014030B4036A23F4807365
:103528000362036A4268C46924F4803C2CF0730C7B
:103538000C6844EA0C0523F400738C6843EA0423FE
:10354800124CA0420BD0124CA0420FD004F580645C
:10355800A0420BD004F58064A0420FD106E023F40A
:103568000063CC6843EA042323F4806322F44052C6
:103578004C6942EA04128C6942EA04124260C5614D
:103588004A68C263036230BC704700BF002C014028
:103598000040014030B4036A23F480530362026A96
:1035A8004468C36923F0807323F4E6430D6843EA53
:1035B800052322F400528D6842EA05320D4DA842D7
:1035C8000BD005F5A055A84207D005F58065A8429F
:1035D80003D005F58065A84204D124F480444D69E0
:1035E80044EA85144460C3614B680364026230BCDA
:1035F800704700BF002C014030B4036A23F48033C5
:103608000362036A4468426D22F4803222F0700239
:103618000D682A4323F400338D6843EA05430D4DB2
:10362800A8420BD005F5A055A84207D005F580653E
:10363800A84203D005F58065A84204D124F480345B
:103648004D6944EA0524446042654A68826503621C
:1036580030BC7047002C014030B4036A23F4801357
:103668000362026A4468436D23F0807323F4E043E5
:103678000D6843EA052322F400128D6842EA0552D8
:103688000D4DA8420BD005F5A055A84207D005F569
:103698008065A84203D005F58065A84204D124F4CA
:1036A80080244D6944EA8524446043654B68C365BA
:1036B800026230BC704700BF002C014010B4036A9E
:1036C800046A24F001040462846924F0F00C4CEAD2
:1036D800021223F00A030B43826103625DF8044B74
:1036E800704710B4036A23F0100303628469036A05
:1036F80024F4704C4CEA023223F0A00343EA01138D
:10370800826103625DF8044B7047836823F070039D
:103718000B4343F0070383607047000090F83D3087
:10372800DBB2012B25D1022380F83D300368144A0F
:10373800934210D0B3F1804F0DD0A2F5943293424A
:1037480009D002F59E32934205D01A6842F0010270
:103758001A600020704799680A4A0A40062A0AD067
:10376800B2F5803F09D01A6842F001021A600020C1
:10377800704701207047002070470020704700BF45
:10378800002C01400700010090F83D30DBB2012B0E
:103798002AD1022380F83D300268D36843F0010340
:1037A800D3600368134A934210D0B3F1804F0DD011
:1037B800A2F59432934209D002F59E32934205D085
:1037C8001A6842F001021A600020704799680A4A94
:1037D8000A40062A0AD0B2F5803F09D01A6842F09A
:1037E80001021A60002070470120704700207047CE
:1037F80000207047002C0140070001007047704707
:10380800704770477047704710B5044603681A69D7
:1038180012F0020F11D0DA6812F0020F0DD06FF01B
:1038280002021A610123037703689B6913F0030FEF
:1038380079D0FFF7E6FF0023237723681A6912F08F
:10384800040F12D0DA6812F0040F0ED06FF00402E1
:103858001A610223237723689B6913F4407F68D099
:103868002046FFF7CEFF0023237723681A6912F05A
:10387800080F12D0DA6812F0080F0ED06FF00802A5
:103888001A61042323772368DB6913F0030F57D0E9
:103898002046FFF7B6FF0023237723681A6912F042
:1038A800100F12D0DA6812F0100F0ED06FF010025D
:1038B8001A61082323772368DB6913F4407F46D015
:1038C8002046FFF79EFF0023237723681A6912F02A
:1038D800010F03D0DA6812F0010F3FD123681A698B
:1038E80012F0800F03D0DA6812F0800F3DD1236800
:1038F8001A6912F4807F03D0DA6812F0800F3BD186
:1039080023681A6912F0400F03D0DA6812F0400FEA
:1039180039D123681A6912F0200F03D0DA6812F03F
:10392800200F37D110BDFFF76BFF2046FFF76AFF66
:1039380081E72046FFF764FF2046FFF763FF92E721
:103948002046FFF75DFF2046FFF75CFFA3E7204610
:10395800FFF756FF2046FFF755FFB4E76FF0010267
:103968001A612046FFF74BFFB8E76FF080021A6133
:10397800204600F092FBBAE76FF480721A61204685
:1039880000F08CFBBCE76FF040021A612046FFF79D
:103998003AFFBEE76FF020021A61204600F07CFB78
:1039A800C0E700000368224A904206D0B0F1804F79
:1039B80003D0A2F59432904203D123F070034A68F1
:1039C80013431B4A904212D0B0F1804F0FD0A2F59A
:1039D800943290420BD002F59E32904207D002F505
:1039E8008062904203D002F58062904203D123F4B2
:1039F8004073CA68134323F080034A691343036082
:103A08008B68C3620B688362094B98420BD003F53D
:103A1800A053984207D003F58063984203D003F57A
:103A28008063984201D10B690363012343617047A6
:103A3800002C014060B310B5044690F83D3013B334
:103A4800022384F83D30214651F8040BFFF7AAFF02
:103A5800012384F8483084F83E3084F83F3084F8F5
:103A6800403084F8413084F8423084F8433084F898
:103A7800443084F8453084F8463084F8473084F878
:103A88003D30002010BD80F83C30FEF713F9D7E731
:103A98000120704760B310B5044690F83D3013B369
:103AA800022384F83D30214651F8040BFFF77AFFD2
:103AB800012384F8483084F83E3084F83F3084F895
:103AC800403084F8413084F8423084F8433084F838
:103AD800443084F8453084F8463084F8473084F818
:103AE8003D30002010BD80F83C30FFF787FED7E757
:103AF8000120704730B4036A23F010030362036A9D
:103B08004268846924F0807C2CF4E64C0C684CEA0A
:103B1800042423F020038D6843EA0513124DA842BC
:103B28000BD0124DA8420FD005F58065A8420BD0E6
:103B380005F58065A8420FD106E023F08003CD6823
:103B480043EA051323F0400322F440624D6942EA38
:103B580085028D6942EA8502426084614A6882630F
:103B6800036230BC704700BF002C01400040014098
:103B780038B590F83C30012B00F0958004460D468E
:103B8800012380F83C30142A00F28880DFE802F034
:103B98000B8686861F86868634868686488686862F
:103BA8005D86868671000068FFF770FC226893695D
:103BB80043F0080393612268936923F00403936137
:103BC8002268936929690B439361002067E00068C4
:103BD800FFF790FF2268936943F4006393612268BA
:103BE800936923F48063936122689369296943EA9E
:103BF80001239361002052E00068FFF78DFC2268E2
:103C0800D36943F00803D3612268D36923F004031E
:103C1800D3612268D36929690B43D36100203EE050
:103C28000068FFF7B7FC2268D36943F40063D361E7
:103C38002268D36923F48063D3612268D369296930
:103C480043EA0123D361002029E00068FFF7D4FC90
:103C58002268536D43F0080353652268536D23F0BF
:103C6800040353652268536D29690B43536500208B
:103C780015E00068FFF7F0FC2268536D43F4006319
:103C880053652268536D23F4806353652268536D2E
:103C9800296943EA01235365002000E0012000233D
:103CA80084F83C3038BD0220FCE710B4846824F462
:103CB8007F4C42EA03220A4342EA0C0282605DF822
:103CC800044B704790F83C30012B76D010B5044671
:103CD800012380F83C30022380F83D300268906868
:103CE800374B034093600B68602B4CD029D8402B8E
:103CF80054D00CD9502B22D1CA6849682068FFF7E4
:103D0800DDFC50212068FFF700FD002005E0202B96
:103D18000DD009D9302B0AD00120012384F83D3079
:103D2800002384F83C3010BD0BB1102B05D1194687
:103D38002068FFF7EAFC0020EFE70120EDE701200B
:103D4800EBE7B3F5805F34D0B3F5005F0CD1CB68F7
:103D58004A6889682068FFF7A8FF2268936843F4D7
:103D6800804393600020D8E7702B24D1CB684A6841
:103D780089682068FFF799FF2268936843F0770302
:103D880093600020C9E7CA6849682068FFF7A9FC62
:103D980060212068FFF7B9FC0020BEE7CA684968BF
:103DA8002068FFF78BFC40212068FFF7AEFC00205D
:103DB800B3E70020B1E70120AFE70220704700BF5A
:103DC8008800FEFF01F01F014FF0010C0CFA01FC06
:103DD800036A23EA0C030362036A8A4013430362FB
:103DE8007047000010B5044610293DD8DFE801F0FF
:103DF800093C3C3C203C3C3C273C3C3C2E3C3C3C6D
:103E0800350090F83E30DBB2013B18BF0123002B90
:103E180040F0B680102900F28380DFE801F02C81A1
:103E28008181618181816A818181738181817C0045
:103E380090F83F30DBB2013B18BF0123E7E790F869
:103E48004030DBB2013B18BF0123E0E790F8413076
:103E5800DBB2013B18BF0123D9E790F84230DBB24F
:103E6800013B18BF0123D2E790F84330DBB2013B96
:103E780018BF0123CBE7022384F83E302268D368B9
:103E880043F00203D36001222068FFF79BFF2368F9
:103E98003F4A93420BD002F5A052934207D002F555
:103EA8008062934203D002F58062934203D15A6C38
:103EB80042F400425A642368354A934252D0B3F11F
:103EC800804F4FD0A2F5943293424BD002F59E32E8
:103ED800934247D01A6842F001021A60002050E06D
:103EE800022384F83F302268D36843F00403D36088
:103EF800C9E7022384F840302268D36843F00803F6
:103F0800D360C0E7022384F841302268D36843F0C5
:103F18001003D360B7E7022384F84230012030E071
:103F2800022384F843300C292CD801A353F821F03C
:103F3800853E00088D3F00088D3F00088D3F000832
:103F4800EF3E00088D3F00088D3F00088D3F0008B8
:103F5800013F00088D3F00088D3F00088D3F000895
:103F6800133F000899680B4A0A40062A0CD0B2F59C
:103F7800803F0BD01A6842F001021A60002000E06E
:103F8800012010BD0120FCE70020FAE70020F8E737
:103F9800002C01400700010090F83C20012A33D092
:103FA80030B40346012280F83C20022280F83D20EC
:103FB800006842688468154DA84220D022F070023B
:103FC8000D682A4342601A68104882420AD0B2F14A
:103FD800804F07D0A0F59430824203D000F59E3080
:103FE800824204D124F0800489682143916001222F
:103FF80083F83D20002083F83C0030BC704722F451
:1040080070024D682A43D9E702207047002C01400E
:1040180090F83C30012B3BD010B40246012380F8C5
:104028003C30CB6823F440738868034323F48063EF
:104038004868034323F400630868034323F4805368
:104048000869034323F400534869034323F4804376
:10405800886A034323F47023886943EA004310689D
:104068000C4CA04206D04364002082F83C005DF866
:10407800044B704723F470034C6A43EA045323F05B
:104088008073CC69234323F00073096A0B43EAE782
:1040980002207047002C01407047704770470000AD
:1040A80010B5044683680269134342691343C26921
:1040B8001343016808684E4A02401A430A6022689E
:1040C800536823F44053E1680B435360A269236AA1
:1040D8001A4321688B6823F4306313438B60236889
:1040E800444A934214D0444A934227D002F580624E
:1040F80093421FD01023E069B0F5004F20D0082B61
:1041080070D8DFE803F04A60486F636F6F6F66002E
:104118003A4B1B6B03F00303032B09D8DFE803F0CA
:104128000204060C0023E6E70423E4E70823E2E799
:104138001023E0E70023DEE70223DCE70023DAE7C9
:10414800082B49D8DFE803F0051F254822484848CE
:104158000900FFF739F8002840D06268530803EBDC
:104168004003B3FBF2F39BB2A3F110014FF6EF72D9
:10417800914235D823F00F02C3F342031343226858
:10418800D36000201BE0FFF735F8E4E7FEF70AFFED
:10419800E1E71B48E1E71A4802E0FFF715F818B312
:1041A800636800EB5300B0FBF3F080B2A0F110029B
:1041B8004FF6EF739A4219D82368D860002000237D
:1041C8006366A36610BDFFF715F8E8E7FEF7EAFE99
:1041D800E5E74FF40040E3E70120F0E70020EEE7D1
:1041E8000120ECE70120EAE70020E8E70120E6E704
:1041F800F369FFEF0038014000440040001002401E
:1042080000127A00436A13F0010F06D0026853685F
:1042180023F40033816A0B435360436A13F0020F9F
:1042280006D00268536823F48033C16A0B43536095
:10423800436A13F0040F06D00268536823F48023FE
:10424800016B0B435360436A13F0080F06D00268F2
:10425800536823F40043416B0B435360436A13F0E4
:10426800100F06D00268936823F48053816B0B43C8
:104278009360436A13F0200F06D00268936823F412
:104288000053C16B0B439360436A13F0400F0AD08D
:104298000268536823F48013016C0B435360036C6A
:1042A800B3F5801F0BD0436A13F0800F06D0026865
:1042B800536823F40023816C0B43536070470268F2
:1042C800536823F4C003416C0B435360EBE72DE9BB
:1042D800F84305460F4616469946DDF820802B68B8
:1042E800DC6937EA04040CBF01240024B44253D12A
:1042F800B8F1FF3FF3D0FDF72BFEA0EB09004045D6
:104308002DD8B8F1000F2AD02B681A6812F0040FC4
:10431800E5D0DA6912F4006FE1D04FF400621A6256
:104328002A6852E8003F23F4D07342E8003100299C
:10433800F6D12A6802F1080353E8003F23F001038D
:10434800083242E800310029F3D12023AB67EB673C
:10435800C5F88030002385F8743003201DE02A68F2
:1043680052E8003F23F4D07342E800310029F6D127
:104378002A6802F1080353E8003F23F001030832DA
:1043880042E800310029F3D12023AB67EB67002313
:1043980085F87430032000E00020BDE8F88330B5CC
:1043A80083B004460023C0F88030FDF7D1FD0546F0
:1043B8002268126812F0080F0DD123681B6813F0E9
:1043C800040F16D12023A367E3670020206684F832
:1043D800740003B030BD6FF07E43009303460022A3
:1043E8004FF400112046FFF772FF0028E5D00320A4
:1043F800EFE76FF07E4300932B4600224FF48001D5
:104408002046FFF764FF0028DCD00320E1E768B30B
:1044180010B50446836F03B32423A3672268136887
:1044280023F0010313602046FFF73AFE012813D05A
:10443800636ABBB92268536823F4904353602268C7
:10444800936823F02A0393602268136843F00103FA
:1044580013602046FFF7A3FF10BD80F87430FDF706
:104468008FFCD9E72046FFF7CDFEE3E70120704730
:10447800DFF834D00D480E490E4A002302E0D45824
:10448800C4500433C4188C42F9D30B4A0B4C002394
:1044980001E013600432A242FBD3FDF70BFD00F0EC
:1044A80011F8FDF709F8FEE70030002000000020B1
:1044B80014000020A0450008180000204802002031
:1044C800FEE7000070B50D4D0D4C641BA4100026CE
:1044D800A64209D10B4D0C4C00F020F8641BA41027
:1044E8000026A64205D170BD55F8043B9847013611
:1044F800EEE755F8043B98470136F2E7984500087F
:1045080098450008984500089C4500080244034661
:10451800934200D1704703F8011BF9E7F8B500BFD3
:10452800F8BC08BC9E467047F8B500BFF8BC08BC8C
:044538009E467047E4
:10453C00000000000000000000000000000000006F
:10454C00000000000000000000000000000000005F
:10455C000000000000000000010203040000000045
:10456C00000000000102030406070809010203040D
:10457C0005060708090A0B0C0D0E0F1002030405A3
:0C458C00060708090A0B0C0D0E0F10109A
:04459800990A000874
:04459C00750A000894
:1045A000333333333333D33F00127A00010000003A
:0445B00010000000F7
:040000050800447932
:00000001FF
