:020000040800F2
:1000000000300020F93D0008911600089316000802
:1000100095160008971600089916000800000000C1
:100020000000000000000000000000009B16000817
:100030009D160008000000009F160008A116000889
:10004000493E0008493E0008493E0008493E000874
:10005000493E0008493E0008493E0008493E000864
:10006000493E0008493E0008493E0008493E000854
:10007000493E0008493E0008493E0008493E000844
:10008000A9160008493E0008493E0008493E0008FC
:10009000493E0008493E0008493E0008493E000824
:1000A000493E0008B9160008493E0008493E0008CC
:1000B000493E0008493E000800000000493E000893
:1000C000493E00080000000000000000493E000812
:1000D00000000000493E000819170008493E0008CA
:1000E000493E0008493E00080000000000000000F2
:1000F0000000000000000000000000000000000000
:1001000000000000000000000000000000000000EF
:100110000000000000000000493E0008493E0008C1
:1001200000000000000000000000000000000000CF
:1001300000000000000000000000000000000000BF
:10014000493E0008493E0008000000000000000091
:10015000000000000000000000000000000000009F
:10016000000000000000000000000000000000008F
:10017000000000000000000000000000000000007F
:0801800000000000493E0008E8
:1001880081F0004102E000BF83F0004330B54FEA40
:1001980041044FEA430594EA050F08BF90EA020FAD
:1001A8001FBF54EA000C55EA020C7FEA645C7FEA40
:1001B800655C00F0E2804FEA5454D4EB5555B8BF63
:1001C8006D420CDD2C4480EA020281EA030382EAD4
:1001D800000083EA010180EA020281EA0303362D66
:1001E80088BF30BD11F0004F4FEA01314FF4801C39
:1001F8004CEA113102D0404261EB410113F0004F4B
:100208004FEA03334CEA133302D0524263EB430301
:1002180094EA050F00F0A780A4F10104D5F1200E9F
:100228000DDB02FA0EFC22FA05F2801841F10001FA
:1002380003FA0EF2801843FA05F359410EE0A5F1CE
:1002480020050EF1200E012A03FA0EFC28BF4CF0FF
:10025800020C43FA05F3C01851EBE37101F00045B5
:1002680007D54FF0000EDCF1000C7EEB00006EEBC2
:100278000101B1F5801F1BD3B1F5001F0CD349084C
:100288005FEA30004FEA3C0C04F101044FEA4452A3
:1002980012F5800F80F09A80BCF1004F08BF5FEA2A
:1002A800500C50F1000041EB045141EA050130BD0A
:1002B8005FEA4C0C404141EB0101013C28BFB1F51C
:1002C800801FE9D291F0000F04BF01460020B1FA67
:1002D80081F308BF2033A3F10B03B3F120020CDA3A
:1002E8000C3208DD02F1140CC2F10C0201FA0CF018
:1002F80021FA02F10CE002F11402D8BFC2F1200C7D
:1003080001FA02F120FA0CFCDCBF41EA0C01904032
:10031800E41AA2BF01EB0451294330BD6FEA04047B
:100328001F3C1CDA0C340EDC04F11404C4F1200266
:1003380020FA04F001FA02F340EA030021FA04F378
:1003480045EA030130BDC4F10C04C4F1200220FACF
:1003580002F001FA04F340EA0300294630BD21FA0D
:1003680004F0294630BD94F0000F83F4801306BFD3
:1003780081F480110134013D4EE77FEA645C18BFC7
:100388007FEA655C29D094EA050F08BF90EA020F5E
:1003980005D054EA000C04BF1946104630BD91EA56
:1003A800030F1EBF0021002030BD5FEA545C05D159
:1003B8004000494128BF41F0004130BD14F5800498
:1003C8003CBF01F5801130BD01F0004545F0FE410C
:1003D80041F470014FF0000030BD7FEA645C1ABF41
:1003E800194610467FEA655C1CBF0B46024650EA78
:1003F800013406BF52EA033591EA030F41F40021A4
:1004080030BD00BF90F0000F04BF0021704730B529
:100418004FF4806404F132044FF000054FF00001FE
:1004280050E700BF90F0000F04BF0021704730B5BF
:100438004FF4806404F1320410F0004548BF404294
:100448004FF000013EE700BF42004FEAE2014FEAE9
:1004580031014FEA02701FBF12F07F4393F07F4FC4
:1004680081F06051704732F07F4208BF704793F0C7
:100478007F4F04BF41F40021704730B54FF46074DA
:1004880001F0004521F000411CE700BF50EA0102DD
:1004980008BF704730B54FF000050AE050EA010286
:1004A80008BF704730B511F0004502D5404261EBF6
:1004B80041014FF4806404F132045FEA915C3FF437
:1004C800D8AE4FF003025FEADC0C18BF03325FEAD4
:1004D800DC0C18BF033202EBDC02C2F1200300FA85
:1004E80003FC20FA02F001FA03FE40EA0E0021FAAA
:1004F80002F11444BDE600BF70B54FF0FF0C4CF498
:10050800E06C1CEA11541DBF1CEA135594EA0C0F49
:1005180095EA0C0F00F0DEF82C4481EA030621EA84
:100528004C5123EA4C5350EA013518BF52EA0335BF
:1005380041F4801143F4801338D0A0FB02CE4FF071
:100548000005E1FB02E506F00042E0FB03E54FF0A1
:100558000006E1FB03569CF0000F18BF4EF0010E99
:10056800A4F1FF04B6F5007F64F5407404D25FEA95
:100578004E0E6D4146EB060642EAC62141EA555148
:100588004FEAC52040EA5E504FEACE2EB4F1FD0C8A
:1005980088BFBCF5E06F1ED8BEF1004F08BF5FEA08
:1005A800500E50F1000041EB045170BD06F00046BA
:1005B80046EA010140EA020081EA0301B4EB5C0467
:1005C800C2BFD4EB0C0541EA045170BD41F480115F
:1005D8004FF0000E013C00F3AB8014F1360FDEBF84
:1005E800002001F0004170BDC4F10004203C35DA60
:1005F8000C341BDC04F11404C4F1200500FA05F3E3
:1006080020FA04F001FA05F240EA020001F0004283
:1006180021F0004110EBD37021FA04F642EB0601F9
:100628005EEA430E08BF20EAD37070BDC4F10C0423
:10063800C4F1200500FA04F320FA05F001FA04F2E7
:1006480040EA020001F0004110EBD37041F10001D3
:100658005EEA430E08BF20EAD37070BDC4F12005DE
:1006680000FA05F24EEA020E20FA04F301FA05F246
:1006780043EA020321FA04F001F0004121FA04F2EE
:1006880020EA020000EBD3705EEA430E08BF20EABE
:10069800D37070BD94F0000F0FD101F000464000F8
:1006A80041EB010111F4801F08BF013CF7D041EA7A
:1006B800060195F0000F18BF704703F0004652007E
:1006C80043EB030313F4801F08BF013DF7D043EA4F
:1006D8000603704794EA0C0F0CEA135518BF95EA05
:1006E8000C0F0CD050EA410618BF52EA4306D1D18C
:1006F80081EA030101F000414FF0000070BD50EAAB
:10070800410606BF1046194652EA430619D094EA34
:100718000C0F02D150EA013613D195EA0C0F05D11E
:1007280052EA03361CBF104619460AD181EA030172
:1007380001F0004141F0FE4141F470014FF000002A
:1007480070BD41F0FE4141F4780170BD70B54FF0C5
:10075800FF0C4CF4E06C1CEA11541DBF1CEA135545
:1007680094EA0C0F95EA0C0F00F0A7F8A4EB050427
:1007780081EA030E52EA03354FEA013100F088801E
:100788004FEA03334FF0805545EA131343EA1263E7
:100798004FEA022245EA111545EA10654FEA00269C
:1007A8000EF000419D4208BF964244F1FD0404F555
:1007B800407402D25B084FEA3202B61A65EB0305B1
:1007C8005B084FEA32024FF480104FF4002CB6EB6E
:1007D800020E75EB030E22BFB61A754640EA0C00EE
:1007E8005B084FEA3202B6EB020E75EB030E22BF2E
:1007F800B61A754640EA5C005B084FEA3202B6EB6F
:10080800020E75EB030E22BFB61A754640EA9C002D
:100818005B084FEA3202B6EB020E75EB030E22BFFD
:10082800B61A754640EADC0055EA060E18D04FEABB
:10083800051545EA16754FEA06164FEAC30343EA5B
:1008480052734FEAC2025FEA1C1CC0D111F4801F28
:100858000BD141EA00014FF000004FF0004CB6E721
:1008680011F4801F04BF01430020B4F1FD0C88BFC0
:10087800BCF5E06F3FF6AFAEB5EB030C04BFB6EBCB
:10088800020C5FEA500C50F1000041EB045170BDBE
:100898000EF0004E4EEA113114EB5C04C2BFD4EBEB
:1008A8000C0541EA045170BD41F480114FF0000E6F
:1008B800013C90E645EA060E8DE60CEA135594EAEB
:1008C8000C0F08BF95EA0C0F3FF43BAF94EA0C0FEE
:1008D8000AD150EA01347FF434AF95EA0C0F7FF463
:1008E80025AF104619462CE795EA0C0F06D152EAB7
:1008F80003353FF4FDAE1046194622E750EA41069B
:1009080018BF52EA43067FF4C5AE50EA41047FF4AB
:100918000DAF52EA43057FF4EBAE12E74FF0FF3C10
:1009280006E000BF4FF0010C02E000BF4FF0010CE1
:100938004DF804CD4FEA410C7FEA6C5C4FEA430C5A
:1009480018BF7FEA6C5C1BD001B050EA410C0CBFA9
:1009580052EA430C91EA030F02BF90EA020F00200B
:10096800704710F1000F91EA030F58BF994208BF72
:1009780090422CBFD8176FEAE37040F0010070472F
:100988004FEA410C7FEA6C5C02D150EA013C07D186
:100998004FEA430C7FEA6C5CD6D152EA033CD3D0D1
:1009A8005DF8040B704700BF8446104662468C46CB
:1009B8001946634600E000BF01B5FFF7B7FF0028FE
:1009C80048BF10F1000F01BD4DF808EDFFF7F4FF27
:1009D8000CBF012000205DF808FB00BF4DF808EDB2
:1009E800FFF7EAFF34BF012000205DF808FB00BFD5
:1009F8004DF808EDFFF7E0FF94BF012000205DF8F7
:100A080008FB00BF4DF808EDFFF7CEFF94BF0120AB
:100A180000205DF808FB00BF4DF808EDFFF7C4FFA4
:100A280034BF012000205DF808FB00BF4A0011D246
:100A380012F5001211D20DD56FF47873B3EB625230
:100A48000ED44FEAC12343F0004343EA505323FA3C
:100A580002F070474FF00000704750EA013002D1B1
:100A68004FF0FF3070474FF00000704710B5054C4D
:100A7800237833B9044B13B10448AFF30080012342
:100A8800237010BD7000002000000000D03F000857
:100A980008B5034B1BB103490348AFF3008008BDF9
:100AA8000000000074000020D03F000800B589B0A5
:100AB80000230393049305930693079303F180435C
:100AC80003F504335A6942F400325A615A6902F450
:100AD80000320192019A5A6942F480225A615B6994
:100AE80003F480230293029B0223039303230493BA
:100AF80003A94FF0904000F0BFFF1C2303934FF46D
:100B0800881304930123059303A94FF0904000F044
:100B1800B3FF09B05DF804FB00B583B00A4B5A690E
:100B280042F001025A615B6903F001030193019BE2
:100B380000221146102000F059FE102000F08EFE11
:100B480003B05DF804FB00BF0010024008B50A229C
:100B58000249034803F022F908BD00BF58020020EB
:100B6800D401002072B6FEE710B59AB0002416949E
:100B78001794189419941394149415940C940D9430
:100B88000E940F941094119412942C22214601A8CB
:100B980003F086F93E483F4B0360012343608460BD
:100BA8004FF6FF73C36004614461846102F024F965
:100BB80000285BD14FF48053169316A9344802F0ED
:100BC80065FA002854D1324802F046F9002851D17C
:100BD800002313931493159313A92D4802F0AEFB29
:100BE800002849D160230C9345F255530D930022F8
:100BF8000E920F921092119212920CA9244802F0B0
:100C08009BF900283AD100230D9304220CA920480F
:100C180002F092F9002833D108220CA91C4802F0EE
:100C28008BF900282ED145F255530D930C220CA9AF
:100C3800174802F081F938BB00230193029303930C
:100C4800049305934FF400520692079308934FF0CC
:100C5800007209920A930B9301A90D4802F0AAFBAE
:100C6800A0B90B4800F082FC1AB010BDFFF77AFF5C
:100C7800FFF778FFFFF776FFFFF774FFFFF772FFC4
:100C8800FFF770FFFFF76EFFFFF76CFFFFF76AFFD4
:100C980088010020002C014008B51148114B036061
:100CA800114B4360002383600122C26003614361EA
:100CB8008361C361036200F0BDFF50B90021084899
:100CC80001F016F838B90021054801F03FF820B9BD
:100CD80008BDFFF747FFFFF745FFFFF743FF00BFDA
:100CE800D8000020005400400E09002008B50D4827
:100CF8000D4B03604FF49663436000238360C36029
:100D08000361042242618361C36103621023436269
:100D18004FF48053836302F0B0FF00B908BDFFF7BA
:100D280021FF00BFD40100200044004008B510484E
:100D3800104B03604FF4827343604FF48063836009
:100D48004FF44073C3600023036143614FF40072A2
:100D58008261C3610362436283620722C2620363E2
:100D68000823436301F03AFD00B908BDFFF7FAFE16
:100D7800240100200030014000B597B0282200214E
:100D88000CA803F08DF800230793089309930A939E
:100D98000B93019302930393049305930693022301
:100DA8000C93012210921022119213934FF41013F6
:100DB80015930CA800F0F6FFD8B90F230793022368
:100DC8000893002309934FF480630A930B9301213E
:100DD80007A801F037FB70B94FF481530193002342
:100DE8000493069301A801F033FC30B917B05DF8FD
:100DF80004FBFFF7B7FEFFF7B5FEFFF7B3FE0000F1
:100E08002DE9F0432DED048BC5B000F0B9FCFFF7D8
:100E1800B3FFFFF74BFEFFF7A7FEFFF73DFFFFF716
:100E280065FFFFF779FEFFF781FFDDE94223CDE992
:100E38000423DDE94023CDE902239FED4B9B4FF0CE
:100E48000009CDF804904FF00108CDF800809FED1F
:100E5800482BB0EE491AF0EE691A9FED470B04AB28
:100E6800514A42A922A800F077FA414622A800F088
:100E78007FF90A2122A800F0B3FA9FED418B9FED7C
:100E8800421BB0EE480AF0EE680A22A800F07FF98B
:100E9800CDF80490CDF800809FED3D2BB0EE491AB7
:100EA800F0EE691A9FED3C0B02AB404A40A906A838
:100EB80000F052FA414606A800F05AF90A2106A89D
:100EC80000F08EFA9FED361BB0EE480AF0EE680A85
:100ED80006A800F05CF9DFF8E880404601F036FE2D
:100EE8004946404602F062F90421404602F05EF9A4
:100EF8000821404602F05AF900F060FC804600F0F4
:100F08005DFCA0EB080040F6B7339842F7D9002300
:100F180003E0274A0021D1540133132BF9DD254B77
:100F280072221A800A222249234802F037FF2048F9
:100F380002F087FF214B1860DDE9422323F00045CA
:100F4800164605F10047CDE94267192000F094FCE8
:100F580022A800F061F806A800F05EF8192000F059
:100F68007DFCE4E7AFF30080000000000000000013
:100F78000000000000804B400000000000805B4043
:100F8800000000004055C5C0000000004078C54082
:100F98000000000000005440000000000000644011
:100FA800000000004055C540700200207802002073
:100FB8005802002090000020D40100208C0000205E
:100FC800880100202DE9D0430446436CD3E900672B
:100FD800C0E91467036CD3E90023C0E91623D0E9FC
:100FE8001A8942464B4630463946FFF715FD18B177
:100FF800C4E91489BDE8D083D4E9188942464B4630
:1010080030463946FFF7EAFC0028F3D0C4E91489D2
:10101800F0E70000000000002DE9F04F2DED04ABD3
:1010280085B00446407820B905B0BDEC04ABBDE8F6
:10103800F08F00F0C3FB05466368C31AA2689A42A2
:1010480000F29080236CD3E90089A36CD3E90023D4
:1010580040464946FFF798F806460F46CDE902672D
:10106800D4E9162340464946FFF78EF8CDE900013A
:1010780032463B46D4E90C01FFF73EFAD4E9142383
:10108800FFF784F806460F46C4E9146794F800A0F1
:10109800BAF1000F0DD1DDE90023D4E90A01FFF709
:1010A8002BFA02460B4630463946FFF76DF8C4E97D
:1010B800140194ED14ABD4E91A6732463B4651EC5F
:1010C8001A0BFFF7A9FC00283AD0C4E91467BAF153
:1010D800000F42D0DDE90223D4E90A01FFF70CFA38
:1010E800CDE90201D4E914ABDDE90023D4E90E010E
:1010F800FFF702FA02460B4650465946FFF746F8F4
:10110800DDE90223FFF742F882468B4602460B468A
:1011180030463946FFF762FC50B9D4E918675246A1
:101128005B4630463946FFF777FC08B956465F46B6
:10113800636CC3E90067C4E916896560012073E739
:1011480094ED18BB53EC1B2B51EC1A0BFFF746FC24
:101158000028BCD084ED14BBB9E79FED037B8DED6F
:10116800027BBFE700205FE70000000000000000EE
:1011780038B5044601290CBF0125002501D065704A
:1011880038BD4378002BFAD1FFF71CFFF7E72DE9AC
:10119800F84F044659EC108B57EC116B11EE102ADE
:1011A8003B4610EE100A4946FFF72CFCF0B9C4E99B
:1011B8001889C4E91A676378C3B1656CD5E900ABCF
:1011C80032463B4650465946FFF726FC80B1C5E9F2
:1011D8000067D4E91467D4E91A8942464B46304679
:1011E8003946FFF719FC70B1C4E91489BDE8F88FD6
:1011F80042464B4650465946FFF7F0FB0028E8D0D8
:10120800C5E90089E5E7D4E9188942464B463046E6
:101218003946FFF7E3FB0028E8D0C4E91489E5E77D
:101228002DE9D04F2DED048B04465BEC10AB57EC49
:10123800116BB0EE428AF0EE628A884600220023E3
:1012480010EE100A5946FFF7C9FB002842D10022C8
:10125800002330463946FFF7C1FB00283AD1002267
:10126800002351EC180BFFF7B9FB002832D184F8A2
:101278000280B8F1010F14BF4FF000084FF00108C9
:1012880084F80080C4E904ABC4E9066784ED088BE0
:10129800A068FFF7B7F800221D4BFFF757FA804602
:1012A8008946C4E90AAB02460B4630463946FFF781
:1012B80023F941EC190BC4E90C0142464B4651ECA9
:1012C800180BFFF743FA06460F46C4E90E67E378A2
:1012D800012B03D0BDEC048BBDE8D08F52465B4692
:1012E80000200021FEF750FFC4E90A0153EC192B36
:1012F80000200021FEF748FFC4E90C0132463B46B6
:1013080000200021FEF740FFC4E90E01E2E700BF1C
:1013180000408F4038B504460D464378D3B1C378B2
:101328008B4217D0D0E90A2300200021FEF72CFFBA
:10133800C4E90A01D4E90C2300200021FEF724FFA8
:10134800C4E90C01D4E90E2300200021FEF71CFF9C
:10135800C4E90E01E57038BD10B52DED068B0446C5
:10136800B0EE408AF0EE608AB0EE419AF0EE619AF3
:10137800B0EE42AAF0EE62AA4264016483640023DC
:1013880043709FED131B9FED140BFFF700FF6423C1
:10139800A3609DF824102046FFF7BCFF9DF820109D
:1013A800B0EE4A2AF0EE6A2AB0EE491AF0EE691A4F
:1013B800B0EE480AF0EE680A2046FFF731FF00F069
:1013C800FDF9A368C01A6060BDEC068B10BD00BFB4
:1013D8000000000000E06F40000000000000000076
:1013E800F8B50D1E21DD04462846FFF71BF8064612
:1013F8000F46A068FFF706F802460B463046394606
:10140800FFF7A4F906460F4602460B46D4E90C013D
:10141800FFF772F8C4E90C0132463B46D4E90E01E5
:10142800FFF794F9C4E90E01A560F8BD82B00A4B34
:101438009A6942F001029A619A6902F001020092E7
:10144800009ADA6942F08052DA61DB6903F080536E
:101458000193019B02B070470010024010B588B09C
:101468000023039304930593069307930268124B92
:101478009A4201D008B010BD104C636943F4802330
:101488006361636903F480230193019BC023039381
:1014980012230493032306930423079303A90848FC
:1014A80000F0EAFAE36943F40013E361E36903F443
:1014B80000130293029BDDE7005400400010024035
:1014C8000004004800B589B00023039304930593F2
:1014D800069307930268144B9A4202D009B05DF84C
:1014E80004FB03F560439A6942F480529A619A6951
:1014F80002F480520192019A5A6942F400325A6108
:101508005B6903F400330293029B60230393022375
:101518000493032306930523079303A94FF09040F0
:1015280000F0AAFADAE700BF0030014002680E4B6B
:101538009A4200D0704700B583B003F564439A69B6
:1015480042F400629A619B6903F400630193019B72
:1015580000221146192000F049F9192000F07EF9FF
:1015680003B05DF804FB00BF002C014010B586B045
:101578000023019302930393049305930268154B88
:101588009A4201D006B010BD03F564435A6942F48B
:1015980000325A615B6903F400330093009B4FF4F7
:1015A800E0630193022402940623059301A94FF0F6
:1015B800904000F061FA4FF4006301930294002315
:1015C800039304930B23059301A94FF0904000F077
:1015D80053FAD7E7002C014010B588B000230393D5
:1015E80004930593069307930268234B9A4201D00C
:1015F80008B010BD044603F5E633DA6942F4003258
:10160800DA61DA6902F400320192019A5A6942F405
:1016180080225A615B6903F480230293029B18239A
:10162800039302230493032306930723079303A931
:10163800124800F021FA1248124B0360002343605D
:1016480083608022C26003614361202383614FF479
:101658008053C36100F048F958B9094B23675C62AD
:1016680000221146262000F0C1F8262000F0F6F8E6
:10167800BEE7FFF777FAF0E70044004000040048AF
:10168800940000206C000240FEE7FEE7FEE7FEE75C
:10169800FEE770477047704708B500F083F808BD4B
:1016A80008B5024800F08FF908BD00BF940000207B
:1016B80010B5114B1A8845F2555303FB02F203EBA0
:1016C80022230E4CE3630E4BD3E9002300200D497F
:1016D800FEF75AFDFFF7AAF960630022094B0A4991
:1016E800D1E90001FEF752FDFFF7A0F9A063074812
:1016F80001F06CFA10BD00BF90000020002C0140E2
:10170800700200200000E0407802002088010020DC
:1017180008B5024801F0DCFE08BD00BFD401002076
:10172800034AD2F8883043F47003C2F8883070470F
:1017380000ED00E010B504460E4B1A784FF47A73AA
:10174800B3FBF2F30C4A1068B0FBF3F000F0A6F814
:1017580068B90F2C01D901200AE0002221464FF078
:10176800FF3000F043F8054B1C60002000E001202A
:1017780010BD00BF04000020000000200800002069
:1017880008B5074A136843F010031360032000F0FC
:101798001BF80F20FFF7CEFFFFF748FE002008BD1B
:1017A80000200240034A1168034B1B780B44136066
:1017B800704700BF8002002004000020014B186819
:1017C800704700BF80020020074AD36823F4E06313
:1017D8001B041B0C000200F4E060034343F0BF63EA
:1017E80043F40033D360704700ED00E000B5194BB7
:1017F800DB68C3F30223C3F1070CBCF1040F28BF55
:101808004FF0040C03F1040EBEF1060F18D9033B88
:101818004FF0FF3E0EFA0CFC21EA0C0199400EFA3B
:1018280003FE22EA0E020A4300280BDB1201D2B2A1
:1018380000F1604000F5614080F800235DF804FB8A
:101848000023E5E700F00F001201D2B2024B1A5450
:10185800F4E700BF00ED00E014ED00E0002807DB2E
:1018680000F01F02400901239340024A42F8203049
:10187800704700BF00E100E000280CDB00F01F0209
:101888004009012393402030034A42F82030BFF337
:101898004F8FBFF36F8F704700E100E00138B0F160
:1018A800807F0BD24FF0E0235861054AF02182F87F
:1018B80023100020986107221A61704701207047A1
:1018C80000ED00E00268054B1344054AA2FB032320
:1018D8001B099B000364034BC3637047F8FFFDBFFC
:1018E800CDCCCCCC0000024020B310B50446022376
:1018F80080F8213001680A6822F47F5222F0300211
:10190800436880680343E0680343206903436069D0
:101918000343A0690343E069034313430B60204674
:10192800FFF7D0FF0020A063012384F8213084F85A
:10193800200010BD01207047034690F82120022A9C
:1019480006D004228263002280F8202001207047FC
:1019580001680A6822F00E020A6001680A6822F02B
:1019680001020A60026CC06B012101FA02F24260B6
:1019780083F82110002083F82000704708B590F8FC
:101988002130022B03D004238363012008BD0268A1
:10199800136823F00E0313600268136823F0010331
:1019A8001360036CC16B012202FA03F34B6080F8E9
:1019B8002120002380F82030436B13B19847002082
:1019C800E4E70020E2E738B5C36B1A6804682568C5
:1019D800016C04238B40134213D015F0040F10D070
:1019E800236813F0200F03D1236823F00403236036
:1019F800016CC26B04238B405360C36A03B19847E0
:101A080038BD02238B4013421AD015F0020F17D0AD
:101A1800236813F0200F06D1236823F00A032360FC
:101A2800012380F82130016CC26B02238B40536084
:101A3800002380F82030836A002BE1D09847DFE745
:101A480008238B401342DBD015F0080FD8D0236849
:101A580023F00E032360026CC16B012303FA02F228
:101A68004A60836380F82130002380F82030036BBC
:101A7800002BC5D09847C3E7F0B583B0002362E0D8
:101A880085685E000324B44025EA0405CC68B440A8
:101A98002C438460456825EA0C054C68C4F300149F
:101AA8009C402C4344605FE0DD08083550F8254031
:101AB80003F0070C4FEA8C0C4FF00F0E0EFA0CFED9
:101AC80024EA0E0E0C6904FA0CF444EA0E0440F8F9
:101AD800254060E0032400E0002404FA0EF42C43BF
:101AE8000CF1020C4F4D45F82C404F4C2568D4435F
:101AF80025EA02064F6817F4803F01D042EA05063E
:101B0800494D2E606D6804EA05064F6817F4003FDA
:101B180001D042EA0506444D6E60AD6804EA050648
:101B28004F6817F4801F01D042EA05063E4DAE60AB
:101B3800ED682C404E6816F4001F01D042EA0504F7
:101B4800394AD46001330A6832FA03F468D04FF096
:101B5800010C0CFA03FC1CEA0202F3D04C6804F0F6
:101B68000304013C012C8BD94C6804F00304032CBA
:101B78000CD0C4685D004FF0030C0CFA05FC24EA95
:101B88000C0C8C68AC4044EA0C04C4604C6804F04B
:101B98000304022C88D004684FEA430E4FF0030C6C
:101BA8000CFA0EFC24EA0C0C4C6804F0030404FA4A
:101BB8000EF444EA0C0404604C6814F4403FC1D0AD
:101BC8001A4CA56945F00105A561A46904F0010452
:101BD8000194019C4FEA930C0CF10205114C54F846
:101BE800255003F0030E4FEA8E0E0F2404FA0EF46C
:101BF80025EA0405B0F1904F3FF46EAF0C4CA042BB
:101C08000AD004F58064A04208D004F58064A0429C
:101C18003FF460AF052460E701245EE702245CE737
:101C280003B0F0BD00000140000401400010024074
:101C380000040048002859D010B5044690F84130F7
:101C4800002B43D0242384F841302268136823F002
:101C5800010313606368226823F0706313612268CC
:101C6800936823F400439360E368012B33D0A3689F
:101C7800226843F404439360E368022B31D022685E
:101C8800536843F0007343F4004353602268D368F9
:101C980023F40043D360236962691343A16922686E
:101CA80043EA0123D360E369216A22680B43136086
:101CB8002268136843F00103136000206064202346
:101CC80084F84130206384F8420010BD80F8403029
:101CD800FFF7C4FBB6E7A368226843F400439360A8
:101CE800CAE723684FF400625A60C8E701207047CA
:101CF800034690F84120D2B2202A23D190F8402000
:101D0800012A21D0012280F84020242280F8412095
:101D18000068026822F0010202601868026822F472
:101D280080520260186802681143016019680A68E5
:101D380042F001020A60202283F84120002083F843
:101D4800400070470220704702207047034690F811
:101D58004120D2B2202A21D190F84020012A1FD058
:101D6800012280F84020242280F84120006802687F
:101D780022F0010202601868026822F4706242EAE6
:101D88000122026019680A6842F001020A602022F2
:101D980083F84120002083F84000704702207047F4
:101DA80002207047002800F0FF8270B582B0044618
:101DB800036813F0010F3BD0B44B5B6803F00C03CE
:101DC800042B1ED0B14B5B6803F00C03082B13D017
:101DD8006368B3F5803F68D0002B40F0928003F130
:101DE800804303F504331A6822F480321A601A68B3
:101DF80022F480221A605DE0A44B5B6813F4803FF4
:101E0800E6D04FF4003393FAA3F3A04B19684FF4CC
:101E1800003393FAA3F3B3FA83F303F01F03012209
:101E280002FA03F30B4203D06368002B00F0BE8272
:101E3800236813F0020F00F0C480944B5B6813F022
:101E48000C0F00F09C80914B5B6803F00C03082B8F
:101E580000F08F802369002B00F0F080012292FAB5
:101E6800A2F3B3FA83F303F1845303F584139B00BD
:101E78001A60FFF7A3FC0546022393FAA3F3834BEA
:101E88001968022393FAA3F3B3FA83F303F01F0349
:101E9800012202FA03F30B4240F0C280FFF78EFCE6
:101EA800401B0228E8D9032089E2784A136843F4E2
:101EB80080331360754AD36A23F00F03A1680B437C
:101EC800D3626368002B36D0FFF778FC05464FF4E1
:101ED800003393FAA3F36D4B19684FF4003393FA68
:101EE800A3F3B3FA83F303F01F03012202FA03F307
:101EF8000B429DD1FFF762FC401B6428E7D9032001
:101F08005DE2B3F5A02F09D0604B1A6822F4803245
:101F18001A601A6822F480221A60CBE703F1804322
:101F2800A3F53C331A6842F480221A601A6842F416
:101F380080321A60BEE7FFF741FC05464FF40033D4
:101F480093FAA3F3514B19684FF4003393FAA3F3B0
:101F5800B3FA83F303F01F03012202FA03F30B42DF
:101F68003FF466AFFFF72AFC401B6428E6D903203C
:101F780025E2464B5B6813F4803F7FF46BAF022386
:101F880093FAA3F3414B1968022393FAA3F3B3FA24
:101F980083F303F01F03012202FA03F30B4203D079
:101FA8002369934240F004823848036823F0F80319
:101FB8006169F82292FAA2F2B2FA82F291400B43D6
:101FC8000360236813F0080F00F08C80A369002BCE
:101FD80060D0012191FAA1F2B2FA82F22C4B13449B
:101FE8009B001960FFF7EAFB0546022393FAA3F268
:101FF80093FAA3F293FAA3F2244A516A93FAA3F349
:10200800B3FA83F303F01F03012202FA03F30B422E
:1020180068D1FFF7D3FB401B0228E6D90320CEE1A5
:102028001A48036823F0F8036169F82292FAA2F2C9
:10203800B2FA82F291400B430360C2E7012393FA9C
:10204800A3F3B3FA83F303F1845303F584139B00DA
:1020580000221A60FFF7B2FB0546022393FAA3F3A6
:102068000A4B1968022393FAA3F3B3FA83F303F034
:102078001F03012202FA03F30B42A2D0FFF79EFBD3
:10208800401B0228E9D9032099E100BF0010024053
:1020980020819010012292FAA2F2B2FA82F2B74B92
:1020A80013449B0000221A60FFF788FB05460223B1
:1020B80093FAA3F293FAA3F293FAA3F2B04A516AFD
:1020C80093FAA3F3B3FA83F303F01F03012202FA8E
:1020D80003F30B4206D0FFF771FB401B0228E6D939
:1020E80003206CE1236813F0040F00F0A980A44BCF
:1020F800DB6913F0805F20D1A14BDA6942F080528E
:10210800DA61DB6903F080530193019B01259D4B44
:102118001B6813F4807F12D0E368012B23D073BBB4
:1021280003F1804303F504331A6A22F001021A62AC
:102138001A6A22F004021A621AE00025E7E7914AB7
:10214800136843F480731360FFF738FB06468D4B22
:102158001B6813F4807FDFD1FFF730FB801B6428F6
:10216800F5D903202BE1864A136A43F00103136271
:10217800E368002B3CD0FFF721FB06462BE0052B3C
:1021880009D07F4B1A6A22F001021A621A6A22F0F9
:1021980004021A62ECE77A4B1A6A42F004021A62E5
:1021A8001A6A42F001021A62E2E7754B196A0223C1
:1021B80093FAA3F3B3FA83F303F01F03012202FA9D
:1021C80003F319423BD1FFF7F9FA801B41F2883338
:1021D800984200F2EF80022393FAA3F293FAA3F352
:1021E800002BE2D1022393FAA3F3654B596ADEE789
:1021F800FFF7E4FA064615E0614B196A022393FAE1
:10220800A3F3B3FA83F303F01F03012202FA03F3E3
:10221800194214D0FFF7D2FA801B41F28833984252
:1022280000F2CA80022393FAA3F293FAA3F3002BD5
:10223800E2D1022393FAA3F3514B596ADEE7B5BB07
:10224800E369002B00F0BA804D4A526802F00C0294
:10225800082A00F09980022B2FD04FF0807393FA50
:10226800A3F3B3FA83F303F1845303F584139B00B8
:1022780000221A60FFF7A2FA04464FF0007393FA9F
:10228800A3F33F4B19684FF0007393FAA3F3B3FA23
:1022980083F303F01F03012202FA03F319426BD000
:1022A800FFF78CFA001B0228E7D9032087E0344A9D
:1022B800D36923F08053D361C2E74FF0807393FA58
:1022C800A3F3B3FA83F303F1845303F584139B0058
:1022D80000221A60FFF772FA05464FF0007393FA6E
:1022E800A3F3274B19684FF0007393FAA3F3B3FADB
:1022F80083F303F01F03012202FA03F3194206D005
:10230800FFF75CFA401B0228E7D9032057E01C4975
:102318004B6823F47413626A206A024313434B60C8
:102328004FF0807393FAA3F3B3FA83F303F1845362
:1023380003F584139B0001221A60FFF73FFA044655
:102348004FF0007393FAA3F30D4B19684FF0007325
:1023580093FAA3F3B3FA83F303F01F03012202FAFB
:1023680003F3194206D1FFF729FA001B0228E7D91F
:10237800032024E0002022E0002020E020819010AB
:102388000010024000700040012B1AD0104B5B680F
:1023980003F48031226A914215D103F47013626A02
:1023A800934212D100200AE001207047012006E084
:1023B800012004E0032002E0032000E0002002B036
:1023C80070BD0120FBE70120F9E70120F7E700BF16
:1023D80000100240164B5B6803F00C02082A01D07B
:1023E8001448704703F470114FF4701292FAA2F275
:1023F800B2FA82F221FA02F20F49885C0C4AD26AD8
:1024080002F00F020F2191FAA1F1B1FA81F1CA404D
:102418000A498A5C13F4803F05D0064BB3FBF2F3FC
:1024280003FB00F07047064B03FB00F0704700BF4A
:102438000010024000127A00004000081040000816
:1024480000093D00002800F0BE8070B50D46044626
:10245800614B1B6803F007038B420BD25E4A13687B
:1024680023F007030B431360136803F007038B4241
:1024780040F0AB80236813F0020F06D0574A536828
:1024880023F0F003A1680B435360236813F0010F96
:102498005AD06368012B2DD0022B40D0022292FA29
:1024A800A2F24E4A1068022292FAA2F2B2FA82F21C
:1024B80002F01F02012101FA02F2104200F08780A7
:1024C80046494A6822F0030213434B60FFF776F946
:1024D8000646424B5B6803F00C036268B3EB820F5D
:1024E80032D0FFF76BF9801B41F288339842F0D95C
:1024F800032067E04FF4003292FAA2F2374A1068DC
:102508004FF4003292FAA2F2B2FA82F202F01F02FB
:10251800012101FA02F20242D2D1012052E04FF029
:10252800007292FAA2F22D4A10684FF0007292FAE5
:10253800A2F2B2FA82F202F01F02012101FA02F2BB
:102548001042BDD101203DE0234B1B6803F0070377
:10255800AB420AD9204A136823F007032B431360C0
:10256800136803F00703AB4233D1236813F0040F59
:1025780006D01A4A536823F4E063E1680B435360BA
:10258800236813F0080F07D0144A536823F46053E4
:10259800216943EAC1035360FFF71CFF0F4B5B68D7
:1025A80003F0F003F02292FAA2F2B2FA82F2D340D8
:1025B8000B4AD35CD8400B4B18600B4B1868FFF7DD
:1025C800B9F8002070BD012070470120FAE701200A
:1025D800F8E70120F6E700BF0020024000100240A3
:1025E800E83F00080000002008000020014B1868A0
:1025F800704700BF0000002008B5FFF7F7FF074B42
:102608005B6803F4E0634FF4E06292FAA2F2B2FA74
:1026180082F2D340024AD35CD84008BD0010024081
:10262800F83F000808B5FFF7E1FF074B5B6803F4C4
:1026380060534FF4605292FAA2F2B2FA82F2D34097
:10264800024AD35CD84008BD00100240F83F000899
:10265800F0B583B00446036813F4803F44D05C4B64
:10266800DB6913F0805F6DD1594BDA6942F0805213
:10267800DA61DB6903F080530193019B0125554B17
:102688001B6813F4807F5FD0514B1B6A13F44073AF
:1026980021D0626802F440729A421CD04C48016A08
:1026A80021F440764FF4803393FAA3F2B2FA82F21F
:1026B800494F3A4492004FF0010CC2F800C093FA17
:1026C800A3F3B3FA83F33B449B0000221A6006622B
:1026D80011F0010F4CD13E4A136A23F4407361682C
:1026E8000B431362002D69D1236813F0010F06D044
:1026F800374A136B23F00303A1680B431363236862
:1027080013F0200F06D0324A136B23F01003E16850
:102718000B431363236813F0800F06D02C4AD36A47
:1027280023F4F87321690B43D362236813F4805FA1
:102738004BD0274A136B23F4807361690B431363EF
:10274800002043E000259AE7224A136843F4807387
:102758001360FFF733F806461E4B1B6813F4807F9F
:1027680092D1FFF72BF8801B6428F5D903202DE0C0
:10277800FFF724F8064614E0154B196A022393FA6A
:10278800A3F3B3FA83F303F01F03012202FA03F35E
:102798000B42A0D1FFF712F8801B41F28833984210
:1027A80011D8022393FAA3F293FAA3F3002BE3D1EF
:1027B800022393FAA3F3064B596ADFE7D36923F0A0
:1027C8008053D36190E7032000E0002003B0F0BD00
:1027D80000100240007000400081901000286AD06C
:1027E80010B50446436A33B94368B3F5827F05D010
:1027F8000023C36102E00023036143610023A36255
:1028080094F85D30002B4DD0022384F85D302268A7
:10281800136823F040031360E368B3F5E06F47D90A
:102828000022B3F5706F04D0B3F5E06F01D0002338
:10283800A362636803F48273A16801F404410B4343
:10284800216901F002010B43616901F001010B43A9
:10285800A16901F400710B43E16901F038010B43F0
:10286800216A01F080010B43A16A01F4005120683C
:102878000B430360638B03F00403616A01F01001EA
:102888000B43616B01F008010B43E16801F47061CF
:102898000B4321681A434A6000202066012384F80C
:1028A8005D3010BD84F85C302046FEF70BFEABE7C8
:1028B8004FF48052B5E701207047000030B4036A36
:1028C80023F001030362026A4468836923F48033B6
:1028D80023F073030D681D4322F002028B68134333
:1028E800184A90420BD002F5A052904207D002F548
:1028F8008062904203D002F58062904205D123F0B5
:102908000803CA681A4322F004030E4A90420BD007
:1029180002F5A052904207D002F58062904203D09F
:1029280002F58062904205D124F440744A6922433A
:102938008C691443446085614A684263036230BC11
:10294800704700BF002C014030B4036A23F4807341
:102958000362036A4468C26922F4803222F0730277
:102968000D68154323F400738A6843EA0223144A66
:1029780090421DD0124A90420BD002F5A0529042CC
:1029880007D002F58062904203D002F5806290423F
:1029980007D124F440544A6944EA02148A6944EA93
:1029A80002144460C5614A68C263036230BC704760
:1029B80023F40063CA6843EA022323F48063D9E757
:1029C800002C014030B4036A23F480530362026A86
:1029D8004468C36923F0807323F4E6430D6843EA2F
:1029E800052322F400528D6842EA05320D4DA842B3
:1029F8000BD005F5A055A84207D005F58065A8427B
:102A080003D005F58065A84204D124F480444D69BB
:102A180044EA85144460C3614B680364026230BCB5
:102A2800704700BF002C014030B4036A23F48033A0
:102A38000362036A4468426D22F4803222F0700215
:102A48000D682A4323F400338D6843EA05430D4D8E
:102A5800A8420BD005F5A055A84207D005F580651A
:102A6800A84203D005F58065A84204D124F4803437
:102A78004D6944EA0524446042654A6882650362F8
:102A880030BC7047002C014030B4036A23F4801333
:102A98000362026A4468436D23F0807323F4E043C1
:102AA8000D6843EA052322F400128D6842EA0552B4
:102AB8000D4DA8420BD005F5A055A84207D005F545
:102AC8008065A84203D005F58065A84204D124F4A6
:102AD80080244D6944EA8524446043654B68C36596
:102AE800026230BC704700BF002C014010B4036A7A
:102AF800046A24F001040462846924F0F00C4CEAAE
:102B0800021223F00A030B43826103625DF8044B4F
:102B1800704710B4036A23F0100303628469036AE0
:102B280024F4704C4CEA023223F0A00343EA011368
:102B3800826103625DF8044B7047836823F0700379
:102B48000B4343F0070383607047000090F83D3063
:102B5800DBB2012B2AD1022380F83D300268D3680A
:102B680043F00103D3600368134A934210D0B3F1D2
:102B7800804F0DD0A2F59432934209D002F59E32CF
:102B8800934205D01A6842F001021A60002070478B
:102B980099680A4A0A40062A0AD0B2F5803F09D045
:102BA8001A6842F001021A6000207047012070473D
:102BB8000020704700207047002C014007000100EA
:102BC80070477047704770477047704710B50446A4
:102BD80003681A6912F0020F11D0DA6812F0020FB6
:102BE8000DD06FF002021A610123037703689B6915
:102BF80013F0030F79D0FFF7E6FF0023237723684C
:102C08001A6912F0040F12D0DA6812F0040F0ED00D
:102C18006FF004021A610223237723689B6913F477
:102C2800407F68D02046FFF7CEFF00232377236834
:102C38001A6912F0080F12D0DA6812F0080F0ED0D5
:102C48006FF008021A61042323772368DB6913F005
:102C5800030F57D02046FFF7B6FF002323772368DA
:102C68001A6912F0100F12D0DA6812F0100F0ED095
:102C78006FF010021A61082323772368DB6913F4C5
:102C8800407F46D02046FFF79EFF00232377236826
:102C98001A6912F0010F03D0DA6812F0010F3FD160
:102CA80023681A6912F0800F03D0DA6812F0800FD7
:102CB8003DD123681A6912F4807F03D0DA6812F0D4
:102CC800800F3BD123681A6912F0400F03D0DA68ED
:102CD80012F0400F39D123681A6912F0200F03D07F
:102CE800DA6812F0200F37D110BDFFF76BFF2046CE
:102CF800FFF76AFF81E72046FFF764FF2046FFF7EA
:102D080063FF92E72046FFF75DFF2046FFF75CFF71
:102D1800A3E72046FFF756FF2046FFF755FFB4E725
:102D28006FF001021A612046FFF74BFFB8E76FF01A
:102D380080021A61204600F082FBBAE76FF48072C5
:102D48001A61204600F07CFBBCE76FF040021A6174
:102D58002046FFF73AFFBEE76FF020021A612046CF
:102D680000F06CFBC0E700000368224A904206D0DE
:102D7800B0F1804F03D0A2F59432904203D123F0F2
:102D880070034A6813431B4A904212D0B0F1804F37
:102D98000FD0A2F5943290420BD002F59E329042A9
:102DA80007D002F58062904203D002F5806290421B
:102DB80003D123F44073CA68134323F080034A699C
:102DC800134303608B68C3620B688362094B9842A4
:102DD8000BD003F5A053984207D003F580639842BF
:102DE80003D003F58063984201D10B690363012383
:102DF80043617047002C014060B310B5044690F859
:102E08003D3013B3022384F83D30214651F8040BBA
:102E1800FFF7AAFF012384F8483084F83E3084F88D
:102E28003F3084F8403084F8413084F8423084F8E8
:102E3800433084F8443084F8453084F8463084F8C8
:102E4800473084F83D30002010BD80F83C30FEF754
:102E58006DFBD7E70120704760B310B5044690F8C2
:102E68003D3013B3022384F83D30214651F8040B5A
:102E7800FFF77AFF012384F8483084F83E3084F85D
:102E88003F3084F8403084F8413084F8423084F888
:102E9800433084F8443084F8453084F8463084F868
:102EA800473084F83D30002010BD80F83C30FFF7F3
:102EB80087FED7E70120704730B4036A23F0100378
:102EC8000362036A4468826922F0807222F4E6424F
:102ED8000D6842EA052223F020038D6843EA0513B2
:102EE800144DA8421DD0134DA8420BD005F5A0558E
:102EF800A84207D005F58065A84203D005F580658E
:102F0800A84207D124F440644D6944EA85048D69D8
:102F180044EA8504446082614A688263036230BC83
:102F2800704723F08003CD6843EA051323F040037C
:102F3800D9E700BF002C014038B590F83C30012B90
:102F480000F0958004460D46012380F83C30142A91
:102F580000F28880DFE802F00B8686861F86868668
:102F680034868686488686865D86868671000068F1
:102F7800FFF7A4FC2268936943F008039361226871
:102F8800936923F0040393612268936929690B43C9
:102F98009361002067E00068FFF78EFF226893695D
:102FA80043F4006393612268936923F48063936117
:102FB80022689369296943EA01239361002052E05A
:102FC8000068FFF7C1FC2268D36943F00803D361A6
:102FD8002268D36923F00403D3612268D36929697D
:102FE8000B43D36100203EE00068FFF7EBFC22684A
:102FF800D36943F40063D3612268D36923F48063FF
:10300800D3612268D369296943EA0123D361002087
:1030180029E00068FFF708FD2268536D43F00803B4
:1030280053652268536D23F0040353652268536D7A
:1030380029690B435365002015E00068FFF724FD5C
:103048002268536D43F4006353652268536D23F47B
:10305800806353652268536D296943EA01235365E8
:10306800002000E00120002384F83C3038BD022015
:10307800FCE710B4846824F47F4C42EA03220A4334
:1030880042EA0C0282605DF8044B704790F83C30CD
:10309800012B76D010B50446012380F83C3002237A
:1030A80080F83D3002689068374B034093600B68A6
:1030B800602B4CD029D8402B54D00CD9502B22D17E
:1030C800CA6849682068FFF711FD50212068FFF79A
:1030D80034FD002005E0202B0DD009D9302B0AD073
:1030E8000120012384F83D30002384F83C3010BDD2
:1030F8000BB1102B05D119462068FFF71EFD0020E3
:10310800EFE70120EDE70120EBE7B3F5805F34D06E
:10311800B3F5005F0CD1CB684A6889682068FFF76F
:10312800A8FF2268936843F4804393600020D8E79F
:10313800702B24D1CB684A6889682068FFF799FF0B
:103148002268936843F0770393600020C9E7CA6850
:1031580049682068FFF7DDFC60212068FFF7EDFC77
:103168000020BEE7CA6849682068FFF7BFFC402115
:103178002068FFF7E2FC0020B3E70020B1E7012058
:10318800AFE70220704700BF8800FEFF01F01F0173
:103198004FF0010C0CFA01FC036A23EA0C030362EA
:1031A800036A8A40134303627047000010B504465F
:1031B80010293CD8DFE801F0093B3B3B1F3B3B3B78
:1031C800263B3B3B2D3B3B3B340090F83E30DBB28B
:1031D800013B18BF0123002B40F0A48010294BD8D5
:1031E800DFE801F02C4A4A4A3A4A4A4A3E4A4A4AE1
:1031F800424A4A4A460090F83F30DBB2013B18BFCA
:103208000123E8E790F84030DBB2013B18BF012307
:10321800E1E790F84130DBB2013B18BF0123DAE760
:1032280090F84230DBB2013B18BF0123D3E790F896
:103238004330DBB2013B18BF0123CCE7022384F8FB
:103248003E300C2970D8DFE801F01B6F6F6F4D6FAF
:103258006F6F536F6F6F5900022384F83F30F0E7A8
:10326800022384F84030ECE7022384F84130E8E791
:10327800022384F84230E4E7022384F84330E0E78D
:103288002268D36843F00203D36001222068FFF765
:103298007DFF2368274A93420BD002F5A052934240
:1032A80007D002F58062934203D002F58062934210
:1032B80003D15A6C42F400425A6423681D4A93426F
:1032C80022D0B3F1804F1FD0A2F5943293421BD085
:1032D80002F59E32934217D01A6842F001021A6032
:1032E800002022E02268D36843F00403D360CCE7CF
:1032F8002268D36843F00803D360C6E72268D3681E
:1033080043F01003D360C0E799680B4A0A40062AC5
:103318000CD0B2F5803F0BD01A6842F001021A6057
:10332800002002E0012000E0012010BD0020FCE7A1
:103338000020FAE7002C01400700010090F83C202B
:10334800012A33D030B40346012280F83C200222FF
:1033580080F83D20006842688468154DA84220D056
:1033680022F070020D682A4342601A6810488242AF
:103378000AD0B2F1804F07D0A0F59430824203D032
:1033880000F59E30824204D124F0800489682143EC
:103398009160012283F83D20002083F83C0030BC76
:1033A800704722F470024D682A43D9E7022070471B
:1033B800002C014090F83C30012B3BD010B4024661
:1033C800012380F83C30CB6823F4407388680343BA
:1033D80023F480634868034323F4006308680343C5
:1033E80023F480530869034323F4005348690343D3
:1033F80023F48043886A034323F47023886943EAEB
:10340800004310680C4CA04206D04364002082F8A8
:103418003C005DF8044B704723F470034C6A43EAA0
:10342800045323F08073CC69234323F00073096AA3
:103438000B43EAE702207047002C014070477047B1
:103448007047026852E8003F23F4907342E8003165
:103458000029F6D1026802F1080353E8003F23F07F
:103468000103083242E800310029F3D1036E012B31
:1034780005D02023C36700230366436670470268AC
:1034880052E8003F23F0100342E800310029F6D14A
:10349800EFE7704708B5026852E8003F23F04003A1
:1034A80042E800310029F6D1202383670023836690
:1034B800FFF7EFFF08BD704708B5406A0023A0F882
:1034C8005A30A0F85230FFF7F6FF08BD70470000E9
:1034D80070B504460168CB6908688D6840F60F022C
:1034E8001A4005D113F0200F02D010F0200F20D180
:1034F8002AB115F0010222D1AB4E30421FD1226E03
:10350800012A00F0AB8013F4801F03D015F4800F5C
:1035180040F0378113F0800F03D010F0800F40F097
:10352800378113F0400F03D010F0400F40F037817F
:1035380070BD636E002BFBD020469847F8E713F068
:10354800010F09D010F4807F06D001250D62D4F850
:1035580080102943C4F8801013F0020F09D042B13B
:10356800216802250D62D4F8801041F00401C4F8E6
:10357800801013F0040F09D042B1216804250D62B0
:10358800D4F8801041F00201C4F8801013F0080F3D
:103598000BD010F0200F00D13AB122680821116237
:1035A800D4F880200A43C4F8802013F4006F0CD0AC
:1035B80010F0806F09D022684FF400611162D4F8CE
:1035C800802042F02002C4F88020D4F88020002A0D
:1035D800AED013F0200F06D010F0200F03D0636E8A
:1035E8000BB120469847D4F8802023689B6813F0D5
:1035F800400F02D112F0280F29D02046FFF721FFF3
:1036080023689B6813F0400F1DD0226802F108035D
:1036180053E8003F23F04003083242E80031002914
:10362800F3D1236F5BB1614A5A63206FFEF7A6F9A5
:1036380000283FF47DAF206F436B984778E720461A
:10364800FFF739FF74E72046FFF735FF70E720469C
:10365800FFF731FF0023C4F8803069E713F0100F3B
:103668003FF451AF10F0100F3FF44DAF10230B6231
:1036780023689B6813F0400F4CD0226F13685B6877
:103688009BB2002B3FF454AFB4F8581099427FF620
:103698004FAFA4F85A309369202B30D0226852E8F3
:1036A800003F23F4807342E800310029F6D12268F4
:1036B80002F1080353E8003F23F00103083242E80F
:1036C80000310029F3D1226802F1080353E8003FD2
:1036D80023F04003083242E800310029F3D12023C7
:1036E800E36700232366226852E8003F23F01003B3
:1036F80042E800310029F6D1206FFEF71DF9B4F831
:103708005810B4F85A309BB2C91A89B22046FFF74C
:10371800DDFE0DE7B4F85810B4F85A309BB2C91A58
:1037280089B2B4F85A309BB2002B3FF401AF00299C
:103738003FF4FEAE226852E8003F23F4907342E85B
:1037480000300028F6D1226802F1080353E8003F50
:1037580023F00103083242E800300028F3D1202387
:10376800E367002323666366226852E8003F23F07C
:10377800100342E800300028F6D12046FFF7A6FEE5
:10378800D6E64FF480130B62204600F02FFBCFE6FD
:10379800A36E002B3FF4CCAE20469847C8E62046DF
:1037A800FFF778FEC4E600BF20010004C13400081A
:1037B80008B5B0F85C30C26F222A05D00268936958
:1037C80043F00803936108BD0268918CDBB2426D37
:1037D8000B401370436D01334365B0F85A309BB208
:1037E800013B9BB2A0F85A30B0F85A309BB2002B7C
:1037F800E9D1026852E8003F23F4907342E80031AF
:103808000029F6D1026802F1080353E8003F23F0CB
:103818000103083242E800310029F3D12023C367AD
:1038280000234366036E012B16D10023036602684A
:1038380052E8003F23F0100342E800310029F6D196
:103848000368DA6912F0100F01D010221A62B0F87A
:103858005810FFF73BFEB6E7FDF778F9B3E708B570
:10386800B0F85C30C26F222A05D00268936943F031
:103878000803936108BD0268918C426D0B40138068
:10388800436D02334365B0F85A309BB2013B9BB29B
:10389800A0F85A30B0F85A309BB2002BEAD102682F
:1038A80052E8003F23F4907342E800310029F6D132
:1038B800026802F1080353E8003F23F001030832CD
:1038C80042E800310029F3D12023C367002343666F
:1038D800036E012B16D100230366026852E8003FED
:1038E80023F0100342E800310029F6D10368DA69B1
:1038F80012F0100F01D010221A62B0F85810FFF71A
:10390800E5FDB7E7FDF722F9B4E7000010B5044676
:1039180083680269134342691343C2691343016808
:1039280008684E4A02401A430A602268536823F422
:103938004053E1680B435360A269236A1A43216824
:103948008B6823F4306313438B602368444A9342A3
:1039580014D0444A934227D002F5806293421FD084
:103968001023E069B0F5004F20D0082B70D8DFE8AD
:1039780003F04A60486F636F6F6F66003A4B1B6BCA
:1039880003F00303032B09D8DFE803F00204060C55
:103998000023E6E70423E4E70823E2E71023E0E74F
:1039A8000023DEE70223DCE70023DAE7082B49D807
:1039B800DFE803F0051F2548224848480900FEF7BC
:1039C8001BFE002840D06268530803EB4003B3FB9A
:1039D800F2F39BB2A3F110014FF6EF72914235D882
:1039E80023F00F02C3F3420313432268D36000207D
:1039F8001BE0FEF717FEE4E7FEF7ECFCE1E71B48E7
:103A0800E1E71A4802E0FEF7F7FD18B3636800EB38
:103A18005300B0FBF3F080B2A0F110024FF6EF7341
:103A28009A4219D82368D860002000236366A366E9
:103A380010BDFEF7F7FDE8E7FEF7CCFCE5E74FF42D
:103A48000040E3E70120F0E70020EEE70120ECE783
:103A58000120EAE70020E8E70120E6E7F369FFEF45
:103A680000380140004400400010024000127A0073
:103A7800436A13F0010F06D00268536823F4003339
:103A8800816A0B435360436A13F0020F06D0026841
:103A9800536823F48033C16A0B435360436A13F0BD
:103AA800040F06D00268536823F48023016B0B438C
:103AB8005360436A13F0080F06D00268536823F472
:103AC8000043416B0B435360436A13F0100F06D059
:103AD8000268936823F48053816B0B439360436AB5
:103AE80013F0200F06D00268936823F40053C16BCB
:103AF8000B439360436A13F0400F0AD0026853687F
:103B080023F48013016C0B435360036CB3F5801FDF
:103B18000BD0436A13F0800F06D00268536823F471
:103B28000023816C0B43536070470268536823F489
:103B3800C003416C0B435360EBE72DE9F84305469E
:103B48000F4616469946DDF820802B68DC6937EA6F
:103B580004040CBF01240024B44253D1B8F1FF3F40
:103B6800F3D0FDF72BFEA0EB090040452DD8B8F1A6
:103B7800000F2AD02B681A6812F0040FE5D0DA6912
:103B880012F4006FE1D04FF400621A622A6852E81A
:103B9800003F23F4D07342E800310029F6D12A68A7
:103BA80002F1080353E8003F23F00103083242E81A
:103BB80000310029F3D12023AB67EB67C5F88030CB
:103BC800002385F8743003201DE02A6852E8003F7E
:103BD80023F4D07342E800310029F6D12A6802F1B3
:103BE800080353E8003F23F00103083242E800319C
:103BF8000029F3D12023AB67EB67002385F87430E5
:103C0800032000E00020BDE8F88330B583B0044607
:103C18000023C0F88030FDF7D1FD05462268126800
:103C280012F0080F0DD123681B6813F0040F16D18A
:103C38002023A367E3670020206684F8740003B09C
:103C480030BD6FF07E430093034600224FF400110D
:103C58002046FFF772FF0028E5D00320EFE76FF05A
:103C68007E4300932B4600224FF480012046FFF745
:103C780064FF0028DCD00320E1E768B310B50446F0
:103C8800836F03B32423A3672268136823F0010317
:103C980013602046FFF73AFE012813D0636ABBB9C8
:103CA8002268536823F4904353602268936823F092
:103CB8002A0393602268136843F0010313602046C7
:103CC800FFF7A3FF10BD80F87430FDF785FCD9E736
:103CD8002046FFF7CDFEE3E7012070474165A0F8D5
:103CE8005820A0F85A20002343668368B3F5805F04
:103CF80006D0A3B9036973B9FF23A0F85C3014E0B8
:103D0800036923B940F2FF13A0F85C300DE0FF23EC
:103D1800A0F85C3009E07F23A0F85C3005E0B3F13F
:103D2800805F27D00023A0F85C300023C0F88030E3
:103D38002223C367026802F1080353E8003F43F0F7
:103D48000103083242E800310029F3D18368B3F552
:103D5800805F19D00F4B4366002380F874300268E7
:103D680052E8003F43F4907342E800310029F6D14D
:103D78000020704703691BB97F23A0F85C30D4E7A3
:103D88003F23A0F85C30D0E70369002BE2D1024B57
:103D98004366E1E7B93700086738000838B5C36FEC
:103DA800202B1BD1E1B1EAB190F87430012B1BD064
:103DB800012380F874300023036603685B6813F4FA
:103DC800000F08D0046854E8003F43F0806344E8DB
:103DD8000035002DF6D1FFF781FF00E0022038BD45
:103DE8000120FCE70120FAE70220F8E7704700000D
:103DF800DFF834D00D480E490E4A002302E0D458AB
:103E0800C4500433C4188C42F9D30B4A0B4C00231A
:103E180001E013600432A242FBD3FDF781FC00F0FD
:103E28001BF8FCF7EDFFFEE7003000200000002043
:103E3800700000202C41000870000020840200203F
:103E4800FEE70A22002100F0B5B80000014B18680F
:103E5800704700BF0C00002070B50D4D0D4C641B61
:103E6800A4100026A64209D10B4D0C4C00F0ACF86A
:103E7800641BA4100026A64205D170BD55F8043B6A
:103E880098470136EEE755F8043B98470136F2E7C4
:103E98002441000824410008244100082841000862
:103EA80002440346934200D1704703F8011BF9E727
:103EB800012B2DE9F04701D0242B06D9FFF7C6FFC7
:103EC800162303600020BDE8F087DFF8E4C00D4644
:103ED8002E4615F8014B1CF8047017F00807F7D1A7
:103EE8002D2C32D12C780127B51C002B5BD0102B40
:103EF80009D1302C07D12C7804F0DF04582C4DD18F
:103F08006C781023023507F1004808F1FF384FF0AC
:103F1800000EB8FBF3F9764603FB198AA4F1300CBE
:103F2800BCF1090F16D86446A34224DDBEF1FF3F59
:103F380008D0B1451CD301D1A24519DB06FB0346C5
:103F48004FF0010E15F8014BE8E72B2C04BF2C7835
:103F5800B51CCAE7A4F1410CBCF1190F01D8373CD4
:103F6800E2E7A4F1610CBCF1190F04D8573CDBE778
:103F78004FF0FF3EE6E7BEF1FF3F05D12223036085
:103F8800464642B930469EE707B17642002AF9D044
:103F9800BEF1000F00D0691E1160F3E73024002B3A
:103FA800B1D10823AFE7302CA5D00A23ABE700BF77
:103FB8002140000813460A46014602480068FFF7F8
:103FC80077BF00BF0C000020F8B500BFF8BC08BCE4
:103FD8009E467047F8B500BFF8BC08BC9E467047BF
:103FE80000000000000000000102030406070809A1
:103FF8000000000001020304020304050607080983
:104008000A0B0C0D0E0F1010010203040506070819
:10401800090A0B0C0D0E0F10002020202020202054
:104028002020282828282820202020202020202060
:104038002020202020202020208810101010101070
:1040480010101010101010101004040404040404BC
:104058000404041010101010101041414141414156
:104068000101010101010101010101010101010138
:104078000101010110101010101042424242424248
:104088000202020202020202020202020202020208
:1040980002020202101010102000000000000000B0
:1040A8000000000000000000000000000000000008
:1040B80000000000000000000000000000000000F8
:1040C80000000000000000000000000000000000E8
:1040D80000000000000000000000000000000000D8
:1040E80000000000000000000000000000000000C8
:1040F80000000000000000000000000000000000B8
:1041080000000000000000000000000000000000A7
:0C4118000000000000000000000000009B
:04412400990A0008EC
:04412800750A00080C
:10412C0000127A00010000001000000010000020B6
:10413C000000000000000000000000000000000073
:10414C000000000000000000000000000000000063
:10415C000000000000000000000000000000000053
:10416C000000000000000000000000000000000043
:10417C000000000000000000000000000000000033
:10418C000000000000000000000000000000000023
:0400000508003DF9B9
:00000001FF
